:400000000080002011000000D1030000D103000008B500F0DFF9C04638B51222384B1A6000F010FF374800F0E7FD012000F02AFF302000F021FE344A344B1A60344C802537
:40004000ED052560334A116802230B431360324A324B1A60324A136808218B431360FA20C00000F0BBFE2F4800F0FCFDBC2292012D4B1A602D4B2E4919602E490A602E4A52
:400080001A60FE2212022D490A602D4919602D490A602D4A1A60E82149012C4A11602C4A1A60882189012B4A11602B4A1A60822212062A4B1A608022D202294B1A6044234A
:4000C000284A1360284A1360284A1360284A13604522284B1A60053A274B1A600132274B1A600132264B1A600132264B1A600820254900F0A5FD082000F096FD256038BD45
:4001000030001040001BB7000600008004010B400C020B4078002E402D3E00007C002E406CF02E40DC050000100301400000014044FF00801403014045FF008000030140A0
:4001400040FF00800403014041FF00800803014042FF00800C03014043FF008008010B4000010B402801014024010140200101401C01014018010140140101401001014067
:4001800008010140040101409D0F000010B572B60022474B1A600132464B1A70002410E0454863001A195200821891881B195B001A5AC31858880004104300F073F90134B8
:4001C000E4B2012CECD93C49081C0C30283100F04FF98022D202394B1A60394A394B1A60394A3A4B1A60EE221204394B1A60394A394B1A6080229203384B1A608022D2033A
:40020000374B1A6099231B04364A1360A4210904354A1160354A1360354A1360354A364B1A601022354B1A60354B197802200E3A0A431A70334C22783C218A4328390A4365
:400240002270197816220A431A703B222E4B1A602E4A2F4B1A6033222E4B1A60103A2E4B1A602E4A2E4B1A6020232E4A13602E4A1360A2332D4A136001212D4A11602D4A47
:4002800010602D4A1360BD222C4B1A602C4A2D4B1A602D4B18608C222C4B1A6003232C4A13602C4A1360FFF7B7FE00F011F910BD6CF02E401C700F401045010014000B4059
:4002C000003000EE000002403300990000010240000302400400990000500F4004500F4008500F4010500F4018500F4020500F4030500F4010550500200120402000104075
:4003000000700F4001700F4000000440400CD800080004401800044000010440761C1B00080104400C0104401801044000020440080204400C0204401802044000030440B6
:4003400002400200080304400C03044018030440000404401804044010B5064C2378002B07D1054B002B02D0044800E000BF0123237010BD08120020000000000C45010093
:4003800008B5084B002B03D00748084900E000BF07480368002B00D108BD064B002BFBD09847F9E7000000000C4501000C120020480E0020000000007047C04608B562B6D7
:4003C000024800F0FFF801F05DF9FCE7B9030000FEE7C04670B50F4E0F4D13E029686B68AC68002202E001C901C30432A242FAD1E868002202E0002102C304328242FAD13C
:400400001035013E002EE9D101F0C0F8FFF7D6FFFEE7C046010000001448010008B50F4A136801218B43136000230AE0032B03D89A000B49505800E00A4899000A4A8850FC
:4004400001332F2BF2D9FFF7A1FE0022074B1A60024A116801230B43136008BD0000104000000000D103000000000020C0000020F0B50025002711E0BB00C658F3B2FF228C
:40048000964308E06A008A181478A419527822700135013BDBB2002BF4D10137062FEBD9F0BDC04608B50A1C002101F0ADF808BD064B1B68002803D080221206134301E0D8
:4004C0005B005B08014A13607047C04680033A4008B580231B060F4A136003220E490A600E480F4908600F480F4908600C200F4908600F490A600F4A13600F4A0F4B1A60BF
:400500000F4A104B1A6000220F4B1A600B38FFF7CFFF08BD000030403000304008400400800030401040040088003040C00030403000314000003A408408430000033A409C
:400540008C00430040033A40000E3F4008B500F0C1FA08BD10B50022124B1A70124B1A70124B1A7012494888124B18808888588088791873C97919710621D98122311982CA
:4005800000245A82FA2189009982DA82013A1A831F32094B1A80FFF7D9FF084B1C70084B1C7010BDC3230020BC230020C22300204C0E002098230020B22300208C2300208D
:4005C0009423002010B590B0041C0BA82149142201F011F8204B1B78002B04D1FFF7BAFF01221D4B1A70002C30D01C4B1C6008AC05AA099206AB08930221218119311980EF
:400600005980173919710823137001F031F8201C1621694401F00CF9002818D1052300930F4B01930F4B02930F481049D82212010BAB01F059F8002809D101220C4B1A70C5
:400640000C481A2107320FF01FF900E0012010B010BDC046984501002412002090230020005401007902000009080000C8000020BA230020AC45010008B502281FD8002842
:4006800006D1104B1E221A8112325A809A8009E0012807D10B4B96221A81802212015A80F83A9A80084B187006480DF0DFFA002806D1064A117804230B43137000E00120B7
:4006C00008BDC0464C0E0020C2230020C323002010B50B4B1B78042B0ED10DF0B9FA041C084B1B88002B01D00AF010FA002C05D10522034B1A7001E00424FF34201C10BDE2
:40070000BA230020B223002003784078000218437047C04638B583890D2B20D1041C04300021221C33330FF0C7F8051E11D16068FFF7EAFF830706D50A4B1B6882204000B6
:40074000211C984705E0074B1B680620FF30211C9847054A137801218B43137000E00025281C38BD90230020C3230020024B00225A701A707047C046C023002008B5037813
:40078000042B05D1034B1B78042B01D1FFF7A0FF08BDC046BA23002010B582B0041CFFF7B9FF0F4B1B78DB0704D5002802D1201C00F092F90A4B1B78DB070ED4002809D029
:4007C00001A912238B70A3890B80C87020680EF0B9FA02E020680EF037FB02B010BDC046C32300208379002B07D000200BE0C25C002A07D10133DBB200E00023052BF6D9E6
:40080000002000E001207047F0B583B0041C0D1C9A4A117801230B431370282800D1B8E014D8062877D007D802286CD005286ED0012800D010E121E0242800D191E02728CB
:4008400000D19CE0212800D006E178E0422800D1EEE009D8312800D187E0412800D1D0E02B2800D0F8E098E04C2800D1EBE0FA2800D1ECE0432800D0EEE0DCE001AE07278A
:40088000377000237370301C02F07CFE377001237370301C02F076FE794B1E68301CFFF7A1FF002803D0301C00F0F0FE1CE0754B1B78754A12783F210A4092010B401343AC
:4008C000724A127820390A4012031343704A127860310A40520413436E4803701A0A42701B0C837000F0D2FE00200DF0C5F801A86949022200F07FFE01A80DF0DBF805229A
:40090000664B1A70A8E0281CFFF738FFA4E02A78634B1A70A0E02B78002B00D09CE06B78002B06D15F4B0022DA809A805E4A1A606B60524A137801218B4313708CE04F4BD9
:400940001B789B0600D587E0584B1B78102B02D10522564BDA70564B187854490CF06EFE7AE06A78534B1A7076E0534B1B88002B01D00AF0CBF80222484B1A706CE04E4BA1
:400980001B88002B01D00AF0C1F80222434B1A7062E00522414B1A705EE0404B1B78022B5AD0364A1278D20756D5344A1278520708D50322394B1A70304A137804218B4300
:4009C000137049E02D4A1278120708D50522334B1A702A4A137808218B4313703CE0032B3AD105222D4B1A70344B1B78002B33D10120FFF741FE00282ED10322274B1A704F
:400A00002AE02B4E301C291C022200F0F4FD0022234B1A7033785900CB185B002849C918284B9C4661442848063200F0E4FD13E0FFF79CFE10E06988162900D91721288818
:400A40000EF08AF908E0281CFFF7A6FE04E01F4A117801230B431370084B1A7811231A4209D0064A137801218B431370184B1B68201C291C984703B0F0BDC046C323002016
:400A8000580E00207CF2FF0F7DF2FF0F7BF2FF0F78F2FF0F5C0E0020BC470100BA230020BC23002028120020480E0020E80E0020C023002094230020B2230020C223002080
:400AC0000054010079020000B42300208C230020902300207047C04670B582B0051C8489132C01D0182C2BD1AC235B003C4AD358DB0404D4DE235B00D358DB043FD568681F
:400B0000FFF702FEC30702D51C26FF3601E08E267600132C03D101236A46937002E003236A469370002301932E4B1B78012B2BD12D4A117802230B431370002300242AE0C5
:400B40001A2C24D143681A78052A0ED85B780A3BDBB2F42B09D904236A469370031D01931E26FF360023002415E0204A137801218B4313701E26FF360023A0240BE01E2608
:400B8000FF360023062406E00023002403E01E26FF3601230024002C18D1002B16D1281D00212A1C40330EF087FE041E0ED12B886A4613800D4A137801218B4313700C4B76
:400BC0001B68002B02D0301C69469847002C04D0064A137801218B431370201C02B070BDAC450100942300208C230020C323002030120020000000000230800803D001386C
:400C0000FDD1C046C046C0467047EFF3108072B6704780F310887047024B1B68012018407047C0460C002E401F2318401E3B8340181C014B1860704700E100E001BE7047EE
:400C400038B5041C0D1C1F2802D90020FFF7F6FFA400034B9C4664442068256038BDC0464000002008B5034B1B7A5843FFF7C4FF08BDC046F00E0020F0B557464E46C0B406
:400C800083B0041CFFF7C1FF0190E71E2D2F74D83F4B1B78DBB2A34208D33E4B1B78DBB29A463D4B1B78DBB2994631E03B4B1B78DBB2A34208D33A4B1B78DBB29A46394BF3
:400CC0001B78DBB2994623E0374B1B78DBB2A34208D3364B1B78DBB29A46354B1B78DBB2994615E0334B1B78DBB2A34208D3324B1B78DBB29A46314B1B78DBB2994607E05E
:400D00002F4B1B78DBB29A462E4B1B78DBB299462D4BDE5D2F2E09D92A2C07D919222B4B1A600520FFF768FF192503E0274B1D683F231D40AE4206D2234BDA5D234B1A60C0
:400D40000520FFF759FF1F4B9C4664442378DBB21F4A13601F4B52461A601F4B4A461A600520FFF77FFFAE420AD9174BDA5D174B1A600520FFF740FF02E00020FFF75EFF88
:400D80000198FFF746FF03B00CBC91469A46F0BD40F3FF0F41F3FF0F42F3FF0F43F3FF0F44F3FF0F45F3FF0F46F3FF0F47F3FF0F48F3FF0F49F3FF0F4AF3FF0F4BF3FF0F32
:400DC0004CF3FF0F4DF3FF0FC04701002CFF0B4028FF0B401CFF0B4020FF0B4010B5041C0F4A116801230B4313600E4A0E4B1A600E4A1368802109020B431360002809D18F
:400E000000200CE00120FFF72DFFFFF705FF002804D1013C002CF5D1102000E0002010BD60F02E400220000078002E4010002E40034B1868C0231B02184000D0012070472E
:400E400000010B4010B50D4B1A6801218A431A601A68022082431A60094A10683024A043203C204310601068093CA043014311601A68802109060A431A6010BD00F02E4091
:400E800000FF2E4038B51D4B1B6801241C40002802D0012816D02BE0184B19680122914319601968022081431960154B19682E3081432038014319601968093881430A4339
:400EC0001A6018E00D4B1A6802218A431A600C4A10680725A84301431160116830208143103801431160196801220A431A6002E00020FFF7A3FE201C38BDC04600F02E407F
:400F000000FF2E4008B5FFF780FE044A1368C02109020B431360FFF77CFE08BD00010B4010B5FFF772FE08490A68084B1A408024E40122430A600A68134080221202134358
:400F40000B60FFF766FE10BD00010B40FF3FFFFF70B5061CFFF759FE041CFFF769FF002803D0FFF7DDFF012500E000250848331C0340084A106808490840184310601368C2
:400F8000012D01D1FFF7BEFF201CFFF742FE70BD0404040010020B40FBFBFBFF10B5244B1B685B0715D5234B5B685B070ED5224B596A042001401F4C62688A4362605A6AF0
:400FC00082435A629B69002B00D098470420FFF7BFFF174B1B685B0518D5164B5B685B0510D5154B596A8022D2001140114842688A434260596A114A0A405A62DB69002B32
:4010000000D098478020C000FFF7A2FF084B1B685B030CD5074B5B685B0304D5064B1B6A002B00D098478020C002FFF791FF10BD10020B40000F002034120020FFFBFFFF5A
:401040000160704701607047324B1A781202324B1B781A43314B1B781B02314909780B4330498B4201D1072A06D0D42109018B4206D1042A04D102E02B4B042200E02A4BA3
:401080002A490B602A4B1A602A4B1B781B022A4A1278134380229201934202D0002B02D002E0264B00E0254B254A1360254B1B781B02254A12781343244A934205D0244A97
:4010C000934204D0052B05D103E0224B02E0214B00E0204B204A1360204B1B681B09204A1268AA2A15D1012B13D9164B1B780E2B0FD11C4B1B781B021B4A127813431B4AE5
:4011000013601B4B1B781B021A4A127813431A4A1360704759F1FF0F58F1FF0F5FF1FF0F5EF1FF0F580B0000580D00006C002E4074002E405BF1FF0F5AF1FF0F0220000091
:4011400078002E405DF1FF0F5CF1FF0F0F0F000005050000050F000080002E40EC0F00F0E00F00F06DF2FF0F6CF2FF0F84002E406FF2FF0F6EF2FF0F94002E4008B5FFF781
:4011800071FD08BD08B500F04FF808BD08B500F053F808BD08B500F04FF8034800F02EF8032000F031F808BD8112000008B5024800F04AF808BDC046811200000048704707
:4011C000020200002B2070472B2070472B2070472B2070472B2070472B2070472B2070472B2070472B2070472B2070472B2070477047C0460120704701207047014B18679D
:401200007047C0460000002010B5041CFFF7FDFC044A1368C0218B43A4011C431460FFF7F8FC10BD0CE400E080225201014B1A607047C04600E100E080225201014B1A6092
:401240007047C04680E100E010B5041CFFF7F4FF201CFFF7D3FF0320FFF7D6FFFFF7E4FF10BDC04608B5FFF7D0FC044A136804218B43136030BFFFF7CCFC08BD10ED00E007
:4012800008B513F02FF908BD002243088B4274D303098B425FD3030A8B4244D3030B8B4228D3030C8B420DD3FF22090212BA030C8B4202D31212090265D0030B8B4219D39E
:4012C00000E0090AC30B8B4201D3CB03C01A5241830B8B4201D38B03C01A5241430B8B4201D34B03C01A5241030B8B4201D30B03C01A5241C30A8B4201D3CB02C01A5241AB
:40130000830A8B4201D38B02C01A5241430A8B4201D34B02C01A5241030A8B4201D30B02C01A5241CDD2C3098B4201D3CB01C01A524183098B4201D38B01C01A52414309FE
:401340008B4201D34B01C01A524103098B4201D30B01C01A5241C3088B4201D3CB00C01A524183088B4201D38B00C01A524143088B4201D34B00C01A5241411A00D201460D
:40138000524110467047FFE701B5002000F0FCF802BDC0460029F7D003B5FFF775FF0EBC4243891A1847C04603460B437FD4002243088B4274D303098B425FD3030A8B426F
:4013C00044D3030B8B4228D3030C8B420DD3FF22090212BA030C8B4202D31212090265D0030B8B4219D300E0090AC30B8B4201D3CB03C01A5241830B8B4201D38B03C01A3C
:401400005241430B8B4201D34B03C01A5241030B8B4201D30B03C01A5241C30A8B4201D3CB02C01A5241830A8B4201D38B02C01A5241430A8B4201D34B02C01A5241030AC0
:401440008B4201D30B02C01A5241CDD2C3098B4201D3CB01C01A524183098B4201D38B01C01A524143098B4201D34B01C01A524103098B4201D30B01C01A5241C3088B4282
:4014800001D3CB00C01A524183088B4201D38B00C01A524143088B4201D34B00C01A5241411A00D201465241104670475DE0CA0F00D04942031000D34042534000229C46D4
:4014C00003098B422DD3030A8B4212D3FC22890112BA030A8B420CD3890192118B4208D3890192118B4204D389013AD0921100E08909C3098B4201D3CB01C01A52418309A6
:401500008B4201D38B01C01A524143098B4201D34B01C01A524103098B4201D30B01C01A5241C3088B4201D3CB00C01A524183088B4201D38B00C01A5241D9D243088B42BA
:4015400001D34B00C01A5241411A00D20146634652415B10104601D34042002B00D54942704763465B1000D3404201B5002000F00BF802BD0029F8D003B5FFF715FF0EBC68
:401580004243891A1847C0467047C0460E4B70B500251E1C0D4CE41AA410A54204D0AB00F35898470135F8E713F022F9084B00251E1C084CE41AA410A54204D0AB00F358CD
:4015C00098470135F8E770BDFC470100FC470100FC4701000448010030B50024944208D0035D651C0C5DA34201D0181B02E02C1CF4E7002030BD002310B5934203D0CC5CFD
:40160000C4540133F9E710BD031C8218934202D019700133FAE77047134A1088810703D08107890F401A001D11791030484381B25088820703D08207920F801A001D8000F8
:4016400040180A494030098980B2CA0701D0503080B2890706D504495422091F09785143081880B2704700000E0F00205C12002010B501F055FF0CF089F810BD10B501F0EE
:4016800093FE10BD10B500F04FFA10BD10B50749044609780220002907D1204601F0E0FE002802D120460CF0B9FA10BD8210002070B504460120002C12D02368002B0FD007
:4016C000616800290CD0074D06222889208118462968FFF790FF6968606809780170002070BD00005C120020FFB585B0002768460E9D07734C481C460078002802D0082001
:4017000009B0F0BD10990F9801900095029105A807C800F0FBF80028F2D16946264603AB84460873002C19D0002115E08A00B75A082F09D990198078002805D0083FB75215
:401740001878401C187005E0002915D00027B75290198770491CC9B2A942E7D360460028CED10F9800280AD0109901F0D1F90006000E04D00120C3E701208446EEE701F0CF
:4017800013FE2948002101610C300599016021888180022D03D3A1798171A17AC17100211EE0481C19E082008B00A75AE65ABE46BE4211D26F463E80B4461E190296B678C6
:4017C000BE7001967646E6521719029EBB78B3706646A652019EBE70401CA842E3D3491CA942DED3114800906846037B22460799069800F013F9002882D168460A4C007BEB
:4018000060700A4801F00CFE0028B4D1204607490C3009F031F90028ADD109F04BF90028A9D1012121706BE7080F00205C120020F8B5054633480E460078002802D002241B
:401840002046F8BD002E5BD000242F49002D16D02A89D0070DD02868002808D003881B3BE12B04D24088FB2801D81B2801D2012409E0900707D56868002804D1F7E7002065
:40188000088108604860002CDAD11F482F8907811C481B21801D018041800421017119490020891C0870F80705D016480622801D2968FFF7A0FE1449B80703D56A68114821
:4018C000127882700F480D46801D0860001F486001F0ECFD0B48801D01F0DAFD28890FF093F828890FF0C8F903461033FFF794FE1F21C018890140180249308088809FE721
:4019000001249DE7080F00205C120020FFB58446384F1C460020BB883F78054602460646002F11D100290ED0029999420BD36146002908D0002C06D00A99002906D02E4BA8
:401940000B99994202D2012004B0F0BD002144E0AB001F19BF78002F3BD0E35A002B38D07B43591889B22B0000F04AF8050410161C253100A7782388BC46FF27233BEB37AF
:40198000BB4222D26346032B1FD322E0A388002B1FD0302B19D31CE02389002B19D0282B13D316E0A289002A13D01346134F233BBB420AD20DE0268A002A0AD033460F4F52
:4019C000233BBB4201D2964203D901200EE0002001E000280AD16D1CEDB2099B9D42B7D31C2463435B1802998B42ACD89642AAD8AAE70000080F002079020000BAFF000022
:401A000030B47446641E2578641CAB4200D21D46635D5B00E31830BC18470000FFB583B0002469460C801F4606468C80002806D00598002803D004983043800701D00124C1
:401A400067E0002FFBD03449049809888842F6D3FFF7ACFBFFF79AFB00F010FC002856D100F054FD002852D12C49084601F084F805042D0C4BD12A480499066081800021C4
:401A8000C18007810C98007AC00704D0684601F0A4FC040007D10C98007A800703D501A801F0B0FC0446BF1DFEB2002C21D13146059800F05DF804001BD10FF0EBF804069D
:401AC000240E16D16A461088928808368518144AF1B29088D288AEB29319984207D3401B801A80B201F038FB050007D000E0FF25012400F05BFA002D04D008E0F8B200F045
:401B00001BF9F6E700F07EFA06490120087000F0C7FB204607B0F0BD0C0F00205D1C0000681200201C0F002010B503480078012801D101F0B3F910BD1C0F002070B5084B9F
:401B40000446DA889E8800205518B54206D81D68AA182260DA885118D98070BD032070BD68120020014800897047000068120020F0B587B007460D460020890000900691BE
:401B80006846FFF7DBFF844600285DD1304800990160002117E02E4B88001A680629115406D22C4C0419667882185670628805E0C419203CA67A8218567022891B68C018AD
:401BC000491C4280C9B2A942E5D300242DE0601CC2B2059025E01E4FA30039689600581840887118039604904E88B04217D938466F46FE80B6464F786E4677710297049FAC
:401C00004F800168039F5E18767879184E700168764659184E800068029F18184770521CD2B2AA42D7D30598C4B2AC42CFD36046002809D168460699FFF780FF844600283C
:401C400002D1054900980860604607B0F0BD0000200F002028480100240F00207047000010B5002809D005494A68002A05D0011F08788000105801F01DFA10BD200F0020FE
:401C800010B50446FFF76EFFC0B2801DA0420CD307484068002808D0A100405801F07CF9002801D00470001D10BD002010BD0000200F0020F8B516460D460446FFF752FFCC
:401CC000C0B2801DA04203D20020C0430090F8BDB2B2E9B2684601F085F90099481C03D0024AA000526811500098F8BD200F0020F8B50746FFF736FF801DC6B20A4900207A
:401D000005460C680DE06178002907D06188B94202D32078FFF7B4FF002804D1241D6D1CEDB2B542EFD3F8BD200F002010B5002801D0FFF795FF10BD70B506460948002505
:401D400004680BE06178002905D062882078121D0023FFF7AFFF241D6D1CEDB2B542F1D370BD0000200F0020FFB581B00A9C16002BD000F0F1F80546042826D0214F002C9F
:401D80000BD02046FFF7B4FF2901C919486000281BD022460499FFF72EFC1A4928010E5046187481019805707D20029CC000444300F0C0F8009004280AD000F055FAA04221
:401DC0000ED800F051FA201A06E0FF2005B0F0BD204600F0ADFA0020B08135720020F5E700F042FA074600F0B9FA381B87B23846012100F0EFF80098010102480818878105
:401E0000E6E7000074120020F8B5060117483418217A042903D0A089002802D018E00020F8BD00F021FA054600F098FA00F0A2F804280DD001010D480F18B88941198DB282
:401E4000002100F0C7F80020B881284600F070FA6068064D002801D0FFF768FF042020720020A8516081A081D9E7000074120020FEB500266A4630460123254905016918B1
:401E80000D7A042D02D0898900291BD000211154401CC0B20428F0D300246846005D002830D01B482101081841894768056802910021016041600422418102728181002E0B
:401EC00002D015E01354E3E700F054F804280ED001010F480818019086890021304600F079F8019800218181304600F021FA0126002D07D038460299A847002F02D03846A4
:401F0000FFF714FF641CE4B2042CC6D3FEBD0000741200200EB5002005216A460090118150810348694600680FF029FD0EBD0000280F0020074A0020010189180B7A042B3B
:401F400002D08989002903D0401CC0B20428F3D370470000741200200549002002015218127A042A03D0401CC0B20428F6D370477412002030B50A4B04200A4C00210A01FC
:401F80001219157A042D06D09289002A03D09A4201D808461346491CC9B20429EFD330BDFFFF0000741200207047000030B50020074C05460423020111190B72A5504D60BF
:401FC000401C4D81C0B28D810428F4D330BD00007412002030B5094C00231A011219157A042D04D09589002906D02D1895815B1CDBB2042BF1D330BD2D1AF7E77412002053
:40200000002070471CB5002469460C70142001902346054A05480FF0B7FC04480068401C00D1FF2420461CBD81200000280F00203EB5124A0146FF20002301241268002952
:402040000DD0012914D0042908D104206946009308814B8110460FF092FC80B23EBD6846009304814381694610460FF083FCF4E768460093048143816946EBE7280F00205A
:4020800070B545890468416800890300FFF7B8FC08280509091E22282628002007F0E6F81EE0022908D0C8B22A4621460DF01AFE2046FFF73BFE13E002202A4621460DF00B
:4020C00011FE2946204600F00DF809E000200FF045F905E02046FFF7CBFE01E0FFF788F8002070BD014B0022DB6818472C0F002070B5448905680089022803D0032809D0BF
:40210000FF2070BD2246094C0023A46829460120A04708E0FFF7B2FA241DA2B200232946022008F05AFB002070BD00002C0F0020704700000248002141600180418070476C
:402140002C0F002070B50C46002186B016460391012802D0022859D116E003A9012008F09CFB01281BD1039D324621462846FFF742FA0095287801900220694608814E8182
:402180006846FFF7B5FF41E0214D002B686809D0049004A9022008F080FB01281DD0022006B070BD002812D0298840182146FFF722FA28880024801980B228806988091D89
:4021C000884206D12C801348FFF792FF03E00320E6E788421AD96C6018E004986860E278A378110219430B4A698000231060E3565360032313815181A1788170E178C17037
:402200006178417021780170042028800020C7E72C0F0020B41200203EB515460C46022803D004280CD000203EBD0091019002206946088107484A8100680FF0A0FB07E0F0
:402240000DF050FD044B0022DB6829462046984701203EBD280F00202C0F0020014AD160906070472C0F0020034801688068081A0A21484300097047C012002010B5FEF780
:4022800089FF482204490548FFF7B5F903490120C870002010BD000044480100C416002010B5FEF76FFF10BD70B5134C2368002B08D0207B1149C20705D040084000207320
:4022C0008868A08070BD88680B4AA18880B29268814203D90A4D691A091802E0814202D2411A5118A160A080A0689842EAD30FF063FB00F013F870BDC0120020C0102E40BB
:40230000FFFF000010B508461946FFF7A7FF10BD704710B5FFF780FF10BD000003480021016041608160C16070470000C0120020024610B5FF20002A0CD0FFF7EFFF064C85
:402340000321207B0843207310010A21FFF722F82060002010BD0000C012002000B504480A21806848430209FFF7D8FF104600BDC01200200248007B8007C00F70470000C7
:40238000C012002010B544490868002802DA434B01221A70022290430860414800693E49C00B4031096A08425ED0012000F06EFA3B483C497C30FEF745FE37480E216C307C
:4023C000FEF740FE364820218430FEF73BFE344814219C30FEF736FE3148FF21C131A430FEF730FE2E48FF212F31B030FEF72AFE2B482D49BC30FEF725FE29482B49AC3040
:40240000FEF720FE29492648491CB430FEF71AFE23482749B830FEF715FE21482549CC30FEF710FE1E4824490830FEF70BFE1C482249A830FEF706FE194821498830FEF791
:4024400001FE17481F498C30FEF7FCFD14481921C9029030FEF7F6FDFEF7F6FDFEF7AEFEC0B2022802D00FE0FF2010BD16491748FEF7E8FD15481649001DFEF7E3FD134870
:4024800000210830FEF7DEFD54200449C043891C0870002010BD000000F02E403C0F002000002E4055650000320300002F3F00003102000010520000EC160000FA120000EE
:4024C00031D000003AE300009956000080012E40F80F000070B50646581C80B245086D00002408E0304600F0A9F81055000A1119A41C4870A4B2AC42F4D3D80705D0D0183D
:402500002038D15CC47FD454C17770BD10B5FF2000F0BCF90F49FF2048700E481021801D41800121417001700A490020C91C4870FFF728FF04000AD100F008F907210648F2
:40254000FEF77EFD044807211830FEF779FD204610BD00003C0F0020CC112E4070B5002405465B1E0AE0284600F068F8010A161971702D1D1055A41CADB2A4B29C42F2DB3C
:402580009C4203D1284600F059F8105570BD000070B500210A4D5B1E0AE0541864782602545C344346193480001D891C80B289B29942F2DB994202D1515C4019018070BD45
:4025C00000102E40F0B50599091FCFB200217E1E0BE0541864782502545C2C43164D45192C80001D891C80B289B2B142F1DBFC0712D01C78515C24020F4A0C4381180C80C7
:402600009C785D78001D210280B2294384182180001D80B2D9780CE059781A7809021143054A84182180001DD9789B78090280B2194380180180F0BD00102E4001494018BC
:402640000088704700102E4010B50B490020487000F07CF8002000F03FF9002000F02CF907210648FEF7ECFC044807211830FEF7E7FC002010BD00003F0F0020CC112E403E
:4026800010B50B46062812D006DC01280CD0032801D1FFF7D9FF10BD0A28FCD00B28FAD105480078107010BDFFF730FF10BD1146184600F02DF910BD420F0020F8B5204D52
:4026C000AC6A0127A0071F4E002816DA307806280ED1286A384328621B480069F903084381B219481030FEF7ADFC042000F0CEF8134802212830FEF7A3FCE00711D006206D
:4027000000F0C4F80F49FF20C91E48707078002802D1686B38436863094801212830FEF78FFCE0050BD53078042802D1052000F0ADF80348FF2101312830FEF781FCF8BD4E
:4027400040F02E403F0F002000002E4010B503212348FEF777FC0120FEF710FD20483038406A204C80076178800F890001431C480C38FEF767FC6078002808D0401E022105
:4027800081401820FEF7F6FEC000083800E0B82081B21548FEF756FC1348032109021438FEF750FC10481149B830FEF74BFC612189010F48FEF746FC0D480321001FFEF794
:4027C00041FC0C490C48FEF73DFC0B480B496038FEF738FC084801218838FEF733FC10BD70F02E40420F0020D8102E4090890000041E2E40FF0F000058122E402090000066
:402800000849087806280BD148780749002803D1486B400840004863C86A01221043C862704700003F0F002040F02E4001480078704700003F0F002000B50300FFF7E0F8CA
:40284000080D050D0B070507090D012000BD032000BD042000BD022000BDFF2000BD0000074A9168D26889B2064B92B2994204D105498A4201D1012100E000210170704768
:4028800080002E4033D000003FE3000010B50446FEF77CFC072C01D9FF2C01D102480470FEF770FC10BD00003F0F002001494870704700003C0F002010B5064A012805D0EE
:4028C0001921C9021046FEF7BDFB10BD1D21C902F8E7000090002E4010B50A4A141D012808D009491046FEF7ADFB08492046FEF7A9FB10BD04491046891CFEF7A3FB034949
:40290000491DF3E788002E4031D000003AE3000070B50C460546FEF751FCC0B202280E49287804D0FF2810D04C280CD810E0FF2809D10A4AD0680004800F032801D00878ED
:4029400007E09069000A553803E00878207070BD4F382070087070BD3E0F002000002E40F0B50122002830D000292ED00424420600D00524792342065B06D21800D0641C2A
:40298000034600221EE00C2516466E43104D00277519AF720E4F002ABB51696007D0661EB24209D10B4E86197606760E05E05E06760E8027BE1B00E080269B198919521C29
:4029C0002E81D2B2A242DED300221046F0BD00004C15002079020000074900200C2242435218927A012A05D0401CC0B20628F5D300207047012070474C150020F8B50F00A5
:402A00000446164609D0184D18496868A04202D94018A04201D38E4201D90120F8BD39462046FEF7D9FD00281BD0324639462046FEF7E1FDF0B200210C224A4352191389BE
:402A40005668F718A74208D90127A41B1B1B9772834206DAC01A1469C0B2491CC9B20629EAD30020F8BD00004C1500207902000010B500F05DF80748054AC16806480C461D
:402A8000FEF7B9FD04492046FFF76AFF10BD000079020000480F0020D0120020002070470020054A002902D0012902D002E0506000E0906000207047480F002070B5084C32
:402AC000154608460549A26889182A46FEF793FDA0684019A06028B270BD0000D0120020480F00203EB50A226946FFF7E7FF044606480A2200686946FEF76EFD002802D07F
:402B00000020C0433EBD20463EBD0000480F0020002802D0044A914201D2FF20704703490A61C8600020704779020000480F0020024800214160816070470000480F002018
:402B400070B5074C15460548626880182A46FFF755FF60684019606028B270BDD0120020480F002010B503490A220968FFF7E8FF10BD0000480F002010B50F4A0023136035
:402B80000E4A13600E4B18600E4801600E49012008600E490860000290600E490C4808600D4914300860FF381538506000F0BCF800F0CAF9002010BD740F00205C0F002076
:402BC000880F00208C0F0020780F0020680F0020941600206C0F0020800F0020014610B50020002910D0094B1A689C685118A14209D25868196080188A0704D08A07920F73
:402C0000891A091D196010BD002010BD5C0F0020F8B50024164E671E321F3D463168136806E01422624310328A58521C1BD0641C9C42F6D36A1C14D02C46142254432246F5
:402C40000C3288500C214843FFF7C8FF3168002808510AD031680020103408517068401C70602846F8BD2546E4E73846F8BD00006C0F0020F3B50026F64381B000281BDBFE
:402C80001E490968884217D80299002914D01B4F142204463F1D54432546396810354859401C09D0FEF772FA38682F1F4159C359994203DBFEF766FA3046FEBD21460831F3
:402CC0000091465801590C20704308180C220299FEF791FC0948761C001D0068C159B14200D100260549009A091D865008684159491C4151FEF746FA0020FEBD680F002009
:402D0000002803DB07490968884202D90020C043704704491422091D096850431030085870470000680F0020F0B500200D4A451E0346171F50600FE0142601467143146864
:402D40000E1DA3510C461668083433511668083435511468401C635039688842ECD30020F0BD00006C0F0020F3B50026F64381B0002841DB2349096888423DD8029900294B
:402D80003AD0204F142204463F1D54432546396810354859401C2FD0FEF7F8F93868415900292BD0211D009146580C21005971430F46C1190C220298FEF71DFC1148002170
:402DC000001D0068761C00590C34C0190160416081600C48001D00680159B14200D100260849009A091D865008684159491E4151FEF7C8F90020FEBD3046FEBDFEF7C2F9EE
:402E0000FAE70000680F0020FEB504460D4600201E49089E0860471E009001900290002C11D0486885420ED2002A0CD0002E0AD0642E08D808460C3001681C2068430C183B
:402E4000207A002801D03846FEBD0120226020721846FFF7DDFE6060401C13D06681A6810A4827610C3067610179A94200D205710021684601810A462846029B00F040F8B6
:402E80002846FEBD00202072DDE70000740F002038B50124009400F039F838BDFEB50027164EFF433D4600240EE01C20316860430818017A002906D04068FFF721FF002807
:402EC00001D0254603E0641C3079A042EDDA681C12D01C2130684D434419FEF757F969466068FFF741FF0546FEF74CF9002DD9D1216868468847D5E7FEBD0000800F00203F
:402F000038B50024009400F001F838BD1FB500220C49541E0A60002811DB496888420ED808491C220C31096850430818406801A9FFF7A0FE401C02D0002004B010BD204667
:402F4000FBE70000740F0020F0B50021114A4D1E174611710C3F0B46BD6016E008461C2460431668041D355114680646235014680836A3551468361DA353044616680A34A4
:402F8000335318301468491C255078688142E5D30020F0BD800F002038B500210091002811DB0F49097888420DDA0D4D04010C3529680859002807D0201D0818694600F04C
:402FC0006FF9002801D0002038BDFEF7DFF828680F34015D491E0155FEF7D4F8009838BD900F0020F7B582B0002502986E1E06602E48D21C024017462D4A2C4610460C387F
:403000000178106805E02301C358002B0FD0641CE4B28C42F7D3711C28D03401211D40180191039900F02AF900281FD101E02646F1E71F48016820460C300F521C48039922
:40304000026820460E30115419480399026820460F3011540398784300F0A0F8144900280968085102D00024009011E001251AE00F48016801980818009900F02CF9002859
:4030800001D0012502E00098C0190090641CE4B203988442ECD3002D05D10298066004480179491C0171284605B0F0BDFCFF00009C0F0020F8B50D4600216A468C46118096
:4030C000002839DB23490978884235DA214B04010C3319680A59002A2ED020460C300B5A801C0E5C184670438018954224D3854222D2002006E007465F43BF18AF4206D040
:40310000401CC0B2B042F6D36046002814D0114E271DC8190C366A46294600F006F900280AD168460088012808D030682946C01900F0D1F8002803D00120F8BD0020F8BD07
:40314000FEF724F830680F34015D491C0155FEF719F8F3E7900F0020F8B50F46002400F031F8002817D10C4900220B460C334A600EE021011D680E466A501D680C36AA5344
:40318000B61C1D680F31AA551D68641C6A54E4B2BC42EED31A71F8BD900F002000280BD0C01C074A81085068890053884118994203D8936851601818704700207047000014
:4031C000900F0020F8B5064600200F4D009029700C0121466846FEF7B1FC00280CD129460C3100980860301B001F84B221466846FEF7A4FC002801D0FF20F8BD6C80009862
:40320000A8600020F8BD0000900F0020F8B5002827DB19490978884223DA174C05010C342168485900281CD028460C30085A009028460E300E5C401C0E5420682F1DC0196D
:4032400000F064F800280CD12068002445590EE0094829460C300068C01900F03CF8002801D00120F8BD00982D18641CE4B2B442EED30020F8BD0000900F002030B50D461F
:4032800004000BD0A800FFF789FF6060002805D000202570C0436080002030BD012030BD70B50D46040005D0002D03D00220205E002801DA012070BDFDF768FF0221615E1A
:4032C00060688900405828606088401E6080FDF759FF002070BD70B50D46040007D0002D05D002212078615E401E814201DB012070BDFDF74BFF6088401C00B260806168A7
:4033000080000D50FDF73EFF002070BD10B5040009D0227800216068FEF776F90020C0436080002010BD012010BDF0B500231D46002802D00224045F0AE00120F0BD4668B7
:403340009F00F6598E4201D1012503E05B1CDBB29C42F4DA15700020F0BD00000148007870470000A40F00207CB505460024FEF785F9A8796946087000A80622294601309C
:40338000FEF739F90021684606F056FA0C2804D0072804D01F2804D004E0022402E0042400E0272420467CBD10B500F089F9FFF73DFAFFF741FA10BD70B504460025FEF7E2
:4033C0005DF9002C06D0A079012803D8214602F033FD00E00125284670BD01460120002902D05020088000207047000001460120002903D002480078087000207047000087
:40340000A60F002001460120002905D003485422007850430880002070470000A60F002010B502460D49FE204870032410460EF0C9FD002810D10EF06DFD00280CD107F06A
:4034400089FA002808D100F051FB002804D106F0A1FC002800D10024204610BDA40F002070B50025044600280ED0A07901280BD8FEF704F9A0790028204602D003F08EF836
:4034800003E003F063F800E00125284670BD0000014610B50120002904D006220248FEF7AAF8002010BD0000A80F002001460120002903D0087802490870002070470000C5
:4034C000A60F0020F0B589B015460F4606460124FEF7D4F8002E20D0002F1ED0002D1CD0102239466846FEF786F81022314604A8FEF781F8102168460EF086FC102104A812
:403500000EF082FC2B46102204A9684604F098FB102128460EF078FC0024204609B0F0BD10B506F009F904F0EFFC07F08BF810BD38B504460120002C20D0617801291DD83A
:4035400000290BD0FF25E535FEF798F80C4828180088C0B22070072803D00EE0FF25CD35F2E70020694608706846FFF779F969460878012801D108202070002038BD000023
:4035800000102E40F8B504460120002C26D06178012902D92278092A20D8002905D0FF25E5352078092803D004E0FF25CD35F8E708202070FEF762F82078114F114E082861
:4035C0000DD00020FFF788F970780128207810D00D4969180880FE2070700020F8BD0120FFF77AF90720B8810549203188800120F2E7B8810248217820308180EBE70000D2
:40360000C0112E40A40F002000102E4070B50E46050001D0002400E00C4C002C11D0E28A500609D5D107C90F022003F0F9F8E08A40218843E08204E0D107C90F012003F04C
:40364000EFF83146284602F05BFD70BD2C170020F8B50546002004460D4E009013E022466946284600F078FE0098002801D00EF08BFCA878214602F011FBA878214602F065
:40368000FFFA641CE4B2308AA042E8D8F8BD0000E4170020064A02235188891C89B25180814201D8102900D95380508870470000AE0F00200148407870470000AE0F00204E
:4036C00038B51E4CFFF7B2F8042813D0052811D0062812D003282AD007280AD100206946087002460120FEF7CBFFFFF79FF80128FBD138BD00F0B4FB38BD02F05BFB00F0C5
:40370000AFFB02F0BBFB8007800F0228F4D10C4841880029F0D05B21095D0029ECD101210170A07D0140022003F07AF838BD02F045FB0120FFF7AAF838BD00002C170020B4
:40374000B20F0020F8B50646002403F0D7F80546304603F0EDF803460A480021068A0DE001228A401046174628401F40002803D0002F01D1224394B2491CC9B28E42EFD832
:403780002046F8BDE41700201CB50020694648706846FFF7CDFE01AA69460A20FEF770FF6946042008561CBD10B50C4601F06EF9002809D00179002906D0C1788078224698
:4037C00002F034FD002010BD022010BD0148007870470000041700204030C07E002800D00120704700B500F001F800BD8C2148430749084A40186030417F491CC9B2417724
:40380000D289914201D300214177C8B2704700000C170020E417002013B501F037F904000BD001F0FAFD002807D0214601AA0A310620FEF725FF00201CBD02201CBD0000EF
:4038400010B50C4601F022F900280AD001F0E5FD002806D0224604490A20FEF711FF002010BD022010BD0000ED160020F3B581B0074601460026029803F038F80446002FA6
:4038800001D0002500E0154D002D21D0284601F033F9032C04D13946029803F083F806463846029902F0ECF9032C06D0002C10D00121384601F0D0FA03E03146384603F029
:4038C00005FA284602F0ACF80221284602F0C2F8FEBD3846029902F0D3F9FEBD2C17002010B5044604F07EF9002801D00C2010BD2078611C02F0A6FDFF2801D01F2010BDBE
:4039000002F0ECFDFF280AD02178621C02F04EF9044821780068026B601C904710BD072010BD0000CC0F002010B504F05BF9002801D00C2010BD02F067FD03480068C06A60
:403940008047002010BD0000CC0F002070B50D46044610210EF058FA1021601806460EF053FA334610221946204604F069F9102130460EF049FA02202870204606F050F908
:4039800070BD0000F8B504464078217802028006870FE0781143A67809050002090D0643084601F073F800210546F2B2002812D0002C10D0022F0ED0032F0CD0002A0AD048
:4039C0000279092A07D0002A05D0134A5A23527E1B5C9A4207D82889002106F017F820460EF0D2FAFF21002914D10C48224600682946436930469847C0B2FF280AD12846BC
:403A00004030817EF2B2491C8176FF232146284600F005F9F8BD0000C4160020E40F00200020704710B5044604F0DCF8002801D00C2010BD2078611C02F004FDFF2808D0C9
:403A400002F048FC044821780068426B601C904710BD1F2010BD0000CC0F002010B506F099F900F097F9002010BD000010B504460F4801F0FBFC012817D00D4805222146F4
:403A80009C30FDF7B8FD0A4905229C310846AC38FDF7B1FD00F014FD054880222038C17B1143C17300F0ACF910BD3A2010BD00002C17002010B5044600786178E278084379
:403AC000A17811430843217908436179084305D004F07AF8002803D00C2010BD122010BD204602F05BFD002010BD000010B5FDF765FB02F025FF044804F002F902F0F4FBEE
:403B0000012000F003F810BDD4160020F1B586B003A8009005A8019026489F22817A114081726846FDF7C4FD002841D169460989C90705D0204806990068C268684690473E
:403B400069460989890706D5002831D11B480068816A0698884700282AD1194E0025757075737571F575357675767575B570F570B5713746F5730120BC3738731F20F880F5
:403B8000FF2130467972A0300175457503F0B0FD01F024FC00242046069901F0D1FB002803D1641C2406240EF5D0FD72BD72B57307B0F0BDC4160020E40F0020CC0F00201E
:403BC0000C17002070B505460E46084602F096FE0446304602F0ACFE0121A9400A46224001400A4301D0012070BD002070BD10B50446084602F09CFE0121A140014201D0D7
:403C0000012010BD002010BD10B5FEF70FFE032804D102F0D3F80120FEF738FE10BDFEB51C4616460F46054601F0FAFEA878FFF7D9FD02460190334639460094284600F063
:403C40000DF8002808D1A8780199FFF7DFFCFF2C02D138460EF098F9FEBD0000FFB585B005460E980C46FF2810D02B49C00009680A5840180179C0795278814201D901261A
:403C800001E09006860F6846038108E06078A1788006860FE0780002014368460181284601F0D0FB070007D021462846079A00F0FFFA384609B0F0BD304600F0E5FB04AEC1
:403CC0000346039002AA29460096204600F0EBF93C20405D002818D0284601F0B3FB012813D0684600890096C0B20190A878231DFF22079902F0B8F968460089039BC2B2FE
:403D0000A878079902F05EFDD3E7684600890021C0B20091E9E70000E00F0020F8B5104F002500242846FFF70DFD060012D00EE03046E040C007C00F07D02146284601F020
:403D400097FF21462846FFF791FD641CE4B2388AA042EDD86D1C2D062D0EE2D0F8BD0000E417002070B50024094D03E0002C01D0002000E028464121095C012901D100F0BC
:403D800050FA641C2406240EF0D000F039F870BD2C17002010B502F0A7FA0020FFF7B6FE0EF088F9002010BDF8B5002403F03CFC012800D10224114F00203E462036012344
:403DC0000425082203E0002801D0002100E031460979002907D001290BD002290BD0114681402143CCB2401C0006000EEBD07C70F8BD1C43F7E72C43F5E700000C170020FE
:403E000070B5144E0024F07BC00921D03546203503E0002C01D0002000E0284601F008FB012814D0641C2406240EF2D0F07B4006400EF073002403E0002C01D0002000E08F
:403E4000284600F0EEF9641C2406240EF4D0002070BD00000C17002010B5FFF7A5FF10BD10B5FCF7D2FE0446FEF7E0FC012809D0FEF7DCFC022805D0FDF7F4F92046FCF7F6
:403E8000C8FEEEE72046FCF7C4FE10BD10B50B4681791943817103D08078114602F018FC10BD10B582798A43827102D1807802F023FC10BD0346084800B5834209D81846B1
:403EC00000F0E4FD002804D00089984201D1012000BD002000BD0000FF0E0000074A9179491C8906890E917138220A4092014907090E114308430249084070470C17002046
:403F0000FF0E0000C006C00E70470000F8B507460E4600240D4803E0002C01D0002500E005462979002905D0641C2406240EF3D00020F8BD0021204601F002FA2E712046A5
:403F4000FFF7CCFF28813C700120F8BD2C170020F7B53D20405C88B015460C46002802D02878042802D200200BB0F0BD6946087200262046FFF730FC012800D001262046E9
:403F800003A938300191009023460327A17E34333246206A03F0D4FE02A8089900900B46019120463A4603A9243003F029FE02466846007A2870204601F0AEF91046D3E717
:403FC000FFB587B00C4605461078694608723D20005D1746002826D000262046FFF7FCFB012800D00126204603A93830019100902346A17E34333246206A03F0A1FE02A8F1
:404000000090291D019120462B1D03A924300A9A03F0F6FD02006846007A388002D1204601F07AF910460BB0F0BDF0B505463C20405C89B016460C4600280CD03078694679
:404040000873002806D000272046FFF7C5FB012803D003E01F2009B0F0BD012703200890204604A93830019100902346E17E34333A46E06903F064FE6846007B03A928181E
:404080000290009120462B46019504A92430089A03F0EAFD02466846007B3070204601F045F91046D7E7FFB505463C20405C89B016460C46002810D0084601F0C3F901282F
:4040C0000BD0308869468883002809D000272046FFF782FB012805D005E000200DB0F0BD0220FBE70127204603A93830019100902346E17E34333A46E06903F021FE291DED
:404100002B1D07A8129A6D4607C5204603A924300C9A03F0A9FD02466846808B3080204601F004F91046D9E710B518490446484028D0002101231A468A40904221D0491C16
:404140002029F8D300212046C840C243520618D0400616D0491C1929F5D3A0B2210C020AC3B2884201D193420BD01F21204600F090F9182805D8A00E062100F08AF90228C2
:4041800001D2002010BD012010BD0000D6BE898E002801D0002000E003484030C07F012800D00020704700002C1700200146002049070ED50021084B03E0002901D0002273
:4041C00000E01A461279022A04D0491C0906090EF3D07047012070472C1700200146002049070ED50021084B03E0002901D0002200E01A461279022A04D0491C0906090E51
:40420000F3D07047012070472C17002010B5044680346068002803D00DF0CAFE0020606010BD38B50546002000902846FFF7D4FA01281FD1284601F0F0F800281AD02879A4
:404240002C46C01E40340300FDF7DAFB07050511110511141100284601F0FAF8012806D068460DF037FE002805D0012008E060780028FAD038BD2846009902F06BFE0220C7
:40428000607038BD40308170704770B50546403528780C46052904D0002C05D1801E022802D8022002F0E6FF2C7070BD0171704792001018C166704710B5002801D0002043
:4042C00000E00348002802D0008905F013FC10BD2C17002010B5002801D0002000E00448002804D00179072901D100F08BF810BD2C17002010B54121095C012901D1FFF739
:4043000090FF002010BD000070B50546008A00281ED01049F122897A1140C90618D5294640314A8A098A521C4A4392B2D10800D10121540801E0621A94B2A042FBD9FFF778
:404340000DF8012804D1298AA878224601F014FF70BD0000C416002010B50023054C0B60248A944204D992001018C26E0A60C36610BD0000E4170020FEB5064600200090BB
:4043800001908020855968460DF0A4FD002801D00720FEBD20213046009FFFF782FD34464034A08AE080608AA080208A2081304602F0C6FFA88C218A884207D1288A618AE4
:4043C000884203D1688AA18A884203D0F07920210843F071688AA082288A6082A88C2082E98CE182FFF756F9E081208AFFF762F960733946304602F0D5FD0120A0700198C2
:40440000FEBD000038B5044600200090A079002814D14020015D052901D00E290ED168460DF058FD002809D12046009902F09CFE03481021C28A2046FFF728FD38BD000016
:40444000C416002010B50446807802F0A9FF204601F074F9002010BD10B50B4604460146184602F0D3FA002802D020460DF096FD10BD13B5044601AA11460620FEF700F947
:404480006846818861811CBD002800D102207047704770B500231A46491E0CE00446D440E507ED0F541C0646E640F407E40FA54200D05B1C521C8A42F0D3D8B270BD00000E
:4044C00030B50021124C0A46A05C002308E0C50701D0491CC9B201290AD840085B1CDBB20028F4D1012903D8521CD2B2052AEBD302290BD207488118C87B0122082B03D2FD
:404500009A400243D0B200E01043C87330BD0000C81700200C1700207FB504468034616805460E46183108226846FDF764F831462031082202A8FDF75EF8102168460DF070
:4045400063FC6068102108300DF05EFC60682B46083024331022694603F072FB7FBD10B504460821FFF79DFC10212046FFF799FC2079052822D0062820D008281DD1218988
:40458000002005F029FA072020712046FFF724F9012819D00E212046FFF777FE002158200155204601F050F92046FFF72FFE2046FFF7AAFE2046FFF79DFE10BD20890122D4
:4045C000002105F0EDF9DEE70521E4E7FFB581B01F4604460821FFF764FC10212046FFF760FC2079082803D0092804D0042503E00425012601E009250026204600F004FF82
:4046000000212046FFF741FE25712046FFF7FEFD0398002E02D0012808D00BE001280AD120890022029905F0BBF904E02189029805F0D2F901272046002140300176012F89
:4046400007D0204601F000F92046FFF753FE05B0F0BD02990173204602F0C9FD054605480121C28A2046FFF711FC002DEFD109202071ECE7C416002070B50C460546FFF73C
:40468000ABF8012809D108212846FFF70AFC0023012221462846FFF799FF70BD10B5044600F0B2FE2046FFF7B1FD00212046FFF7ECFD10BD70B505461A24FFF78DF80128AD
:4046C00009D108212846FFF7ECFB0023012221462846FFF77BFF70BD38B505460021684600910DF0F7FB002801D00D2038BD2846009C00F0D9FE2146284602F0DFFC064851
:404700000821C28A2846FFF7C1FB06212846FFF7BCFD002038BD0000C4160020F8B50446002000900E4668460DF0D4FB002801D00D20F8BD204604213430009D00F0A1F92B
:40474000842000590821183000F09BF9012E02D1204600F0A9FE2946204602F069FC06480821C28A2046FFF791FB02212046FFF78CFD0020F8BD0000C416002010B504468B
:40478000FFF7CAFE03212046FFF77FFD204601F047F910BD10B50021FFF7C0FF10BD000038B504460021684600910DF093FB002811D12046009A00F027FE1146204602F083
:4047C00088FC05480821C28A2046FFF75FFB07212046FFF75AFD38BDC416002038B504460021684600910DF075FB002810D12046009902F0F1FC07480821C28A2046FFF7E8
:4048000045FB04212046FFF740FD204601F008F938BD0000C416002010B5FFF7A0FE10BD00787047F8B50025002801D0002400E0194C002C29D0204600F0EFFD002824D027
:404840002079032822D0052822D026464036B18AA07801F035FFB078012816D10021204602F004F9274680373868002802D00DF09FFB3D600020B0702046FFF73BFD2079FC
:40488000072802D12046FFF73FFDF8BD042000E006202071F8BD00002C17002010B54C22115400F04CF810BD10B50446FF21FFF7F8FA09202071A07801F028FF10BD00006F
:4048C00038B5FF216A461180002801D0002400E0084C002C0DD011460620FDF7D1FE684601882046FFF7C5FD03480068C1692046884738BD2C170020E40F002010B50446EF
:404900008079002809D022214C200155FF212046FFF7C7FA204600F012F810BD10B5037902464032002B03D01173092B02D003E0002100E02221117300F001F810BDFEB577
:404940000446008900270090278120792646403600281AD0012818D0022816D0002002F089FC09E002AA01A9204602F03DF8002807D101980DF012FB204602F05DF800287C
:40498000F0D02046FEF764FEB776254680352868002802D00DF00CFB2F606868002802D00DF006FB6F60317B002916D0009800F061F8A078002101F0C7F9A07801F00CFBE3
:4049C000A07800F02FFFFF212046FFF76AFA0B20FFF742FA00F0CAFDFEBD1F213173E5E7F8B517460E46054603F06AF904003CD020460C3001F048FA204606220021183047
:404A0000FCF702FE2046062200211230FCF7FCFD1648224600683946436A28469847074626702846FEF7D8FE012148406070002D10D02889608028464030C1782171002EF4
:404A40000FD169796171018AE180418A2181808A608106E00648008BC005C00F2071002060803946204604F03AFFF8BDCC0F002000102E400A4610B50146002005F052F87F
:404A800010BD10B50CF09CFF10BD000000B50146FFF738FA002801D0002000E00348002802D002898A4200D0002000BD2C17002038B5044680346068002806D168460DF0DA
:404AC00019FA002801D100986060606838BD000010B5014600F0B6FC0128887802D0FEF785FE10BD8C214843024940186030007F10BD00000C17002070B50546044640357D
:404B0000A87F012811D1A1788C20084A484380186030067F3046FFF755F8002805D10220A877A078314601F0F5FA70BD0C17002010B50C4CA07A002813D0FFF7EFF80A48AC
:404B4000027F417F408B00F025FD012809D10020A07201F05DF905498989090B01D000F023FB10BDC81700200C170020A0102E4070477047490510B5490F0B00FCF740FF05
:404B8000060704080C0C0F073E21FFF787FE10BD0821FFF7C3FE10BDFFF7D1FE10BDFFF7ADFE10BDF8B507460025002D01D0002600E0204E01F0ECF8304640304489002120
:404BC000418101F0EFF8304600F027FC01282BD1A00702D52846FFF725FEE00602D52846FFF76EFEA00601D5FFF798F8600601D500F04EFC200602D5284600F01DF860078C
:404C000002D5284600F036FB380402D52846FFF761FB780402D52846FFF74EFBE00703D021463046FFF7A6FF6D1C2D062D0EBCD0F8BD00002C170020F8B5002801D00024A4
:404C400000E0144C002C23D025464035A87801281ED1FF278820493700593E46002805D00D49897A890601D5878AC68A2046FEF7B3FD01280CD10096E88A2A8A3B460146E1
:404C800002F03CFBE882A2780146104601F03EFCF8BD00002C170020C41600200149096809680847E40F002070B505460088FFF7EDFE04002AD000F0B0FB002826D02079B6
:404CC000092823D0204600F0D1FB012820D02046FEF782FD0646E07920210843E071204601F0DCFE002815D0294600F08BFE4220005D002810D02325E079DF210840E071D2
:404D00002946204601F01FFF284670BD022070BD3A2070BD072070BD002E05D02046FFF72BFB0500E8D1EFE70C2070BD70B50E460C2500F0DFFD040012D0002522892946BD
:404D4000094804F0FFFAFF2202212046FFF748FEA07800F0DDFF2046FFF7F1FD022000E000203070284670BD0E200000FEB5044600F0C0FD002801D00C20FEBD022101A800
:404D8000FFF7C4F8012859D168460079304F002801D0002601E03E462036002E4ED000213046FFF772FA3546002040356870A8700620FFF751F8208A6882228AE189A089F1
:404DC00002F0EAFA28820246608AFF23A88249330093E18AA08A02F091FAE882288AFEF769FC6873288AFEF755FCE881184806228778A11DAC30FCF7FEFB207901281FD024
:404E00006079E870A01D01F0B5FBFB20074010488770217EC278012917D0FB210A40C2700C4821460068826830469047B178204601F0DEF93046FFF705FBFEBD0920FEBDF4
:404E40000020E87004200743E1E704210A43E6E70C170020CC0F002070B50D460026194A0146002801D0002401E014462034002C26D0204600F0E6FA01280AD18C20484380
:404E800080186030007FFEF79DFE002801D102F02BF90D48006881692046884700280CD020464030817EA94202D3491B817600E086762089294604F0A9FD204600F0B0FD4A
:404EC00070BD00000C170020E40F002070B503460088FFF7DBFD040013D000F09EFA00280FD02079092819D02546997840352973204602F07CF90646A878012803D0AA8A4C
:404F000002E0022070BDEA880A20424301212046FEF7BCFF002E01D109202071002070BD0EB5002217216B460292198100905A810120029B00990DF0DBF80EBDF8B518487A
:404F40000024807A002822D1164E0025B089000B22E0204601F016F81249A039401807882A462146384600F015FB012810D00E480122478305770A4944778A72002D01D084
:404F8000002000E02030002801D000F049FDF8BDB089000B641CE4B20028DAD1F8BD0000C8170020A0102E400C17002010B50446C0060ED500200B4A03E0002801D0002151
:404FC00000E011460979022909D0401C0006000EF3D00548006881692046884710BD00F005F8F6E72C170020CC0F002070B51A4D002801D0002401E02C46203421790229E3
:4050000004D0002901D001F081FB70BD01225B210A5500F0CBFF032020710820FEF71CFF00212046FFF731F9204643300121064600F03AFF09480068016A3046884702469C
:4050400000212046FFF7CCFCA078FFF727FEA87B401CA87370BD00000C170020CC0F002010B50C46002121700088FFF70FFD03000BD000F0D2F9002807D00948F121807A6B
:405080000840C00603D4112010BD022010BD022020701A8A1889002104F060FD002010BDC416002070B50088FFF7F0FC040008D000F0B3F9002804D0E079C10903D00020B5
:4050C00070BD022070BDC1068025002908DA2843E07108480221C28A2046FEF7D7FEEEE7204600F01BFA0028ECD1E1792943E17170BD0000C4160020F8B50F4600210091FA
:405100000088FFF7C3FC040012D000F086F900280ED0E079410641D4617E02264A07002A08DB8907402500291ADA2843E07135E00220F8BD02F0C4FD002101702189418053
:40514000A1898180217E4170E189C1803E7005460178134804F0B6F9284604F0A3FC1DE0204600F075F9012806D068460CF0B2FE002803D00720F8BD2A20F8BDE0790099B6
:405180002843E071204602F05BF8607E0421304360760448C28A2046FEF778FE0020F8BD1D040000C41600203EB500220F236C460292238100910190628169460EC9002007
:4051C0000CF096FF3EBD0000F8B50446002000902088FFF75BFC05001AD0FEF7FDFA002812D02348807AC00710D0284600F015F900280DD0287903280CD004280AD0072848
:4052000008D009282AD103E00C20F8BD1120F8BD0220F8BD2F464037387801281ED02846FFF746FC06001BD00822211DFCF7E3F93046A1782030017261881022090A417235
:4052400021460C311838FCF7D6F9B878002809D001212846FFF719F80098F8BD0D20F8BD0720F8BD284600F04BFA0090F8BD0000C416002010B5002801D0002400E00B4CAA
:40528000002C11D0214640314878022801D100204870A07DC107C90F002001F0C1FA2046FFF728F8FEF75EFD10BD00002C17002070B503460D460088FFF7E8FB04000BD0EF
:4052C00000F0ABF8002807D01248F121807A0840C00603D4112070BD022070BD20464030418A008A491C41430804C10C5888884201D2122070BD20822079072802D12046B8
:40530000FFF702F8022028702089002104F04EFC002070BDC4160020016A491C016204D1817E491C4906490E81767047C169491CC16104D1C17E491C4906490EC1767047F6
:40534000F0B5064687B003A8009005A800270D460190002E01D0002400E01C4C002C05D06846FCF7A5F9002803D00BE0022007B0F0BD68460089C00704D18C2200212046F3
:40538000FCF742F9124829460068826820469047050018D1A6706776277100212046FEF774FF204600F030F8204601F041FB094820825E2007550848F121807A084000D0AD
:4053C00001202075E782E8B2D1E700002C170020E40F0020B80B0000C416002010B50020074B084AFF2119541418401CC0B221740428F8D31F2119541018017410BD000056
:40540000C81700200C170020002101628176C161C17620300177417770470079002805D0012803D0022801D0012070470020704740304078012803D0022801D0002070470D
:40544000012070474030807F002800D00120704740300078002807D0012805D0052803D00E2801D00120704700207047074A0146927B0020002A07D040314A78022A02D083
:405480008978012900D10120704700000C17002010B500F0BDFC03498989090B01D0FFF783FE10BDA0102E4070B5054604464035A87F002825D1FF206075A0788C21154A36
:4054C000484380186030417F8C23491CC9B24177A0785843104B8018DB896030994201D300214177A0788C21484380186030467F0677A1783046FEF765FB002802D0012017
:40550000A87770BD0220A877A078314600F002FE70BD00000C170020E417002038B5002105460091FFF794FF012806D068460CF0D1FC002803D0072038BD2A2038BD284627
:40554000009CFEF749F900280BD02146284601F097FD05480221C28A2846FEF797FC002038BD112038BD0000C416002070B50024074D03E0002C01D0002000E02846FEF734
:40558000B9FE641C2406240EF4D0002070BD00002C170020F0B515468207920F85B0000A02926A469080002D01D0002400E0524C002C28D0084600F0E5FC07466846808841
:4055C00000280BD00298012843D0022841D003280BD03D20005D012870D087E04748381801882046FEF745FF80E00020029002A80CF050FC002807D03D20005D012878D1D1
:405600002046FFF789FE74E06846029E8388324600213846FCF75EFF3848381801882046FEF727FF284600F07DFB01AA21463046FEF78EFC002806D030460CF09BFC3D2058
:405640004C21085528E0F5773146204601F0C4FA4FE0002000902089039068460CF00AFC002802D0002005B0F0BD6846009E8388321D00213846FCF72DFF20483818018874
:405680002046FEF7F6FE284600F04CFB25464035287E00280CD103E02046FFF705F928E001AA21463046029BFEF78AFC002806D030460CF055FC3D202873EDE713E002986C
:4056C000FEF7E6FE01460398307003980901000A0843707068468088B070000AF0703046FFF71EFC05E02046FFF716FE284600F019FB0120B7E700002C17002000102E4048
:4057000070B501790546032904D0042904D0072908D109E0052400E006240121FEF7FEFF002805D00D2070BD0824FEF7D5FFF7E7284600F075F92C71002070BDFEB5064666
:4057400002F0BEFA044602F0B4FA074602F0A7FA054602F0B9FA029002F0C8FA01902570280A6070280CA070280E3546E0704035687B20716771380AA071380CE071A87B46
:405780002072E8892549000A6072287CA072288A0522000AE072A87C2073688A000A6073287DA073A88A000AE073204610300091FBF721FF0027F770B078009900F0ECFF71
:4057C000777101984101029867750143A175080AE07503E0298A49004018308000F026FB3188042200F00EFC01283088F2D00C4F38801821204600F0E3FCA88A298AC00015
:40580000FBF7C8FD3881B07800F06CFAE98AB07800F07CFE00F072FAFEBD00001C17002000122E4010B5074A917B002901D0491E91730021FFF784FD002801D0002010BD86
:40584000012010BD0C170020F8B5074606464037B87F00282DD0B0788C2100904843234945186035287F0099FEF7C1F901281ED0287F401CC4B21E48C089A04200D8002484
:405880000020B877FF276F772F77A87702460146009800F0C5FD717DFF2903D0304601F088F8777501F020FC0025114F19E00320B877F8BD00200090224669463046FEF76F
:4058C0004BFD0099002904D0FF231A463046FEF7A6F9641CF889E4B2A04200D800246D1CEDB2F889A842E5D8F8BD00000C170020E417002000B5022000F002F800BD0000E8
:4059000010B502460021084B03E0002901D0002000E018460479944204D0491C0906090EF3D0002010BD00002C170020F7B50646087982B00C46092807D0A078F077084614
:40594000FFF780FD012806D010E030460CF026FB022005B0F0BDA1788C20294A484380186030007FFEF72EF9012810D0A078FEF70FFC01280BD037780121304601F0D4FAFD
:4059800025462035062F38D00B2F0FD107E06846027C21463046FEF75FFD0D20D9E72046FDF71AFF012801D1002028772046FFF78FF8054604AA21463046FEF736FB012075
:4059C0005F2108556946097C002001910090A07833463A46294600F047FB69460A7CA0780323294600F0EEFEA0782946FDF70EFE30460CF0D3FA0020ABE70120D5E700008F
:405A00000C1700208A8802804A884280CA8882800A89C2808A890281498941817047000010B502464032937F0021002B03D1927E002A00D00121064A927A002A00D000219D
:405A40000279092A00D10121807800F009FF10BDC817002070470000094B022809D0042809D008280AD10648A03002820448A83003E0382000E05020C0180180704700004A
:405A800000102E40014908817047000000102E4010B50446FF20F130022C02D0042C05D102E0FF20D93001E0FF20DD30002200F009FF044A108A044980B2A0430880108276
:405AC00010BD000000102E40B60F0020034B198A034A89B2814311801982704700102E40B60F002010B50446022804D0042C05D0082C07D10EE0FF20D93001E0FF20DD30B2
:405B000000F0D8FE0548018A054A89B221431180018210BDFF20F130F2E7000000102E40B60F0020034B198A034A89B2014311801982704700102E40B60F002070B5054609
:405B400004462035A87FF122800012018018164A86183088400840003080002906D10121AB7FFF220903601D00F0E4FD89212046AB7F80224901113000F0DCFD8321204632
:405B8000AB7F202249010B3000F0D4FD43212046AB7F40228901173000F0CCFD208801210843308070BD000000102E40F8B505460120A84086B214460F46012231467C20C5
:405BC00000F080FE3A463146782000F07BFE6078267800020643E078A2780002024360792379000203430C2045430D2080010549281844182680001D44182280001D401886
:405C00000380F8BD00102E40401880B270470000CB065B0E0343480901021943D00108430121C902084301490881704780142E404278037812021343084A1382C3788078A4
:405C40001B021843908248780B78000203431383C8788978000201439183704700142E40024A1080000C90801181704700142E40024A10820148803081817047A0102E4034
:405C800010B5054A1082084600F040FE024A0021A03A8018018010BDA0102E4010B50B46044600F017F819462046FFF7E1FF10BD002310B5F121064A090118468C182380B7
:405CC000091D401CC0B289B20828F7D310BD000000102E40024A10820148803001817047A0102E4010B504490882FF20012220211D3000F0E7FD10BDA0102E4000B50349D6
:405D0000442008800420FFF70DFF00BD00102E400349088202494520A039088070470000A0102E40000202494D3008807047000000102E40034A108202488030808840189A
:405D400080B27047A0102E4010B5084B074C0202A03B0029208202D075321A8010BD04490020088088807632F7E70000A0102E40201A2E40054B198807229202002801D037
:405D8000114300E09143198070470000001F2E4000B5034908884880FFF798FE00BD0000B60F002000B502484088FFF7BBFE00BDB60F002010B5FCF723FD10BD01495220FE
:405DC0000880704700102E40884201D8081A03E00022D243101A401880B2704710B50B4602460021F820FCF775FB10BD0748808806492039098B884201D8081A03E0002278
:405E0000D243101A401880B27047000020112E400148008AC0B27047A0102E40024908820148803080887047A0102E400148008970470000C0102E4000280FD00D4A108BBE
:405E40000870000A4870908B8870000AC8700948203000880871000A48717047064A10880870000A487090888870000AC8701089F0E7000040102E40C0112E400148008AC3
:405E800070470000001A2E40064B1A8999891B8A0270120A42708170090AC1700371190A4171704760102E40012904D00549098BC90B017070470349403109898907C90F02
:405EC000F7E7000000102E40FFB5044601230025FF202649DB03264E89B0002C05D0022C03D0032C30D0062C24D1358BAC042F07A40E3F0F012F21D0252C21D80623002133
:405F0000F820FCF7E7FA062C13D3A01F83B26A460021F820FCF7DEFA308BC6B21298002807D0A21F6946FBF766FB129800192038867600200C990D800DB0F0BD0C2C07D034
:405F40000A881A430A80F7E7358BAC04A40EF5E706230021F820FCF7BDFA06230021F8200A9AFCF7B7FA308BE3E70000001F2E40E0102E40024800884005C00F7047000009
:405F8000001F2E400148408970470000E4170020044A10820448028980894843101880B270470000A0102E40E417002000B5084908828C21074B4143C918FF2260314A7774
:405FC0000A7700228A77114600F02AFA00BD0000A0102E400C1700208C225043074A10B58018FF21603041770177002181770448418EFF201D3000F05DFC10BD0C170020AC
:40600000C416002010B50023884201D8081A03E00024E443201A4018044980B2884201D8824200D90123184610BD0000FF7F000070B55478157824022543D4788823260242
:40604000947834435679127936023243002900D09823044908820348A038181805808480028170BDA0102E40FFB581B014460D4607460A9E0B9BFFF78BFF002E0AD0009319
:4060800033460021049AFCF79DFA05484019C45505B0F0BD0021049AFCF77AFAF5E70000BA0F002070B502460448054D808808242C800B460021FCF76BFA70BDE417002015
:4060C000A0142E4010B5212402466401044953200880102300212046FCF75AFA10BD000000102E40417802780902044B0A431A83C1788078090208439883704760142E4081
:40610000034A1082802001430148803001817047A0102E40054A1082044A6032908B0009000108439115084390837047A0102E4030B500210F4B0A46012809D0032802D093
:4061400005280AD107E04021198102210A2204E004210C2201E004210D221882054C20342088C0B205460D42FAD022800021198230BD000080142E4010B50446074804828C
:40618000074801808280032189030820FFF7AAFC200202497530A039088010BDA0102E40201A2E40054A1082044A60321183000202494B30A039088070470000A0102E4040
:4061C000024610B50B460F2000218001FCF7E0F910BD0000054A491E1082044A60321183000202494C30A03908807047A0102E40017E012901D9012101764279C9B2530077
:406200000B430179CA001A4310210A4303490A8102880A80408888807047000040102E400148008B70470000E0102E408823002900D09823084908820748A03819180888B6
:406240001070000A507088889070000AD07008891071000A50717047A0102E4010B51446024606480B46C0880021FCF777F9012C02D103495420088010BD0000E4170020C6
:4062800000102E40064A11880170090A417091888170090AC1700349542008807047000080142E4000102E400148008B70470000E0102E403E21095CF1238A001B01D21824
:4062C000082903D202490088511808807047000000102E400121814010B589B200227C2000F0F0FA10BD0000FEB53F210220FFF7CFFB1F210420FFF7CBFBFF210820FFF704
:40630000C7FB3020FFF7E2FB3748802101803748374D00784007400F022860D001285DD100202880002211460320FCF7A9F9314E3148F18D0183318E81832F4F0024203766
:406340002948A0300482308F38822046FFF744FE641C2406240EF3D0B08F38832548103000F0F4F8716930690191009069464879C021084369464871684600F00FF900F0EE
:4063800043F81C48184C40304188A03421838188A183C1881448C0308180708E38801748002606823E20FFF7BDFB0F4853210180134A07211183542101808115A1810E492D
:4063C00040318E815B210180084800784007400F022806D0012801D10A482880FEBD03209FE70848C01CF8E700102E40E4170020001F2E40C4160020C0112E40001A2E4077
:4064000080142E40E0230000044800218183018302497420603908807047000060102E40074B1882064B6033988B00090001084399158843002A01D1102148409883704785
:40644000A0102E40F3B50D2284B0920100924A780B78120213430393CA788B78120213434A790979FF20120211431A4A8C46918B9E460291118B01911649742260390A80FF
:40648000154900220F7821E00121124B9140009C603BE3181D8889B21C881B88039E6E407546654064462E435C4026430CD1029B194209D00199D140CB070499DB0F8B42DD
:4064C00002D1104606B0F0BD521CD2B29742DBD8F8E7000060102E400417002030B50949FF208C8B084A00210125137805E02A468A40224204D0491CC9B28B42F7D830BD49
:40650000084630BD60102E4004170020024A10820148603081817047A0102E4010B5044C208204488180028183815143018210BDA0102E40A0132E40034B18820248203841
:406540008180028070470000A0102E404178027809020A4306490A80C2788378120213438B804279007912021043088170470000C0112E404178027809020A4306490A8136
:40658000C2788378120213438B81427900791202104308827047000060102E40417802780902084B0A431A83C178827809020A439A834179007909020843024920310880A6
:4065C0007047000040102E404178027809020A4306498A80C2788378120213430B814279007912021043888170470000001F2E40F0B5F12600213601FF240C4D01348A00E0
:40660000921953191A88D7070AD0520852001A80884201D1224300E0A24301273A431A80491CC9B20829EAD3F0BD000000102E4010B500222021302000F044F9054943204F
:40664000088000F0F1FFC007FBD10220FFF73EFA10BD000000102E4010B590B0044640216846FFF7BBFB00210A4AC94311830220FFF758FA62782021302000F023F9054936
:4066800042202039088000F0CFFFC007FBD010B010BD000020102E4001794279490011438279D2000A43FF2101310A4303490A8202880A81408888817047000020102E407E
:4066C000024A10820148603081807047A0102E4010B5044688000521FAF75CFE04490C8204498880200202497230A039088010BDA0102E40001A2E400349088200020249CF
:406700007330A03908807047A0102E4003490882000202497030A03908807047A0102E4003490882000202497130A03908807047A0102E40F0B515460F4604461E46FF2A61
:4067400004D000222946184600F098F86078237800020343E078A1780002014360792279000202430C207043C0190A4C80B207193B80001D80B203191980001D80B2001922
:406780000280FF2D04D001222946304600F076F8F0BD000000102E40094A108248780A7800020243064820380281CA788B781202134383814A790979120211430182704795
:4067C000A0102E40F8B505461C4617460E46084600F09CF8054AB90021431582034AA03A80180180024880194455F8BDA0102E40BF0F00203E21095CF1228900120189180A
:40680000064A89180A88D30706D0520852000A8000880122104308807047000000102E4030B50E4C238A01251A46012804D0022804D000290BD00CE02A430AE0002908D17E
:406840002A4322825008400020821A4601E05A0852009A4200D0228230BD0000001A2E40054A1082044A6032908B4023984389010143918370470000A0102E40F1238000AE
:406880001B01C018044BC3181888002A01D0084300E088431880704700102E40044A118A0223002801D0194300E0994311827047001A2E40024A801802880A430280704777
:4068C00000102E4070B5084BC5182C880023080003D104E040085B1C9BB2C607FAD08C439A4022432A8070BD00102E40024A1018405C8007800F7047BF0F00200249088288
:406900000148803080897047A0102E408000FF3041307047044B02461B8AFF208B4202D902484018805C7047E4170020BA0F0020024908820148803000897047A0102E4041
:40694000174902460B680020002B08D10A605207520F012A04D0022A10D0086012207047112292018A80CA80032252020A810122D2024A8140228A8105220DE00922520278
:406980008A80CA80012252030A810322D2024A81012252028A810422CA810A8270470000E41700200A4600B501461046FFF7B2FF00BD38B50C4605460021684600910BF080
:4069C00089FA002804D1009928464C7000F02BFC38BD10B5044680780021FFF797FD01212046FFF737F810BD436E002B0CD00B60014660318B781370826E4266CA788A70C7
:406A00000021816608467047FF20704710B50346446E6033002C04D0846E002C04D0FF2010BD41669A7001E08166DA70002010BD0021416681667047406E002801D0002065
:406A40007047FF20704770B50446C0790E461546C1090AD04006400EE07101F031F9067021894180856002F0F0FF70BD70B50446C0790D46810610D5DF210840E07101F0C9
:406A80001FF90570218941804034218A8180618AC180A18A018102F0F5FE70BD38B54221095C0446803400290FD1206800280CD168460BF01FFA002807D10098002120608F
:406AC000C1812068418520684180206838BD000001480078704700001818002010B50446FEF7B0FC01280AD1A1788C20054A484380186030007FFDF765F8012801D000F043
:406B0000F3FA10BD0C17002070477047704770B506460446403630780D46022812D18420005908222030691CFAF765FD29462046042209313830FAF75EFD2046FDF71EFE4C
:406B40000120307670BD70B50E4605462021FDF7A8F92C4680342068002803D00BF028FA0020206031462846FFF780FF00212846FDF788FB2846FDF7BDFB002070BD7047A3
:406B800070B50D4604460221FDF78BF92046FCF723FE012805D009222421204600F006FB70BD0C486978807A6A1C0840F12108402075607E082108436076E079EF21084047
:406BC000E07100212046FFF73EFF2046FDF792FB70BD0000C4160020F3B581B005460298FDF71EFE04462846FEF717FC00284BD0162C04D32846029900F02BF944E02E46DD
:406C00004036317800220B00FAF7FAFE0E141414080814141408080808080814029803780020284F3F5C9F4204D0401C0728F8D3002A02D0022915D02AE0A878FFF766FD64
:406C4000002301223D212846FDF7C0FC3D2030732846FFF7BEFE02980BF08CF92846FDF76EFEFEBDFFF734FF002811D1042C0FD00D2C0DD0112C0BD0202213480299FAF7F6
:406C8000BAFC012000F0F6FA02980BF073F9FEBDA0000C4C0299083422582846904702980BF068F9FFF714FF0228F0D10648064900788000225828469047002000F0DAFAB1
:406CC000FEBD00008C480100F817002070B50D460021002801D0002400E00C4C002C14D020464030C177807F032802D12046FEF7ABFD2046FFF7F2FE162D04D20449A8006F
:406D0000095820468847FEF731FC70BD2C170020EC48010010B50446FCF75EFD012802D100202034207710BD10B5014640310C460978062903D1FDF733FD0120207610BDAA
:406D400010B5044640300078072805D12046FEF75BFB2046FDF71EFD10BD000038B5044600220E4800920D46807AF1210840C0060ED52046FEF76CFB012809D068460BF026
:406D8000A9F8002803D12046009900F0F9F938BD2946204600F05DF838BD0000C416002010B51021FDF77DF810BD10B54978FDF763FC10BD704710B54021095C032901D145
:406DC000FDF70CFD10BD10B54021095C042901D1FDF722FD10BD10B50446FCF7FDFC012801D12034607710BD70B5044600790D46052803D0062801D0082802D12046FDF7DA
:406E00004DFC68784C21085509212046FDF74EFA2046FFF7DEFD2046FCF7DEFC0128A07805D0FFF773FC2046FEF7FAFD70BDFFF777FCF8E710B50446FF21FDF732F8162163
:406E40004C200155A078FFF761FC2046FEF7E8FD10BD70B50C460546FEF7F4FA002802D02078687570BD21782846FFF7A2FD70BD70B5054648780C46032802D12846FDF7EC
:406E800019FC6078122803D110212846FDF709F803482146006842682846904770BD0000E40F0020704738B5044600200D46009004212046FCF7F5FF68782076E8780002BF
:406EC000A081A9780843A08168790002E08129790843E081607E04210843607680070CD468460AF0F7FF00281CD12046009900F0A7F9607E022108436076E079410611D5DD
:406F0000BF210840E07100F0DBFE00210090017021894180A1898180217E4170E189C18002F0C0FD38BD7047704770B50446C07815460A4600280AD00020E070C1B2A078FB
:406F4000FFF776F8A0782946FFF72CF970BD0120F3E70000F8B5064601200C460870104905220F46601CFAF746FB5220805B0A21401C484381B2B078FEF7DCFE0546A07197
:406F8000000AE071082231462046FEF7CFFC040004D12A4639463046FFF7C7FF2046F8BD1C1700207CB50646803005680C46B078FEF734FF014630464E30009001AB2A4624
:406FC000304600F010FAB078FEF728FF69468988FEF7FAFE0020354620704035687B6070A87BA070E8896946000AE070287C2071288A0C22000A6071A87CA071688A000A0F
:40700000E071287D2072A88A000A60728888A072000AE07231462046FEF788FC040005D1684681880122304600F03AF920467CBD70B5054603200C4608702E468036082249
:40704000601C7168FAF7D7FA706808222030017A6172407AA0727168204618310B30FAF7CAFA29462046042234311330FAF7C3FA172229462046FEF759FC002070BD00001F
:4070800070B505460C46C07910210843E8710820207002460021601CFAF7B6FA0648F122817A11406170C07AA070092229462046FEF73CFC002070BDC41600200B4610B570
:4070C00001460A20187001221846FEF72FFC002010BD0B4610B501460B20187001221846FEF724FC002010BDFEB500241D4F03E0002C01D0002600E03E463046FFF79CFCC5
:4071000000282AD15F20805D002826D16A4601A93046FFF769FC00281FD101980578002D09D0012D0CD069460A783146FEF7FEFB022D0AD011E001463046FFF733FF0CE0E7
:4071400001463046FFF706FF07E0B0780121FFF787FB09213046FDF7A9F8641C2406240EC6D0FEBD2C17002010B50B46122119708178D977014601221846FEF7D7FB10BD72
:4071800010B50B46132119708178D97706490989C90603D1C18A40221143C182014601221846FEF7C3FB10BD20112E4038B50546002000900C4668460AF08CFE002801D09F
:4071C000072038BD00980D210170447002222946FEF7ACFB002038BD0B4610B501460620187001221846FEF7A1FB002010BD38B505460020009068460AF06CFE002801D047
:407200001F2038BD009C022020704C20405D6070A878E0772846FFF7DCFB022229462046FEF784FB38BD10B50B46072119708178D977014602221846FEF778FB002010BDB1
