:400000000080002011000000C10B0000C10B000008B500F0D7FDC04638B512222E4B1A6001F0C4FA2D4801F04FF9012001F0DEFA302001F0C7F92A4A2A4B1A602A4C802516
:40004000ED052560294A116802230B431360284A284B1A60284A136808218B431360FA20C00001F061FA254801F0A2F9244A254B1A60254B254A1A60BC218901244A11606B
:40008000244A1A60E8214901234A1160234A1A6088218901224A1160224A1A6082221206214B1A608022D202204B1A604322204B1A60013A1F4B1A60023A1F4B1A60013291
:4000C0001E4B1A6008201E4901F022F9082001F013F9256038BDC04630001040001BB7000600008004010B400C020B4078002E402D3E00007C002E406CF02E40DC05000076
:4001000000ED02000C0301400000014043FF00800803014042FF00800003014040FF00800403014041FF008008010B4000010B401C0101401801014008010140040101407D
:400140000517000010B572B60022264B1A60002410E0254863001A195200821891881B195B001A5AC31858880004104300F078FD0134E4B2012CECD91C4A1D4B1A60992312
:400180001B041C4A13601C4A13601C4A13601C4A13601C4B197802220A431A701A4802783C218A4328390A430270197816220A431A700322154B1A60154A164B1A60202387
:4001C000154A13601549164A1160164A13606033154A1360154A1360FFF71EFF00F056FD10BDC0466CF02E40C0290000EE0000EE000002400001024000500F4010500F4069
:4002000030500F4000700F4001700F40000004402449DA000800044000010440041003000801044018010440000304401803044010B5064C2378002B07D1054B002B02D0EB
:40024000044800E000BF0123237010BDE8000020000000005427000008B5084B002B03D00748084900E000BF07480368002B00D108BD064B002BFBD09847F9E700000000BE
:4002800054270000EC000020C80000200000000008B5094A136801331360402B04D1131C01221A7100221A60022000F071FE012000F06EFE08BDC04604010020F0B54746C4
:4002C00080B4051C03780027002400229046002621E01A1C303A092A10D8002F05D1B20096197600303B9E1913E04246900040444000303B9846804401340AE02E2B07D0E0
:400300000A2B06D00D2B04D0114800F0A1FD00E0012701352B78002BDBD1404602F086F9051C05E0281C0B4901F078FD051C013C002CF7D1301C02F079F9291C01F0F2FBE7
:40034000041C054800F084FD201C04BC9046F0BD58270000000020417827000038B500290BD00C1C051C4910FFF7F8FFE30701D4404303E04543684300E0012038BDC046CD
:4003800038B5092804D83030087000234B708EE00D1C041E632C11D80A2101F0C7FA30316970201C0A2101F03BFA80B20A2101F0BDFA303129700023AB7078E03C4B9842C2
:4003C0001BD80A2101F0B2FA3031A970201C0A2101F026FA80B20A2101F0A8FA30316970201C642101F01CFA80B20A2101F09EFA303129700023EB7059E02E4B984226D876
:4004000000230B710A2101F091FA3031E970201C0A2101F005FA80B20A2101F087FA3031A970201C642101F0FBF980B20A2101F07DFA30316970201CFA21890001F0F0F9BD
:4004400080B20A2101F072FA303129702FE000234B710A2101F06AFA30312971201C0A2101F0DEF980B20A2101F060FA3031E970201C642101F0D4F980B20A2101F056FAB1
:400480003031A970201CFA21890001F0C9F980B20A2101F04BFA30316970201C064901F0BFF980B20A2101F041FA3031297038BDE70300000F27000010270000F0B583B087
:4004C000051C0C1C254B1E891B69042B3ADC081C00F070FB00283FD1214800F0B9FC201C00F058FB0378002B36D11E4800F0B0FC201C00F035FB051C1B4800F0A9FC68689B
:4005000000F0A6FC194800F0A3FC144C27696868FFF7D4FEFF00E71978612369DB00E3181E83301C6946FFF72BFF114800F090FC684600F08DFC0D4800F08AFC2369013334
:40054000236109E00B4800F083FC00222A71034B1A6101213C32995403B0F0BD040100209C270000B8270000D427000098270000EC2700000428000070B5051C0E1C02F0C7
:4005800035F8041C02F052F8011C281C01F0B0FE051C0A200221FFF7E1FE02F047F8291C01F074FD02F022F8051CA0B2311CFFF7E7FE00230DE0191CF2181478002C07D111
:4005C0002E2313700131A8B27118FFF7D9FE02E001333F2BEFDD70BDF0B5474680B43C4B1B8B834218D9012308E0DA0038498A18128B824206D3904206D00133042BF4DD64
:40060000002502E0002500E00125314A128F824207D80021002206E0002300250021012201E001210022002A4ED1041C00291FD0274B1E8EDF6A1D8F5B6B9846281A01F084
:40064000F5FF391C01F022FD071CA01B01F0EEFF414601F01BFD011C381C01F063FA041CA81B01F0E3FF011C201C01F0D7FB2CE0002D04D0DB00164AD318586925E05A1ED3
:400680001349D2008A18158B5669DB00CB181F8B5B699846381A01F0C9FF311C01F0F6FC061C601B01F0C2FF414601F0EFFC011C301C01F037FA041C781B01F0B7FF011C12
:4006C000201C01F0ABFB00E0002004BC9046F0BD0401002030B595B02A4B1C891B79002B4DD03C23274AD35C002B1BD0201CFFF773FF051C201C12A9FFF742FE224800F03E
:40070000A7FB12A800F0A4FB204800F0A1FB281C6946FFF731FF684600F09AFB1C4800F097FB29E0174B186C00F038FC80B210A9FFF726FE201C12A9FFF722FE124800F039
:4007400087FB00240DE0134800F082FB63000D4AD318188912A9FFF713FE12A800F078FB0134032CEFDD0C4800F072FB10A800F06FFB074800F06CFB0022024B1A7115B0A1
:4007800030BDC04604010020282800003428000098270000482800004C28000030B583B00190114C0020A36C9847019BDB00E3189B6C00209847052000F0E2FD00F02AFD3B
:4007C000022000F02DFD002000F050FD85B20120A36C9847019BDB00E3189B6C01209847281C03B030BDC04604010020F0B587B0071C002611E0651C281CFFF7CFFFA4004F
:4008000002ABE35801939C46604402ABE0502C1C00E00024032CEEDD0136BE42F9DB00240FE0A50002ABEB580193181C391C00F0F7FF6300054AD3181881002302AAAB50DD
:400840000134032CEDDD07B0F0BDC0460401002008B50420FFF7CAFF08BDC04610B50A4C201C00F0F5FA094800F0F2FA084800F0EFFA084800F0ECFA201C00F0E9FA064841
:4008800000F0E6FA10BDC0465C280000B4280000D0280000EC2800009827000070B5051C0023012004E00C5DA24200D0002001331C1CEA5C002A02D1CE5C002E01D00028BF
:4008C000F1D170BD70B5051C00F0ACFAC4B2134BDB6E622B20DC002C1ED0FF23184000F02BFA0E4AD36EEC540133D3660A2C01D00D2C11D10A4800F0ABFA084CE36EEB18E7
:4009000000261E70281C00F0A3FA064800F0A0FA01227023E254E66670BDC04604010020142900009827000070B5061C0D1C002409E0E00030180379002B03D0E3009B59D8
:40094000291C98470134022CF3DD70BD70B55A4CA5445A4800F0B0FA00F00AFB00F0CEF900F048FC192000F00BFD00F09BFC00F051FC082000F054FC012000F077FC504CA6
:40098000206462B609A800F0C3F807AB002018714C4A07924C4969440A1C22CB22C205AB18714A49059122CB22C203AB01211971474A0392474A6A4460CB60C26064464BE8
:4009C000A364E164454B236502236365444BA3650323E365434B236604236366424BA366013000F0F9FE012000F0DEFE012000F0E7FEFFF733FF3D486844FFF763FF7023C5
:400A00002F4AD35C002B4ED0394800F021FA394800F01EFA354B6B44181C00F019FA364800F016FA314B6B44181C3449FFF736FF002810D0244B6B441B79002B0BD130488C
:400A400000F006FA0122204B6B441A7100213C231B4AD15423E0254868442A49FFF71EFF002809D0284800F0F3F9174A6A44117B01234B40137312E0134B6B441B79002B37
:400A80000DD001AC00232370184B6B4402931F4800F0DEF909A80199626800F03FF800217023074AD1540848684409A9FFF73CFF00F064FD9FE7C04658F7FFFF910200001F
:400AC00004010020BD0400002C080000D5060000510800003C080000D9170000A9170000C1170000F117000009180000440800002C2900003C29000098270000482900007D
:400B00004C2900006C290000702900008C29000000230380438083807047C04670B582B000910192828880235B009A4203D10B4800F08EF90FE04488631CDB006946C31898
:400B400060C960C301328280FF2C02D80134448001E00023438002B070BDC046A829000008B5031C8288002A04D1094800F070F900200CE00188481CC0001818013A9A80AC
:400B8000FF2902D80131198001E000221A8008BDB429000008B58388002B04D1044800F057F9002003E003880133DB00C01808BDB4290000808843425841C0B27047C04669
:400BC000FEE7C04670B50F4E0F4D13E029686B68AC68002202E001C901C30432A242FAD1E868002202E0002102C304328242FAD11035013E002EE9D101F07EFDFFF7A6FED9
:400C0000FEE7C04601000000EC2A000008B50F4A136801218B43136000230AE0032B03D89A000B49505800E00A4899000A4A885001332F2BF2D9FFF785FA0022074B1A605F
:400C4000024A116801230B43136008BD0000104000000000C10B000000000020C000002008B50A1C002101F06DFD08BD064B1B68002803D080221206134301E05B005B0847
:400C8000014A13607047C04680033A4008B50323094A1360094A136080221206084B1A60084B094A1360094A13600022084B1A600120FFF7DBFF08BD300030403000314001
:400CC00000003A408000030000033A4040033A40000E3F4008B500F08FF808BD08B500F039F808BD08B5044A1368802109060B431360FFF7EFFF08BD0000244008B5064B82
:400D00001B78002B04D1FFF7E9FF0122024B1A70FFF7E8FF08BDC04678010020014B18687047C04640032440024B1B681F2018407047C04608032440044B1B681F221340DE
:400D4000082BF9D0024B18607047C046080224404002244010B5154A154B1A600023154A13600121144A1160144A15480260072414480460144803601448016014490A60B2
:400D8000144A13600421144A1160144A1360144A1360144A1360144A1360144A1360144A13601268134B1A8010BDC0460B00000200002440400024404800244007000080FB
:400DC00000032440040324401003244044002440000224400402244050002440880E2440C80E2440480F2440080F2440C80F2440880F24407A010020064A1168064B0B40DE
:400E0000902109040B431360044B1A88044B1A607047C04600010240FFFF0FFF7A010020880F244008B5FFF77FFF002802D0FFF775FF00E00020054B1A68D8239B001A427E
:400E400003D01A1C014B1A60002008BDC00F244038B5051C002402E0FFF76EFF0134285D0028F9D138BDC0468423014AD05070470000002010B5041C00F02FFA044A1168BF
:400E8000044B0B40A4031C43146000F02AFA10BD10E400E0FF3FFFFF80229202014B1A607047C04600E100E080229202014B1A607047C04680E100E010B5041CFFF7F4FFEB
:400EC000201CFFF7D1FF0320FFF7D4FFFFF7E4FF10BDC0460004000C014B18607047C046080120400004000C014B18607047C0461401204038B5041C0D1C00F0EEF9AC405F
:400F0000024B1C6000F0EDF938BDC0460800204008B500F0E2F9064A116801230B43136000F0DFF901201821FFF7E4FF08BDC04600002040014B18607047C0463801204039
:400F400008B580229204084B1A608E225200074B1A600120FFF7EEFFFA208000FFF7C2FF0020FFF7B7FF08BD000120402401204008B5064B1B78002B04D1FFF7E1FF01227B
:400F8000024B1A70FFF7C4FF08BDC0467C010020014B18607047C0463001204010B5164B1A8812B2154B19880CB2604392028418134B9C420BDDC823DB031B1BD817000FE8
:400FC000C0180011C000552100F0BAFC0AE0A0239B03E318D817000FC0180011C000372100F0AEFC23188022120294466344D817000CC018001410BD66F2FF0F64F2FF0F5D
:40100000FFFF0E0010B50F20032100F093F90F204F4900F07DF901224E4B1A604E4B1B68002B01DA4D4900E04D494E4A13680B4313604D4A4D4B1A604D4A4E4B1A60002335
:401040004D4A13604D4A4E490A604E490A604E4A116880204002014311604C490A6802430A604B4A13604B4A136011224A4B1A604A4A11684A4B0B40802189050B43136040
:40108000002462E0474AA3009958DC239B010B401219127A1343002C1CD1A2004248844662441360CB0707D5394A116880235B02A3401B0C0B431360A3003A4A9B589B0759
:4010C00021D5344A116880235B02A3401B0C0B43136018E08022D2051343344A1360A300304A9B58DB0704D52B4A116820230B431360A3002B4A9B589B0704D5264A116854
:4011000040230B431360A300264A9B589A0502D58020400001E080204001DB0504D463000021234A995203E063000021204A9952204B5843204B9C466044204900F000FCD1
:4011400000B2A2001E4BD0500134012C9AD910BDB912000020003A4080033A40702010137020001300003A40AC000A8004003A400000FF0718003A401C003A4004000400D4
:4011800010003A4014003A4000033A4040033A4028023A4038023A4018023A4030003A40FEFFFFDFCC29000080003A4080023A40B001002010270000E40C0000C8190000A8
:4011C000A801002008B5094B1B68002B0CDB084B1B68002BFBDB054A1368802109060B4313600A2000F0E4F808BDC04600003A4008023A4008B5064B1B78002B04D1FFF718
:4012000001FF0122024B1A70FFF7DCFF08BDC0467D0100200122014B1A60704724003A40011C83070CD0104B1B680120184001D18B07F8D4002804D001220B4B1A6000E063
:4012400000200C230B420DD0074B1A6810231A401043034001D10A07F6D4002B02D01022014B1A607047C04610023A4010B5041E012C02D9002000F049F8002C07D1A4002B
:40128000064B9C46644420680004000C03E0044B18680004000C00B210BDC04680013A4090023A40034A1368802109060B4313607047C04680023A40014B1A681A6070477C
:4012C00010023A40000000000230800803D00138FDD1C046C046C0467047EFF3108072B6704780F310887047024B1B68012018407047C0460C002E401F2318401E3B8340BC
:40130000181C014B1860704700E100E001BE704738B5041C0D1C1F2802D90020FFF7F6FFA400034B9C4664442068256038BDC0464000002070B5041C0E1E032E02D90020E3
:40134000FFF7E4FF1F2C02D90020FFF7DFFF03252540ED000635FFF7C0FFA408A400074B9C46644423680322AA409343AE40351C1D432560FFF7B5FF70BDC04600E400E0AF
:4013800010B5041C06E0084B1868FFF79DFF074B9C46644480231B029C42F4D8024B58686043FFF791FF10BDCC0000200080FFFF08B5034B1B7A5843FFF786FF08BDC046C9
:4013C000CC000020F0B557464E46C0B483B0041CFFF783FF0190E71E2D2F74D83F4B1B78DBB2A34208D33E4B1B78DBB29A463D4B1B78DBB2994631E03B4B1B78DBB2A34298
:4014000008D33A4B1B78DBB29A46394B1B78DBB2994623E0374B1B78DBB2A34208D3364B1B78DBB29A46354B1B78DBB2994615E0334B1B78DBB2A34208D3324B1B78DBB274
:401440009A46314B1B78DBB2994607E02F4B1B78DBB29A462E4B1B78DBB299462D4BDE5D2F2E09D92A2C07D919222B4B1A600520FFF72AFF192503E0274B1D683F231D40CA
:40148000AE4206D2234BDA5D234B1A600520FFF71BFF1F4B9C4664442378DBB21F4A13601F4B52461A601F4B4A461A600520FFF77FFFAE420AD9174BDA5D174B1A600520B4
:4014C000FFF702FF02E00020FFF720FF0198FFF708FF03B00CBC91469A46F0BD40F3FF0F41F3FF0F42F3FF0F43F3FF0F44F3FF0F45F3FF0F46F3FF0F47F3FF0F48F3FF0FFC
:4015000049F3FF0F4AF3FF0F4BF3FF0F4CF3FF0F4DF3FF0FD82900002CFF0B4028FF0B401CFF0B4020FF0B4010B5041C0F4A116801230B4313600E4A0E4B1A600E4A1368DC
:40154000802109020B431360002809D100200CE00120FFF72DFFFFF7C7FE002804D1013C002CF5D1102000E0002010BD60F02E400220000078002E4010002E4008B5FFF7D2
:40158000ACFE044A136804218B43136030BFFFF7A8FE08BD10ED00E0034B1868C0231B02184000D00120704700010B4010B50D4B1A6801218A431A601A68022082431A6020
:4015C000094A10683024A043203C204310601068093CA043014311601A68802109060A431A6010BD00F02E4000FF2E4038B51D4B1B6801241C40002802D0012816D02BE067
:40160000184B19680122914319601968022081431960154B19682E3081432038014319601968093881430A431A6018E00D4B1A6802218A431A600C4A10680725A8430143AC
:401640001160116830208143103801431160196801220A431A6002E00020FFF757FE201C38BDC04600F02E4000FF2E4008B5FFF734FE044A1368C02109020B431360FFF764
:4016800030FE08BD00010B4010B5FFF726FE08490A68084B1A408024E40122430A600A6813408022120213430B60FFF71AFE10BD00010B40FF3FFFFF70B5061CFFF70DFE5D
:4016C000041CFFF769FF002803D0FFF7DDFF012500E000250848331C0340084A106808490840184310601368012D01D1FFF7BEFF201CFFF7F6FD70BD0404040010020B407B
:40170000FBFBFBFF10B5244B1B685B0715D5234B5B685B070ED5224B596A042001401F4C62688A4362605A6A82435A629B69002B00D098470420FFF7BFFF174B1B685B05A7
:4017400018D5164B5B685B0510D5154B596A8022D2001140114842688A434260596A114A0A405A62DB69002B00D098478020C000FFF7A2FF084B1B685B030CD5074B5B6856
:401780005B0304D5064B1B6A002B00D098478020C002FFF791FF10BD10020B40DC00002080010020FFFBFFFF04490A68FB231A408000F73B184010430860704700000440A4
:4017C00004490A68F7231A40C000EF3B18401043086070470000044004490A68EF231A400001DF3B18401043086070470000044004490A68DF231A404001BF3B1840104369
:401800000860704700000440031C04490868FE2202400120184010430860704700010440002243088B4274D303098B425FD3030A8B4244D3030B8B4228D3030C8B420DD3C8
:40184000FF22090212BA030C8B4202D31212090265D0030B8B4219D300E0090AC30B8B4201D3CB03C01A5241830B8B4201D38B03C01A5241430B8B4201D34B03C01A524123
:40188000030B8B4201D30B03C01A5241C30A8B4201D3CB02C01A5241830A8B4201D38B02C01A5241430A8B4201D34B02C01A5241030A8B4201D30B02C01A5241CDD2C309F3
:4018C0008B4201D3CB01C01A524183098B4201D38B01C01A524143098B4201D34B01C01A524103098B4201D30B01C01A5241C3088B4201D3CB00C01A524183088B4201D34C
:401900008B00C01A524143088B4201D34B00C01A5241411A00D20146524110467047FFE701B5002000F0FCF802BDC0460029F7D003B5FFF775FF0EBC4243891A1847C04629
:4019400003460B437FD4002243088B4274D303098B425FD3030A8B4244D3030B8B4228D3030C8B420DD3FF22090212BA030C8B4202D31212090265D0030B8B4219D300E0BA
:40198000090AC30B8B4201D3CB03C01A5241830B8B4201D38B03C01A5241430B8B4201D34B03C01A5241030B8B4201D30B03C01A5241C30A8B4201D3CB02C01A5241830A37
:4019C0008B4201D38B02C01A5241430A8B4201D34B02C01A5241030A8B4201D30B02C01A5241CDD2C3098B4201D3CB01C01A524183098B4201D38B01C01A524143098B42F8
:401A000001D34B01C01A524103098B4201D30B01C01A5241C3088B4201D3CB00C01A524183088B4201D38B00C01A524143088B4201D34B00C01A5241411A00D20146524180
:401A4000104670475DE0CA0F00D04942031000D34042534000229C4603098B422DD3030A8B4212D3FC22890112BA030A8B420CD3890192118B4208D3890192118B4204D37E
:401A800089013AD0921100E08909C3098B4201D3CB01C01A524183098B4201D38B01C01A524143098B4201D34B01C01A524103098B4201D30B01C01A5241C3088B4201D379
:401AC000CB00C01A524183088B4201D38B00C01A5241D9D243088B4201D34B00C01A5241411A00D20146634652415B10104601D34042002B00D54942704763465B1000D34B
:401B0000404201B5002000F00BF802BD0029F8D003B5FFF715FF0EBC4243891A1847C0467047C046F8B54A00430244004E02C50F240E281C9B09120EC90FB7098D4240D07F
:401B4000A01A002800DC84E0002A1CD1002F5CD15A0704D00F221A40042A00D004338022D2041A40281C002A24D00134FF2C00D17BE09B015B0AE4B25B02E4055B0A234373
:401B8000C0071843F8BDFF2CE2D08022D204174301261B2808DC391C20223E1CC140101A8640771EBE410E439B1B5A0133D4281C5A07CFD1DB08FF2C1ED05B025B0AE4B2D9
:401BC000DAE7A11A002957DD002A3AD0FF2CBFD08022D204174301261B2972DD9B195A01E5D50134FF2C00D187E001218A4A194013405B080B43ABE7002B36D08022D203A4
:401C000013435B025B0AFF24B6E7013800283FD1DB1B5A01CBD59B019E09301C00F04EFD05388640844223DC001B1F24321C431C201ADA408640131C741EA6410024334371
:401C400086E7002F00D183E70139002950D1DB19C5E7002820D1621CD2B2012A5EDDDE1B720128D5FE1A0D1CD7E7FF24002383E7694B241A33406BE7002958D1621CD1B2C6
:401C800001293CDDFF2A37D0FB185B08141C5FE7FF2C00D07CE75BE7002C1ED0FF2A23D08024E404404223431B285BDD0123FB1A141C0D1CADE7002EAFD1002300200024C5
:401CC00078E73A1CCA40944620223E1C511A8E406246771EBE41164380E7002B3ED0C0430028E4D0FF2ADFD13B1CFF240D1C2FE7FF2C00D06FE72BE7FF2400235AE7002CBA
:401D00005AD1002B7FD0002F00D121E7DB195A0100D44CE7404A0134134019E7002C15D1002B2FD1002F5DD03B1C0D1C10E7002C21D1002B53D0C943002904D0FF2A4BD0C5
:401D40001B2957DD0123DB19141C48E7002B22D1002F4AD03B1C0D1CFF24F9E63B1C141C0D1CF5E61D1C2024C540201A8340581E83412B439BE7FF2A2ED08024E404494219
:401D80002343DDE7002F00D1E2E6DA1B50013CD5FB1A0D1CDCE6FF24002F00D1D8E68022DB08D203134204D0FE08164201D1331C0D1CDB00FF24CBE6002B0DD0FF24002FC5
:401DC00000D1C5E68022DB08D2031342F1D0FE081642EED1331CECE73B1CFF24B8E63B1C141CB5E6231C0020E4E6802300209B04FF24DFE61E1C2024CE40611A8B40591EC2
:401E00008B4133439FE73B1CA2E6131E00D0CEE600230020CEE6C046FFFFFFFBF0B556464D465F464446F0B443024500C70F83B08A465C0A2E0EB94641D0FF2E26D08023CF
:401E40001B042343DC00002398469B467F3E53465B025D0A53465A00DB0F120E9A4639D0FF2A33D080231B042B43DD0000237F3A5146B21A46467940081C01921E430F2E0D
:401E800000D976E07E4AB6009659B746002C30D108239846063B9B46D9E780230021DB03FF245B02E4055B0AC90723430B43181C03B03CBC90469946A246AB46F0BD002C37
:401EC00028D104239846033B9B46C0E7002D1FD1022302E0002D11D10123B21A50464646784001921E430F2E27D86649B60089598F460C239846093B9B46A8E7281C00F0E0
:401F0000DDFB7622431F52429D40121A0023AFE70323ADE7201C00F0D1FB431F9C4076235B421E1A002398469B4690E70025D1469B465B464846022B6FD10121FF24014083
:401F40000023AEE77E23019A5B429B1A1B2B6DDD01214B46194000240023A2E78023DB031C4249D18023DB0323435B025B0A391C96E763016D01AB4237D389461A20012147
:401F80005B1B01241E1C49005B00002E01DBAB4201D35B1B214301380028F3D1581E83410B431D1C019C7F34002CCBDD6B0704D00F232B40042B00D004352B0104D5019A3E
:401FC000314B8032141C1D40FE2C07DD4B460121FF241940002364E7251CAAE701214A46AB015B0AE4B211405BE7019A8946013A01921B200021C4E71D4207D023435B0285
:402000005B0A391C4CE700256302ABD58023DB032B435B025B0A514642E7032B25D0012BC0D101210024014000233AE7291CD9402B1C019A9E3293405D1EAB410B435A0794
:4020400004D00F221A40042A00D004335A0105D54B46012101241940002322E701214A469B015B0A114000241BE7802301214A46DB032B435B020A405B0A111C10E7C04639
:40208000082A0000482A0000FFFFFFF7F0B55F4656464D464446F0B445024600C40F83B00F1C6D0A360EA34645D0FF2E25D080231B041D4300239A46ED007F3E01937B0268
:4020C0005B0A98467800FB0F000E994640D0FF2838D0802342461B041343DB00984600237F384A46019F30186240411C1F430F2F69D87D4EBF00F659B746002D45D1082320
:402100000193063B9A46DAE793465346022B2FD15B46012400251C40FF236D02DB056D0AE4071D432543281C03B03CBC90469946A246AB46F0BD002D2CD104230193033B5B
:402140009A46BCE743465A4253410322D31AC8E742460123002AC4D0404600F0AFFA4246431F9A4076235B42181A90460023B8E7032B00D1ADE0012B00D08CE05B465446E6
:402180001C40E4B200230025C7E70C230193093B9A4694E7281C00F091FA7626431F9D4000237642361A01939A4688E780250024ED03FF23B1E74546CB469A46A5E7454627
:4021C00093469A46A1E743462C041B0C9C46230C444626041C1C360C2F0C7443351C66467D4373437743EB18260C9E19B54203D980235B029C46674424043304240C1B1951
:402200009D016C1EA5419B0E360C2B43BD19AD011D432B0104D5012368081D400543081C031C7F33002B2CDD690704D00F212940042900D00435290103D52C4B1D40031CE4
:402240008033FE2B17DD0124FF231440002564E78020C003054209D04346034206D1454605436D026D0A4C46FF2356E705436D026D0AFF2351E70124AD016D0ADBB21440FE
:402280004BE77E235B421B1A1B2B07DD012400231440002541E7081C5A46C1E79E30291C8540D940681E85410D436B0704D00F232B40042B00D004356B0104D501240123C4
:4022C0001440002529E70124AD016D0A1440002323E78023DB031D4301245B466D0223401C1C6D0AFF2318E7882A0000FFFFFFF7F8B54A00430244004D02C00F240E061CA9
:402300009B09120EC90FAD09FF2A00D175E001277940884250D0A01A002800DC8FE0002A1ED1002D00D075E05A0704D00F221A40042A00D0043380220120D2041A40304041
:40234000002A32D00134FF2C00D184E09B015B0AE4B25B02E4055B0A2343C0071843F8BDFF2CE1D08022D20415431B287ADD01255B1B5A015DD59B019F09381C00F09EF98F
:4023800005388740844269DC001B1F243A1C431C201ADA408740131C7C1EA74100243B43C2E7131E45D100230020DB08FF2C28D05B025B0AE4B2CCE7A11A00295BDD002A03
:4023C0002ED0FF2CB0D08022D20415431B2974DC2F1C2022CF40511A8D40691E8D413D435B195A0125D50134FF2C74D001217E4A194013405B080B4396E7002D00D088E78A
:4024000085E7002B27D08022D20313435B025B0AFF249EE701380028AAD0FF2CA5D183E7002D00D180E701390029D9D0FF2CCDD17AE75A0700D079E701203040B5E7002870
:4024400025D1621CD2B2012A55DD5F1B7A012DD5EF1A0E1C91E7FF2400237AE7624B241A3B4061E7291C2022C140101A8540681E85410D437CE7002946D1621CD1B201292F
:402480002BDDFF2A26D0EB185B08141C4CE7002C15D0FF2A1AD08024E404404223431B284DDD0123EB1A141C0E1C62E7002F00D063E700230020002477E7012590E7002B85
:4024C00039D0C0430028EDD0FF2AE8D12B1CFF240E1C29E7FF24002367E7002C5AD1002B7FD0002D00D11FE75B195A01A1D53E4A0134134018E7002C15D1002B2FD1002D3E
:402500005ED02B1C0E1C0FE7002C21D1002B54D0C943002904D0FF2A4CD01B2958DD01235B19141C5DE7002B23D1002D4BD02B1C0E1CFF24F8E62B1C141C0E1CF4E61E1C38
:402540002024C640201A8340581E83413343A9E7FF2A2FD08024E40449422343DDE7002D00D1E1E65A1B500100D41AE7EB1A0E1CDAE6FF24002D00D1D6E68022DB08D203E5
:40258000134204D0ED08154201D12B1C0E1CDB00FF24C9E6002B0DD0FF24002D00D1C3E68022DB08D2031342F1D0ED081542EED12B1CECE72B1CFF24B6E62B1C141CB3E639
:4025C000231C0020F1E6802300209B04FF24ECE61F1C2024CF40611A8B40591E8B413B439EE72B1CA0E6C046FFFFFFFB4202510A4200C30F120E00207E2A0DDD9D2A0CDC35
:40260000802000040143952A0ADC9620821AD1400A1C58424240D0187047034A9818FBE7963A91400A1CF4E7FFFFFF7F70B5041E39D0C50F00D04442201C00F03FF89E232E
:40264000261C1B1A962B07DC082801DD083884406402640AD8B21EE0992B0ADD0522211C121AD1400A1C011C1B318E40711E8E411643052801DD421F96400F4C34407207E7
:4026800004D00F221640042E00D0043462010ED4A401640AD8B26402C005640AED0704432C43201C70BD002500200024F3E7024B1C409F231B1AEBE7FFFFFFFB1C210123E9
:4026C0001B04984201D3000C10391B0A984201D3000A08391B09984201D30009043902A2105C40187047C046040302020101010100000000000000000E4B70B500251E1C71
:402700000D4CE41AA410A54204D0AB00F35898470135F8E700F0D8F9084B00251E1C084CE41AA410A54204D0AB00F35898470135F8E770BDD42A0000D42A0000D42A0000A4
:40274000DC2A0000031C8218934202D019700133FAE77047000000005741524E494E473A20556E7265636F676E697A656420636861720D0A0000000044454255473A206645
:402780006C6F617420636F6E76657273696F6E20636F6D706C6574650D0A000044454255473A204D6573736167652052656365697665640D0A00000044454255473A20448A
:4027C00065717565696E67204D6573736167650D0A00000044454255473A204D6573736167652052656164733A200000494E464F3A204D6573736167652052656164733A6C
:402800002000000044454255473A2045786974696E672063616C6962726174696F6E207461736B0D0A0000004144432056616C75653A20000943616C63756C6174656420F3
:40284000466F7263653A2000090000000954656D70657261747572653A2000000D0A2A2A2A2A2A2A2A2A2A2A2A2A2A2A2A2A2A2A2A2A2A2A2A2A2A2A2A2A2A2A2A2A2A2A6A
:402880002A2A2A2A2A2A2A2A2A2A2A2A2A2A2A2A2A2A2A2A2A2A2A2A2A2A2A2A2A2A2A2A2A2A2A2A2A2A2A2A2A2A2A2A2A2A2A2A2A0D0A002D2D2D466F7263652053656E3B
:4028C000736F7220546573742D2D2D0D0A00000050726573732027632720746F2063616C6962726174650D0A0000000050726573732027722720746F20746F67676C6520B5
:40290000636F6E74696E756F757320726561640D0A00000044454255473A20496E7075742041636365707465640D0A00496E7075742052656164790D0A000000496E707574
:40294000742069733A200000630D000041637469766174696E672043616C6962726174696F6E207461736B0D0A000000720D0000546F67676C696E672052656164204144A6
:4029800043207461736B0D0A0000000044454255473A20456E717565696E67206D6573736167650D0A00000051756575652046554C4C0000517565756520456D7074790045
:4029C00000300F40000400400F400004000400000004000007700000030405060708090A0B0C0E0F101112131415161718191B1C1D1E1F2021222325262728292A2B2E2F81
:402A00003031323334350000721F00003A1F0000561F00002E1F0000561F00009A1E0000561F00002E1F00003A1F00003A1F00009A1E00002E1F0000D81F0000D81F000027
:402A4000D81F00005C1F00003A1F00003A1F0000222000002C1F0000222000009A1E0000222000002C1F00003A1F00003A1F00009A1E00002C1F0000D81F0000D81F00007B
:402A8000D81F000006200000C6210000BE210000BE210000B62100000821000008210000AC210000B621000008210000AC21000008210000B62100000A2100000A2100003B
:402AC0000A21000050220000F8B5C046F8BC08BC9E467047590200000D0C0000F8B5C046F8BC08BC9E46704731020000002B0000C800002020000000D00000000000000003
:402B0000000000000000C05D80BB000030000000006CDC02F000000004040400000000000000000000000000000000000000000000000000000000000000000000000000C7
:402B40000000000000000000000000000000000000000000000000000000000000000000000000000000000000000000000000000000000000000000000000000000000055
:402B80000000000000000000000000000000000000000000000000000000000000000000000000000000000000000000000000000000000000000000000000000000000015
:402BC00000000000000000000000000000000000000000000000000000000000000000000000000000000000000000000000000000000000000000000000000000000000D5
:402C00000000000000000000000000000000000000000000000000000000000000000000000000000000000000000000000000000000000000000000000000000000000094
:020000040003F7
:0200000490303A
:0200000013A249
:0200000490402A
:4000000000000000000000000000000000000000000000000000000000000000000000000000000000000000000000000000000000000000000000000000000000000000C0
:400040000000000000000000000000000000000000000000000000000000000000000000000000000000000000000000000000000000000000000000000000000000000080
:0200000490501A
:0C00000000021A1711AA00011A25254C55
:0200000490600A
:0100000001FE
:00000001FF