:400000000080002011000000F10C0000F10C000008B500F06FFEC04638B512222E4B1A6001F0E8FD2D4801F073FC012001F002FE302001F0EBFC2A4A2A4B1A602A4C80257E
:40004000ED052560294A116802230B431360284A284B1A60284A136808218B431360FA20C00001F085FD254801F0C6FCBE22D201234B1A60234B244A1A60BC218901234A4F
:400080001160234A1A60E8214901224A1160224A1A6088218901214A1160214A1A6082221206204B1A608022D2021F4B1A6043221E4B1A60013A1E4B1A60023A1D4B1A605F
:4000C00001321D4B1A6008201C4901F045FC082001F036FC256038BD30001040001BB7000600008004010B400C020B4078002E402D3E00007C002E406CF02E40DC05000000
:400100000C0301400000014043FF00800803014042FF00800003014040FF00800403014041FF008008010B4000010B401C0101401801014008010140040101404D1D000002
:4001400010B572B60022264B1A60002410E0254863001A195200821891881B195B001A5AC31858880004104300F012FE0134E4B2012CECD91C4A1D4B1A6099231B041C4A0E
:4001800013601C4A13601C4A13601C4A13601C4B197802220A431A701A4802783C218A4328390A430270197816220A431A700322154B1A60154A164B1A602023154A13603A
:4001C0001549164A1160164A13606033154A1360154A1360FFF720FF00F0F0FD10BDC0466CF02E40C8590100EE0000EE000002400001024000500F4010500F4030500F4097
:4002000000700F4001700F40000004402449DA000800044000010440241913000801044018010440000304401803044010B5064C2378002B07D1054B002B02D0044800E055
:4002400000BF0123237010BD68120020000000003857010008B5084B002B03D00748084900E000BF07480368002B00D108BD064B002BFBD09847F9E70000000038570100B3
:400280006C120020480E00200000000008B501F02DFB01F0E3FA082001F0E6FA012001F009FB074B5843C3179B0D18188012054A13685900CB1818188008106008BDC0464D
:4002C000E40C00008412002008B5022001F084F9012001F081F908BD08B528280CD004D8012809D026280BD02BE0422814D04C2819D0412825D10BE0002000F0C7FE20E0F5
:40030000104B1B78042B1CD1002000F0BFFE18E001220D4B1A7114E000220B4B1A71002000F0B4FE0DE08B89132B03D14B681A78064B1A70064A13785078000218430FF0FD
:400340004FFE08BD7A240020841200204C0E002080240020F0B5474680B4051C03780027002400229046002621E01A1C303A092A10D8002F05D1B20096197600303B9E1994
:4003800013E04246900040444000303B9846804401340AE02E2B07D00A2B06D00D2B04D0114800F0EDFD00E0012701352B78002BDBD1404602F0A4FD051C05E0281C0B4959
:4003C00002F096F9051C013C002CF7D1301C02F097FD291C02F010F8041C054800F0D0FD201C04BC9046F0BD3C570100000020415C57010038B500290BD00C1C051C491034
:40040000FFF7F8FFE30701D4404303E04543684300E0012038BDC04638B5092804D83030087000234B708EE00D1C041E632C11D80A2101F0E5FE30316970201C0A2101F009
:4004400059FE80B20A2101F0DBFE303129700023AB7078E03C4B98421BD80A2101F0D0FE3031A970201C0A2101F044FE80B20A2101F0C6FE30316970201C642101F03AFEE6
:4004800080B20A2101F0BCFE303129700023EB7059E02E4B984226D800230B710A2101F0AFFE3031E970201C0A2101F023FE80B20A2101F0A5FE3031A970201C642101F07A
:4004C00019FE80B20A2101F09BFE30316970201CFA21890001F00EFE80B20A2101F090FE303129702FE000234B710A2101F088FE30312971201C0A2101F0FCFD80B20A21D8
:4005000001F07EFE3031E970201C642101F0F2FD80B20A2101F074FE3031A970201CFA21890001F0E7FD80B20A2101F069FE30316970201C064901F0DDFD80B20A2101F071
:400540005FFE3031297038BDE70300000F27000010270000F0B583B0051C0C1C254B1E89DB69042B3ADC081C00F0BCFB00283FD1214800F005FD201C00F0A4FB0378002B48
:4005800036D11E4800F0FCFC201C00F081FB051C1B4800F0F5FC686800F0F2FC194800F0EFFC144CE7696868FFF7D4FEFF00E7193862E369DB00E3189E84301C6946FFF7D9
:4005C0002BFF114800F0DCFC684600F0D9FC0D4800F0D6FCE3690133E36109E00B4800F0CFFC00222A71034BDA6101214832995403B0F0BD84120020805701009C570100BA
:40060000B85701007C570100D0570100E857010070B5051C0E1C02F053FC041C02F070FC011C281C02F0CEFA051C0A200221FFF7E1FE02F065FC291C02F092F902F040FC9E
:40064000051CA0B2311CFFF7E7FE00230DE0191CF2181478002C07D12E2313700131A8B27118FFF7D9FE02E001333F2BEFDD70BDF0B5474680B43D4B9B8C834219D90123E1
:4006800008E0DA0039498A18928C824206D3904206D00133042BF4DD002502E0002500E00125442231498A5A824207D80021002206E0002300250021012201E0012100224A
:4006C000002A4FD1041C002920D0284B9E8F9F6B44329D5A1B6C9846281A02F011FC391C02F03EF9071CA01B02F00AFC414602F037F9011C381C01F07FFE041CA81B02F009
:40070000FFFB011C201C01F0F3FF2CE0002D04D0DB00164AD318186A25E05A1E1349D2008A18958C166ADB00CB189F8C1B6A9846381A02F0E5FB311C02F012F9061C601B89
:4007400002F0DEFB414602F00BF9011C301C01F053FE041C781B02F0D3FB011C201C01F0C7FF00E0002004BC9046F0BD8412002030B595B0264B1C8948229B5C002B1BD053
:40078000201CFFF775FF051C201C12A9FFF744FE204800F0F5FB12A800F0F2FB1E4800F0EFFB281C6946FFF733FF684600F0E8FB1A4800F0E5FB29E0154B186800F012FF6C
:4007C00080B210A9FFF728FE201C12A9FFF724FE104800F0D5FB00240DE0114800F0D0FB63000B4AD318188912A9FFF715FE12A800F0C6FB0134072CEFDD0A4800F0C0FB02
:4008000010A800F0BDFB054800F0BAFB15B030BD841200200C580100185801007C5701002C5801003058010030B583B00190019B0B4DDB00EB181B6D0020984701F00EF84D
:40084000022001F011F8002001F034F884B2019BDB00EB181B6D01209847201C03B030BD8412002010B50A4C201C00F089FB094800F086FB084800F083FB084800F080FB4F
:40088000201C00F07DFB064800F07AFB10BDC0464058010098580100B4580100D05801007C57010070B5051C0023012004E00C5DA24200D0002001331C1CEA5C002A02D120
:4008C000CE5C002E01D00028F1D170BD70B5051C00F040FBC4B2124B5B69622B1FDC002C1DD0FF23184000F0BFFA0D4A5369EC54013353610A2C01D00D2C10D1094800F04F
:400900003FFB074C6369EB1800261E70281C00F037FB054800F034FB01232376666170BD04130020F85801007C570100F8B5061C0F1C00241AE0E50075192B79002B14D08A
:40094000AA79002A0DD1697900290AD0FA20400001F060FCE300A8719B59281C391C984703E0E300013AF3189A710134032CE2DDF8BDC046F0B5714CA544714800F02AFB4A
:40098000704800F0BDFD00F017FE00F04FFA00F055FF192001F018F800F0A8FF00F05EFF082000F061FF012000F084FF664B5843C3179B0D18188012644C206062B60BA89E
:4009C00000F03EF909AA00231371614909914021517193715F486844011C21CA21C107AA13715D48079002255571937141CA41C105AA01201071594905910A2151719371E5
:400A000057496944C0CAC0C103AA1371554903915071937154496944C0CAC0C1E364534B23656065524BA365E565524B236603236366514BA3660423E366504B2367052349
:400A400063674F4BA3670623E3674E4A7A33E25007220433E2504C4A0433E25008220433E2504A4A0433E25001F0DAF9012001F0BFF9012001F0C8F9FFF7F4FE444868447C
:400A8000FFF724FF434B1B7E002B4DD0424800F077FA424800F074FA3D4B6B44181C00F06FFA3F4800F06CFA394B6B44181C3D49FFF7F8FE002810D0264B6B441B79002B7A
:400AC0000BD1394800F05CFA0122224B6B441A71002148231D4AD15423E02D4868443349FFF7E0FE002809D0314800F049FA194A6A44117B01234B40137312E0154B6B447D
:400B00001B79002B0DD001AC00232370204B6B440293284800F034FA0BA80199626800F095F800221B4B1A760A4868440BA9FFF7FDFE02F0C7FA01F045F89FE744F7FFFF8A
:400B4000D9020000C9020000E40C000084120020550500003408000071070000E10B0000440800008D0200004C080000211E0000F11D0000091E0000391E0000511E0000C6
:400B8000691E0000811E0000991E0000B11E0000540800000413002010590100205901007C5701002C5901003059010050590100545901007059010000B585B001A9102345
:400BC0000B81019004338B80044A13785078000218430FF0AFF905B000BDC0468024002038B5051C134B1B6D00209847002403E00134201CFFF718FE072CF9DD0D4C0120BB
:400C0000236D98472379002B03D00A480830FFF7D3FF094B1B786A799A4209D0064B1B78002B05D0044B1B786B71044800F0A8F938BDC046841200204C0E00208C5901004A
:400C400000230380438083807047C04670B582B000910192828880235B009A4203D10B4800F08EF90FE04488631CDB006946C31860C960C301328280FF2C02D80134448030
:400C800001E00023438002B070BDC046B059010008B5031C8288002A04D1094800F070F900200CE00188481CC0001818013A9A80FF2902D80131198001E000221A8008BD82
:400CC000BC59010008B58388002B04D1044800F057F9002003E003880133DB00C01808BDBC590100808843425841C0B27047C046FEE7C04670B50F4E0F4D13E029686B68C5
:400D0000AC68002202E001C901C30432A242FAD1E868002202E0002102C304328242FAD11035013E002EE9D102F050F9FFF722FEFEE7C04601000000D45C010008B50F4A39
:400D4000136801218B43136000230AE0032B03D89A000B49505800E00A4899000A4A885001332F2BF2D9FFF7EBF90022074B1A60024A116801230B43136008BD0000104012
:400D800000000000F10C000000000020C000002008B50A1C002102F057F908BD064B1B68002803D080221206134301E05B005B08014A13607047C04680033A4008B5032352
:400DC000094A1360094A136080221206084B1A60084B094A1360094A13600022084B1A600120FFF7DBFF08BD300030403000314000003A408000030000033A4040033A40E4
:400E0000000E3F4008B500F08FF808BD08B500F039F808BD08B5044A1368802109060B431360FFF7EFFF08BD0000244008B5064B1B78002B04D1FFF7E9FF0122024B1A700C
:400E4000FFF7E8FF08BDC04620130020014B18687047C04640032440024B1B681F2018407047C04608032440044B1B681F221340082BF9D0024B18607047C0460802244062
:400E80004002244010B5154A154B1A600023154A13600121144A1160144A15480260072414480460144803601448016014490A60144A13600421144A1160144A1360144A69
:400EC0001360144A1360144A1360144A1360144A13601268134B1A8010BDC0460B0000020000244040002440480024400700008000032440040324401003244044002440BD
:400F0000000224400402244050002440880E2440C80E2440480F2440080F2440C80F2440880F244022130020064A1168064B0B40902109040B431360044B1A88044B1A609A
:400F40007047C04600010240FFFF0FFF22130020880F244008B5FFF77FFF002802D0FFF775FF00E00020054B1A68D8239B001A4203D01A1C014B1A60002008BDC00F2440D5
:400F800038B5051C002402E0FFF76EFF0134285D0028F9D138BDC04608B500F087FA08BD10B50024064B1C70064B1C70064B1C70FFF7F2FF054B1C70054B1C7010BDC0462E
:400FC000832400207C240020822400206C2400207424002010B590B0041C0BA82249142202F029F82023214AD35C002B05D1FFF7D7FF012120231D4AD154002C30D01C4B82
:401000001C6008AC05AA099206AB089302212181193119805980173919710823137002F047F8201C1621694402F022F9002818D1052300930F4B01930F4B02930F4810492A
:40104000D82212010BAB02F06FF8002809D101220C4B1A700C48142113320FF0E1FC00E0012010B010BDC046D459010024130020702400200069010079020000E5110000FC
:40108000C80000207A240020E859010008B502282ED81B4B1B78042B2CD11A4B1B785B072BD4002809D1184B1E221A860232596A0A805B6A10325A800CE001280AD1124BE9
:4010C00096221A86C822D200596A0A805B6A8022D2015A800D4B18700B4820300DF0CAFD00280CD1074A117804230B43137006E0012004E00420FF3001E00420FF3008BD26
:401100007A24002083240020500E0020822400207047C04603784078000218437047C04638B583890D2B20D1041C04300021221C33330FF08DFC051E11D16068FFF7EAFF6D
:40114000830706D50A4B1B6882204000211C984705E0074B1B680620FF30211C9847054A137801218B43137000E00025281C38BD7024002083240020024B00225A701A7040
:401180007047C0468024002010B582B0041CFFF7C7FF0A4B1B78DB070ED4002809D001A912238B70A3890B80C87020680EF084FE02E020680EF014FF02B010BD832400209C
:4011C0008379002B07D000200BE0C25C002A07D10133DBB200E00023052BF6D9002000E001207047F0B583B0041C0D1C9B4A117801230B431370272800D1B9E012D80628D6
:4012000000D182E004D8012824D0052879D014E1242800D1A4E0262800D1B1E0212800D00BE186E0422800D1F3E009D8312800D19AE0412800D1D7E0282800D0FDE09BE05F
:401240004C2800D1F0E0FA2800D1F1E0432800D0F3E0E1E001AE0727377000237370301C03F0C8FE377001237370301C03F0C2FE7B4B1E68301CFFF7A3FF00280CD0301C0A
:4012800001F024FF764E30680021FFF741FF30680121FFF73DFF25E0724B1B78724A12783F210A4092010B401343704A127820390A40120313436E4A127860310A4052043D
:4012C00013436C4E33701A0A72701B0CB370301C01F0FCFE301C0021FFF71AFF301C0121FFF716FF00200DF075FB01A86249022201F0A1FE01A80DF08BFB04225F4B1A70A4
:401300009BE02A785E4B1A7097E02B78002B00D093E06B78002B06D15A4B0022DA809A80594A1A606B604D4A137801218B43137083E04A4B1B789B0600D57EE0534B1B78A8
:40134000102B02D10522514BDA70514B18784F490DF050FC414A117801230B4313706CE06A784C4B1A7068E00222444B1A7064E00222424B1A7060E00422404B1A705CE032
:401380003E4B1B78022B58D0344A1278D20754D5324A1278520708D50322384B1A702F4A137804218B43137047E02C4A1278120708D50422314B1A70284A137808218B438D
:4013C00013703AE0032B38D104222C4B1A70324B1B78002B31D10120FFF758FE00282CD10322264B1A7028E0294E301C291C022201F021FE0022224B1A7031783D31FF315F
:401400004900264B591801312548023201F013FE13E0FFF7B1FE10E06988162900D9172128880EF053FD08E0281CFFF7ADFE04E01C4A117801230B431370084B1A78112337
:401440001A4209D0054A137801218B431370164B1B68201C291C984703B0F0BD83240020840E00207CF2FF0F7DF2FF0F7BF2FF0F78F2FF0F880E0020B05B01007A24002061
:401480007C24002048130020480E0020580F002080240020742400208224002000690100782400206C240020702400207047C0468423014AD05070470000002010B5041C9D
:4014C00000F02FFA044A1168044B0B40A4031C43146000F02AFA10BD10E400E0FF3FFFFF80229202014B1A607047C04600E100E080229202014B1A607047C04680E100E093
:4015000010B5041CFFF7F4FF201CFFF7D1FF0320FFF7D4FFFFF7E4FF10BDC0460004000C014B18607047C046080120400004000C014B18607047C0461401204038B5041C36
:401540000D1C00F0EEF9AC40024B1C6000F0EDF938BDC0460800204008B500F0E2F9064A116801230B43136000F0DFF901201821FFF7E4FF08BDC04600002040014B18605D
:401580007047C0463801204008B580229204084B1A608E225200074B1A600120FFF7EEFFFA208000FFF7C2FF0020FFF7B7FF08BD000120402401204008B5064B1B78002BAD
:4015C00004D1FFF7E1FF0122024B1A70FFF7C4FF08BDC04650130020014B18607047C0463001204010B5164B1A8812B2154B19880CB2604392028418134B9C420BDDC82300
:40160000DB031B1BD817000FC0180011C000552100F000FE0AE0A0239B03E318D817000FC0180011C000372100F0F4FD23188022120294466344D817000CC018001410BD3F
:4016400066F2FF0F64F2FF0FFFFF0E0010B50F20032100F093F90F204F4900F07DF901224E4B1A604E4B1B68002B01DA4D4900E04D494E4A13680B4313604D4A4D4B1A60F2
:401680004D4A4E4B1A6000234D4A13604D4A4E490A604E490A604E4A116880204002014311604C490A6802430A604B4A13604B4A136011224A4B1A604A4A11684A4B0B401D
:4016C000802189050B431360002462E0474AA3009958DC239B010B401219127A1343002C1CD1A2004248844662441360CB0707D5394A116880235B02A3401B0C0B431360DF
:40170000A3003A4A9B589B0721D5344A116880235B02A3401B0C0B43136018E08022D2051343344A1360A300304A9B58DB0704D52B4A116820230B431360A3002B4A9B58B5
:401740009B0704D5264A116840230B431360A300264A9B589A0502D58020400001E080204001DB0504D463000021234A995203E063000021204A9952204B5843204B9C4620
:401780006044204900F046FD00B2A2001E4BD0500134012C9AD910BD0119000020003A4080033A40702010137020001300003A40AC000A8004003A400000FF0718003A409D
:4017C0001C003A400400040010003A4014003A4000033A4040033A4028023A4038023A4018023A4030003A40FEFFFFDFB45B010080003A4080023A408C240020102700007B
:40180000E40C0000C81900008424002008B5094B1B68002B0CDB084B1B68002BFBDB054A1368802109060B4313600A2000F0E4F808BDC04600003A4008023A4008B5064B8A
:401840001B78002B04D1FFF701FF0122024B1A70FFF7DCFF08BDC046511300200122014B1A60704724003A40011C83070CD0104B1B680120184001D18B07F8D4002804D081
:4018800001220B4B1A6000E000200C230B420DD0074B1A6810231A401043034001D10A07F6D4002B02D01022014B1A607047C04610023A4010B5041E012C02D9002000F0FB
:4018C00049F8002C07D1A400064B9C46644420680004000C03E0044B18680004000C00B210BDC04680013A4090023A40034A1368802109060B4313607047C04680023A404C
:40190000014B1A681A60704710023A40000000000230800803D00138FDD1C046C046C0467047EFF3108072B6704780F310887047024B1B68012018407047C0460C002E402C
:401940001F2318401E3B8340181C014B1860704700E100E001BE704738B5041C0D1C1F2802D90020FFF7F6FFA400034B9C4664442068256038BDC0464000002070B5041C3F
:401980000E1E032E02D90020FFF7E4FF1F2C02D90020FFF7DFFF03252540ED000635FFF7C0FFA408A400074B9C46644423680322AA409343AE40351C1D432560FFF7B5FF08
:4019C00070BDC04600E400E010B5041C06E0084B1868FFF79DFF074B9C46644480231B029C42F4D8024B58686043FFF791FF10BD600F00200080FFFF08B5034B1B7A58432F
:401A0000FFF786FF08BDC046600F0020F0B557464E46C0B483B0041CFFF783FF0190E71E2D2F74D83F4B1B78DBB2A34208D33E4B1B78DBB29A463D4B1B78DBB2994631E0F3
:401A40003B4B1B78DBB2A34208D33A4B1B78DBB29A46394B1B78DBB2994623E0374B1B78DBB2A34208D3364B1B78DBB29A46354B1B78DBB2994615E0334B1B78DBB2A3421B
:401A800008D3324B1B78DBB29A46314B1B78DBB2994607E02F4B1B78DBB29A462E4B1B78DBB299462D4BDE5D2F2E09D92A2C07D919222B4B1A600520FFF72AFF192503E0C2
:401AC000274B1D683F231D40AE4206D2234BDA5D234B1A600520FFF71BFF1F4B9C4664442378DBB21F4A13601F4B52461A601F4B4A461A600520FFF77FFFAE420AD9174BF0
:401B0000DA5D174B1A600520FFF702FF02E00020FFF720FF0198FFF708FF03B00CBC91469A46F0BD40F3FF0F41F3FF0F42F3FF0F43F3FF0F44F3FF0F45F3FF0F46F3FF0F0E
:401B400047F3FF0F48F3FF0F49F3FF0F4AF3FF0F4BF3FF0F4CF3FF0F4DF3FF0FC05B01002CFF0B4028FF0B401CFF0B4020FF0B4010B5041C0F4A116801230B4313600E4A90
:401B80000E4B1A600E4A1368802109020B431360002809D100200CE00120FFF72DFFFFF7C7FE002804D1013C002CF5D1102000E0002010BD60F02E400220000078002E4017
:401BC00010002E4008B5FFF7ACFE044A136804218B43136030BFFFF7A8FE08BD10ED00E0034B1868C0231B02184000D00120704700010B4010B50D4B1A6801218A431A608C
:401C00001A68022082431A60094A10683024A043203C204310601068093CA043014311601A68802109060A431A6010BD00F02E4000FF2E4038B51D4B1B6801241C40002829
:401C400002D0012816D02BE0184B19680122914319601968022081431960154B19682E3081432038014319601968093881430A431A6018E00D4B1A6802218A431A600C4A4D
:401C800010680725A84301431160116830208143103801431160196801220A431A6002E00020FFF757FE201C38BDC04600F02E4000FF2E4008B5FFF734FE044A1368C0210D
:401CC00009020B431360FFF730FE08BD00010B4010B5FFF726FE08490A68084B1A408024E40122430A600A6813408022120213430B60FFF71AFE10BD00010B40FF3FFFFF9D
:401D000070B5061CFFF70DFE041CFFF769FF002803D0FFF7DDFF012500E000250848331C0340084A106808490840184310601368012D01D1FFF7BEFF201CFFF7F6FD70BD55
:401D40000404040010020B40FBFBFBFF10B5244B1B685B0715D5234B5B685B070ED5224B596A042001401F4C62688A4362605A6A82435A629B69002B00D098470420FFF7FB
:401D8000BFFF174B1B685B0518D5164B5B685B0510D5154B596A8022D2001140114842688A434260596A114A0A405A62DB69002B00D098478020C000FFF7A2FF084B1B6861
:401DC0005B030CD5074B5B685B0304D5064B1B6A002B00D098478020C002FFF791FF10BD10020B40700F002054130020FFFBFFFF04490A68FB231A408000F73B18401043E4
:401E0000086070470000044004490A68F7231A40C000EF3B18401043086070470000044004490A68EF231A400001DF3B18401043086070470000044004490A68DF231A40A5
:401E40004001BF3B184010430860704700000440031C04490868FE220240012018401043086070470001044004490A68FD231A404000FB3B184010430860704700010440ED
:401E800004490A68FB231A408000F73B18401043086070470001044004490A68F7231A40C000EF3B18401043086070470001044004490A68BF231A4080017F3B184010431D
:401EC00008607047000104400160704701607047324B1A781202324B1B781A43314B1B781B02314909780B4330498B4201D1072A06D0D42109018B4206D1042A04D102E0A2
:401F00002B4B042200E02A4B2A490B602A4B1A602A4B1B781B022A4A1278134380229201934202D0002B02D002E0264B00E0254B254A1360254B1B781B02254A127813439D
:401F4000244A934205D0244A934204D0052B05D103E0224B02E0214B00E0204B204A1360204B1B681B09204A1268AA2A15D1012B13D9164B1B780E2B0FD11C4B1B781B027A
:401F80001B4A127813431B4A13601B4B1B781B021A4A127813431A4A1360704759F1FF0F58F1FF0F5FF1FF0F5EF1FF0F580B0000580D00006C002E4074002E405BF1FF0FD4
:401FC0005AF1FF0F0220000078002E405DF1FF0F5CF1FF0F0F0F000005050000050F000080002E40EC0F00F0E00F00F06DF2FF0F6CF2FF0F84002E406FF2FF0F6EF2FF0F2D
:4020000094002E4008B5FFF7F7FC08BD08B500F04FF808BD08B500F053F808BD08B500F04FF8034800F02EF8032000F031F808BDED20000008B5024800F04AF808BDC04656
:40204000ED20000000487047020200002B2070472B2070472B2070472B2070472B2070472B2070472B2070472B2070472B2070472B2070472B2070477047C04601207047A5
:4020800001207047014B18677047C0460000002010B5041CFFF745FC044A1368C0218B43A4011C431460FFF740FC10BD0CE400E080225201014B1A607047C04600E100E08C
:4020C00080225201014B1A607047C04680E100E010B5041CFFF7F4FF201CFFF7D3FF0320FFF7D6FFFFF7E4FF10BDC04608B513F00FFB08BD002243088B4274D303098B42D2
:402100005FD3030A8B4244D3030B8B4228D3030C8B420DD3FF22090212BA030C8B4202D31212090265D0030B8B4219D300E0090AC30B8B4201D3CB03C01A5241830B8B421E
:4021400001D38B03C01A5241430B8B4201D34B03C01A5241030B8B4201D30B03C01A5241C30A8B4201D3CB02C01A5241830A8B4201D38B02C01A5241430A8B4201D34B02B1
:40218000C01A5241030A8B4201D30B02C01A5241CDD2C3098B4201D3CB01C01A524183098B4201D38B01C01A524143098B4201D34B01C01A524103098B4201D30B01C01AE6
:4021C0005241C3088B4201D3CB00C01A524183088B4201D38B00C01A524143088B4201D34B00C01A5241411A00D20146524110467047FFE701B5002000F0FCF802BDC04667
:402200000029F7D003B5FFF775FF0EBC4243891A1847C04603460B437FD4002243088B4274D303098B425FD3030A8B4244D3030B8B4228D3030C8B420DD3FF22090212BA44
:40224000030C8B4202D31212090265D0030B8B4219D300E0090AC30B8B4201D3CB03C01A5241830B8B4201D38B03C01A5241430B8B4201D34B03C01A5241030B8B4201D362
:402280000B03C01A5241C30A8B4201D3CB02C01A5241830A8B4201D38B02C01A5241430A8B4201D34B02C01A5241030A8B4201D30B02C01A5241CDD2C3098B4201D3CB012B
:4022C000C01A524183098B4201D38B01C01A524143098B4201D34B01C01A524103098B4201D30B01C01A5241C3088B4201D3CB00C01A524183088B4201D38B00C01A5241B7
:4023000043088B4201D34B00C01A5241411A00D201465241104670475DE0CA0F00D04942031000D34042534000229C4603098B422DD3030A8B4212D3FC22890112BA030A5C
:402340008B420CD3890192118B4208D3890192118B4204D389013AD0921100E08909C3098B4201D3CB01C01A524183098B4201D38B01C01A524143098B4201D34B01C01A83
:40238000524103098B4201D30B01C01A5241C3088B4201D3CB00C01A524183088B4201D38B00C01A5241D9D243088B4201D34B00C01A5241411A00D20146634652415B1032
:4023C000104601D34042002B00D54942704763465B1000D3404201B5002000F00BF802BD0029F8D003B5FFF715FF0EBC4243891A1847C0467047C046F8B54A0043024400B7
:402400004E02C50F240E281C9B09120EC90FB7098D4240D0A01A002800DC84E0002A1CD1002F5CD15A0704D00F221A40042A00D004338022D2041A40281C002A24D00134D4
:40244000FF2C00D17BE09B015B0AE4B25B02E4055B0A2343C0071843F8BDFF2CE2D08022D204174301261B2808DC391C20223E1CC140101A8640771EBE410E439B1B5A01B1
:4024800033D4281C5A07CFD1DB08FF2C1ED05B025B0AE4B2DAE7A11A002957DD002A3AD0FF2CBFD08022D204174301261B2972DD9B195A01E5D50134FF2C00D187E00121A6
:4024C0008A4A194013405B080B43ABE7002B36D08022D20313435B025B0AFF24B6E7013800283FD1DB1B5A01CBD59B019E09301C00F04EFD05388640844223DC001B1F2447
:40250000321C431C201ADA408640131C741EA6410024334386E7002F00D183E70139002950D1DB19C5E7002820D1621CD2B2012A5EDDDE1B720128D5FE1A0D1CD7E7FF248B
:40254000002383E7694B241A33406BE7002958D1621CD1B201293CDDFF2A37D0FB185B08141C5FE7FF2C00D07CE75BE7002C1ED0FF2A23D08024E404404223431B285BDDA0
:402580000123FB1A141C0D1CADE7002EAFD100230020002478E73A1CCA40944620223E1C511A8E406246771EBE41164380E7002B3ED0C0430028E4D0FF2ADFD13B1CFF240B
:4025C0000D1C2FE7FF2C00D06FE72BE7FF2400235AE7002C5AD1002B7FD0002F00D121E7DB195A0100D44CE7404A0134134019E7002C15D1002B2FD1002F5DD03B1C0D1C58
:4026000010E7002C21D1002B53D0C943002904D0FF2A4BD01B2957DD0123DB19141C48E7002B22D1002F4AD03B1C0D1CFF24F9E63B1C141C0D1CF5E61D1C2024C540201ACB
:402640008340581E83412B439BE7FF2A2ED08024E40449422343DDE7002F00D1E2E6DA1B50013CD5FB1A0D1CDCE6FF24002F00D1D8E68022DB08D203134204D0FE08164224
:4026800001D1331C0D1CDB00FF24CBE6002B0DD0FF24002F00D1C5E68022DB08D2031342F1D0FE081642EED1331CECE73B1CFF24B8E63B1C141CB5E6231C0020E4E6802396
:4026C00000209B04FF24DFE61E1C2024CE40611A8B40591E8B4133439FE73B1CA2E6131E00D0CEE600230020CEE6C046FFFFFFFBF0B556464D465F464446F0B44302450068
:40270000C70F83B08A465C0A2E0EB94641D0FF2E26D080231B042343DC00002398469B467F3E53465B025D0A53465A00DB0F120E9A4639D0FF2A33D080231B042B43DD00CC
:4027400000237F3A5146B21A46467940081C01921E430F2E00D976E07E4AB6009659B746002C30D108239846063B9B46D9E780230021DB03FF245B02E4055B0AC907234329
:402780000B43181C03B03CBC90469946A246AB46F0BD002C28D104239846033B9B46C0E7002D1FD1022302E0002D11D10123B21A50464646784001921E430F2E27D86649E5
:4027C000B60089598F460C239846093B9B46A8E7281C00F0DDFB7622431F52429D40121A0023AFE70323ADE7201C00F0D1FB431F9C4076235B421E1A002398469B4690E798
:402800000025D1469B465B464846022B6FD10121FF2401400023AEE77E23019A5B429B1A1B2B6DDD01214B46194000240023A2E78023DB031C4249D18023DB0323435B026A
:402840005B0A391C96E763016D01AB4237D389461A2001215B1B01241E1C49005B00002E01DBAB4201D35B1B214301380028F3D1581E83410B431D1C019C7F34002CCBDD05
:402880006B0704D00F232B40042B00D004352B0104D5019A314B8032141C1D40FE2C07DD4B460121FF241940002364E7251CAAE701214A46AB015B0AE4B211405BE7019A9E
:4028C0008946013A01921B200021C4E71D4207D023435B025B0A391C4CE700256302ABD58023DB032B435B025B0A514642E7032B25D0012BC0D101210024014000233AE728
:40290000291CD9402B1C019A9E3293405D1EAB410B435A0704D00F221A40042A00D004335A0105D54B46012101241940002322E701214A469B015B0A114000241BE78023AB
:4029400001214A46DB032B435B020A405B0A111C10E7C046F05B0100305C0100FFFFFFF7F0B55F4656464D464446F0B445024600C40F83B00F1C6D0A360EA34645D0FF2E0B
:4029800025D080231B041D4300239A46ED007F3E01937B025B0A98467800FB0F000E994640D0FF2838D0802342461B041343DB00984600237F384A46019F30186240411CA7
:4029C0001F430F2F69D87D4EBF00F659B746002D45D108230193063B9A46DAE793465346022B2FD15B46012400251C40FF236D02DB056D0AE4071D432543281C03B03CBCCC
:402A000090469946A246AB46F0BD002D2CD104230193033B9A46BCE743465A4253410322D31AC8E742460123002AC4D0404600F0AFFA4246431F9A4076235B42181A9046B0
:402A40000023B8E7032B00D1ADE0012B00D08CE05B4654461C40E4B200230025C7E70C230193093B9A4694E7281C00F091FA7626431F9D4000237642361A01939A4688E773
:402A800080250024ED03FF23B1E74546CB469A46A5E7454693469A46A1E743462C041B0C9C46230C444626041C1C360C2F0C7443351C66467D4373437743EB18260C9E19A5
:402AC000B54203D980235B029C46674424043304240C1B199D016C1EA5419B0E360C2B43BD19AD011D432B0104D5012368081D400543081C031C7F33002B2CDD690704D0BD
:402B00000F212940042900D00435290103D52C4B1D40031C8033FE2B17DD0124FF231440002564E78020C003054209D04346034206D1454605436D026D0A4C46FF2356E724
:402B400005436D026D0AFF2351E70124AD016D0ADBB214404BE77E235B421B1A1B2B07DD012400231440002541E7081C5A46C1E79E30291C8540D940681E85410D436B077F
:402B800004D00F232B40042B00D004356B0104D5012401231440002529E70124AD016D0A1440002323E78023DB031D4301245B466D0223401C1C6D0AFF2318E7705C010074
:402BC000FFFFFFF7F8B54A00430244004D02C00F240E061C9B09120EC90FAD09FF2A00D175E001277940884250D0A01A002800DC8FE0002A1ED1002D00D075E05A0704D0B6
:402C00000F221A40042A00D0043380220120D2041A403040002A32D00134FF2C00D184E09B015B0AE4B25B02E4055B0A2343C0071843F8BDFF2CE1D08022D20415431B2842
:402C40007ADD01255B1B5A015DD59B019F09381C00F09EF905388740844269DC001B1F243A1C431C201ADA408740131C7C1EA74100243B43C2E7131E45D100230020DB080F
:402C8000FF2C28D05B025B0AE4B2CCE7A11A00295BDD002A2ED0FF2CB0D08022D20415431B2974DC2F1C2022CF40511A8D40691E8D413D435B195A0125D50134FF2C74D07D
:402CC00001217E4A194013405B080B4396E7002D00D088E785E7002B27D08022D20313435B025B0AFF249EE701380028AAD0FF2CA5D183E7002D00D180E701390029D9D088
:402D0000FF2CCDD17AE75A0700D079E701203040B5E7002825D1621CD2B2012A55DD5F1B7A012DD5EF1A0E1C91E7FF2400237AE7624B241A3B4061E7291C2022C140101A85
:402D40008540681E85410D437CE7002946D1621CD1B201292BDDFF2A26D0EB185B08141C4CE7002C15D0FF2A1AD08024E404404223431B284DDD0123EB1A141C0E1C62E763
:402D8000002F00D063E700230020002477E7012590E7002B39D0C0430028EDD0FF2AE8D12B1CFF240E1C29E7FF24002367E7002C5AD1002B7FD0002D00D11FE75B195A018E
:402DC000A1D53E4A0134134018E7002C15D1002B2FD1002D5ED02B1C0E1C0FE7002C21D1002B54D0C943002904D0FF2A4CD01B2958DD01235B19141C5DE7002B23D1002DC3
:402E00004BD02B1C0E1CFF24F8E62B1C141C0E1CF4E61E1C2024C640201A8340581E83413343A9E7FF2A2FD08024E40449422343DDE7002D00D1E1E65A1B500100D41AE700
:402E4000EB1A0E1CDAE6FF24002D00D1D6E68022DB08D203134204D0ED08154201D12B1C0E1CDB00FF24C9E6002B0DD0FF24002D00D1C3E68022DB08D2031342F1D0ED0890
:402E80001542EED12B1CECE72B1CFF24B6E62B1C141CB3E6231C0020F1E6802300209B04FF24ECE61F1C2024CF40611A8B40591E8B413B439EE72B1CA0E6C046FFFFFFFB5A
:402EC0004202510A4200C30F120E00207E2A0DDD9D2A0CDC802000040143952A0ADC9620821AD1400A1C58424240D0187047034A9818FBE7963A91400A1CF4E7FFFFFF7FD0
:402F000070B5041E39D0C50F00D04442201C00F03FF89E23261C1B1A962B07DC082801DD083884406402640AD8B21EE0992B0ADD0522211C121AD1400A1C011C1B318E40C1
:402F4000711E8E411643052801DD421F96400F4C3440720704D00F221640042E00D0043462010ED4A401640AD8B26402C005640AED0704432C43201C70BD00250020002484
:402F8000F3E7024B1C409F231B1AEBE7FFFFFFFB1C2101231B04984201D3000C10391B0A984201D3000A08391B09984201D30009043902A2105C40187047C04604030202E4
:402FC0000101010100000000000000000E4B70B500251E1C0D4CE41AA410A54204D0AB00F35898470135F8E712F062FE084B00251E1C084CE41AA410A54204D0AB00F35875
:4030000098470135F8E770BDBC5C0100BC5C0100BC5C0100C45C010030B50024944208D0035D651C0C5DA34201D0181B02E02C1CF4E7002030BD002310B5934203D0CC5C4F
:40304000C4540133F9E710BD031C8218934202D019700133FAE77047134A1088810703D08107890F401A001D11791030484381B25088820703D08207920F801A001D80009E
:4030800040180A494030098980B2CA0701D0503080B2890706D504495422091F09785143081880B2704700007E0F00207C13002010B501F06DFF0BF0F3FA10BD10B501F080
:4030C000ABFE10BD10B500F04FFA10BD10B50749044609780220002907D1204601F0F8FE002802D120460BF06BFD10BDE810002070B504460120002C12D02368002B0FD063
:40310000616800290CD0074D06222889208118462968FFF790FF6968606809780170002070BD00007C130020FFB585B0002768460E9D07734C481C460078002802D0082085
:4031400009B0F0BD10990F9801900095029105A807C800F0FBF80028F2D16946264603AB84460873002C19D0002115E08A00B75A082F09D990198078002805D0083FB752BB
:403180001878401C187005E0002915D00027B75290198770491CC9B2A942E7D360460028CED10F9800280AD0109901F0E9F90006000E04D00120C3E701208446EEE701F05D
:4031C0002BFE2948002101610C300599016021888180022D03D3A1798171A17AC17100211EE0481C19E082008B00A75AE65ABE46BE4211D26F463E80B4461E190296B67854
:40320000BE7001967646E6521719029EBB78B3706646A652019EBE70401CA842E3D3491CA942DED3114800906846037B22460799069800F013F9002882D168460A4C007B90
:4032400060700A4801F024FE0028B4D1204607490C3008F07BFC0028ADD108F095FC0028A9D1012121706BE7780F00207C130020F8B5054633480E460078002802D0022480
:403280002046F8BD002E5BD000242F49002D16D02A89D0070DD02868002808D003881B3BE12B04D24088FB2801D81B2801D2012409E0900707D56868002804D1F7E700200B
:4032C000088108604860002CDAD11F482F8907811C481B21801D018041800421017119490020891C0870F80705D016480622801D2968FFF7A0FE1449B80703D56A681148C7
:40330000127882700F480D46801D0860001F486001F004FE0B48801D01F0F2FD28890EF045FC28890EF0ACFD03461033FFF794FE1F21C018890140180249308088809FE7F9
:4033400001249DE7780F00207C130020FFB58446384F1C460020BB883F78054602460646002F11D100290ED0029999420BD36146002908D0002C06D00A99002906D02E4BBD
:403380000B99994202D2012004B0F0BD002144E0AB001F19BF78002F3BD0E35A002B38D07B43591889B22B0000F04AF8050410161C253100A7782388BC46FF27233BEB3755
:4033C000BB4222D26346032B1FD322E0A388002B1FD0302B19D31CE02389002B19D0282B13D316E0A289002A13D01346134F233BBB420AD20DE0268A002A0AD033460F4FF8
:40340000233BBB4201D2964203D901200EE0002001E000280AD16D1CEDB2099B9D42B7D31C2463435B1802998B42ACD89642AAD8AAE70000780F002079020000BAFF000057
:4034400030B47446641E2578641CAB4200D21D46635D5B00E31830BC18470000FFB583B0002469460C801F4606468C80002806D00598002803D004983043800701D0012467
:4034800067E0002FFBD03449049809888842F6D3FEF7D0FDFEF7BEFD00F010FC002856D100F06CFD002852D12C49084601F09CF805042D0C4BD12A480499066081800021F0
:4034C000C18007810C98007AC00704D0684601F0BCFC040007D10C98007A800703D501A801F0C8FC0446BF1DFEB2002C21D13146059800F05DF804001BD10EF0CFFC04062C
:40350000240E16D16A461088928808368518144AF1B29088D288AEB29319984207D3401B801A80B201F050FB050007D000E0FF25012400F05BFA002D04D008E0F8B200F0D2
:403540001BF9F6E700F07EFA06490120087000F0C7FB204607B0F0BD7C0F00209D360000881300208C0F002010B503480078012801D101F0CBF910BD8C0F002070B5084B62
:403580000446DA889E8800205518B54206D81D68AA182260DA885118D98070BD032070BD88130020014800897047000088130020F0B587B007460D46002089000090069122
:4035C0006846FFF7DBFF844600285DD1304800990160002117E02E4B88001A680629115406D22C4C0419667882185670628805E0C419203CA67A8218567022891B68C01853
:40360000491C4280C9B2A942E5D300242DE0601CC2B2059025E01E4FA30039689600581840887118039604904E88B04217D938466F46FE80B6464F786E4677710297049F51
:403640004F800168039F5E18767879184E700168764659184E800068029F18184770521CD2B2AA42D7D30598C4B2AC42CFD36046002809D168460699FFF780FF84460028E2
:4036800002D1054900980860604607B0F0BD0000900F0020E85C0100940F00207047000010B5002809D005494A68002A05D0011F08788000105801F035FA10BD900F002068
:4036C00010B50446FFF76EFFC0B2801DA0420CD307484068002808D0A100405801F094F9002801D00470001D10BD002010BD0000900F0020F8B516460D460446FFF752FFEA
:40370000C0B2801DA04203D20020C0430090F8BDB2B2E9B2684601F09DF90099481C03D0024AA000526811500098F8BD900F0020F8B50746FFF736FF801DC6B20A49002097
:4037400005460C680DE06178002907D06188B94202D32078FFF7B4FF002804D1241D6D1CEDB2B542EFD3F8BD900F002010B5002801D0FFF795FF10BD70B50646094800253B
:4037800004680BE06178002905D062882078121D0023FFF7AFFF241D6D1CEDB2B542F1D370BD0000900F0020FFB581B00A9C16002BD000F0F1F80546042826D0214F002CD5
:4037C0000BD02046FFF7B4FF2901C919486000281BD022460499FFF72EFC1A4928010E5046187481019805707D20029CC000444300F0C0F8009004280AD000F055FAA042C7
:403800000ED800F051FA201A06E0FF2005B0F0BD204600F0ADFA0020B08135720020F5E700F042FA074600F0B9FA381B87B23846012100F0EFF800980101024808188781AA
:40384000E6E7000094130020F8B5060117483418217A042903D0A089002802D018E00020F8BD00F021FA054600F098FA00F0A2F804280DD001010D480F18B88941198DB207
:40388000002100F0C7F80020B881284600F070FA6068064D002801D0FFF768FF042020720020A8516081A081D9E7000094130020FEB500266A463046012325490501691836
:4038C0000D7A042D02D0898900291BD000211154401CC0B20428F0D300246846005D002830D01B482101081841894768056802910021016041600422418102728181002EB1
:4039000002D015E01354E3E700F054F804280ED001010F480818019086890021304600F079F8019800218181304600F021FA0126002D07D038460299A847002F02D0384649
:40394000FFF714FF641CE4B2042CC6D3FEBD0000941300200EB5002005216A460090118150810348694600680FF00DF90EBD0000980F0020074A0020010189180B7A042B70
:4039800002D08989002903D0401CC0B20428F3D370470000941300200549002002015218127A042A03D0401CC0B20428F6D370479413002030B50A4B04200A4C00210A0160
:4039C0001219157A042D06D09289002A03D09A4201D808461346491CC9B20429EFD330BDFFFF0000941300207047000030B50020074C05460423020111190B72A5504D6044
:403A0000401C4D81C0B28D810428F4D330BD00009413002030B5094C00231A011219157A042D04D09589002906D02D1895815B1CDBB2042BF1D330BD2D1AF7E794130020B6
:403A4000002070471CB5002469460C70142001902346054A05480FF09BF804480068401C00D1FF2420461CBDC13A0000980F00203EB5124A0146FF2000230124126800294E
:403A80000DD0012914D0042908D104206946009308814B8110460FF076F880B23EBD6846009304814381694610460FF067F8F4E768460093048143816946EBE7980F0020D0
:403AC00070B545890468416800890300FFF7B8FC08280509091E22282628002006F066FD1EE0022908D0C8B22A4621460DF00EFA2046FFF73BFE13E002202A4621460DF03D
:403B000005FA2946204600F00DF809E000200EF029FD05E02046FFF7CBFE01E0FEF7ACFA002070BD014B0022DB6818479C0F002070B5448905680089022803D0032809D0F8
:403B4000FF2070BD2246094C0023A46829460120A04708E0FFF7B2FA241DA2B200232946022007F0A4FE002070BD00009C0F00207047000002480021416001804180704756
:403B80009C0F002070B50C46002186B016460391012802D0022859D116E003A9012007F0E6FE01281BD1039D324621462846FFF742FA0095287801900220694608814E816C
:403BC0006846FFF7B5FF41E0214D002B686809D0049004A9022007F0CAFE01281DD0022006B070BD002812D0298840182146FFF722FA28880024801980B228806988091DE3
:403C0000884206D12C801348FFF792FF03E00320E6E788421AD96C6018E004986860E278A378110219430B4A698000231060E3565360032313815181A1788170E178C170DC
:403C40006178417021780170042028800020C7E79C0F0020D41300203EB515460C46022803D004280CD000203EBD0091019002206946088107484A8100680EF084FF07E01E
:403C80000DF044F9044B0022DB6829462046984701203EBD980F00209C0F0020014AD160906070479C0F0020034801688068081A0A21484300097047E013002010B5FEF7C5
:403CC000ADF9482204490548FFF7B5F903490120C870002010BD0000045D0100E417002010B5FEF793F910BD70B5134C2368002B08D0207B1149C20705D040084000207394
:403D00008868A08070BD88680B4AA18880B29268814203D90A4D691A091802E0814202D2411A5118A160A080A0689842EAD30EF047FF00F013F870BDE0130020C0102E4058
:403D4000FFFF000010B508461946FFF7A7FF10BD704710B5FFF780FF10BD000003480021016041608160C16070470000E0130020024610B5FF20002A0CD0FFF7EFFF064C0A
:403D80000321207B0843207310010A21FEF738FA2060002010BD0000E013002000B504480A21806848430209FFF7D8FF104600BDE01300200248007B8007C00F7047000014
:403DC000E013002010B544490868002802DA434B01221A70022290430860414800693E49C00B4031096A08425ED0012000F086FA3B483C497C30FEF769F837480E216C30CB
:403E0000FEF764F8364820218430FEF75FF8344814219C30FEF75AF83148FF21C131A430FEF754F82E48FF212F31B030FEF74EF82B482D49BC30FEF749F829482B49AC3031
:403E4000FEF744F829492648491CB430FEF73EF823482749B830FEF739F821482549CC30FEF734F81E4824490830FEF72FF81C482249A830FEF72AF8194821498830FEF783
:403E800025F817481F498C30FEF720F814481921C9029030FEF71AF8FEF71AF8FEF7D2F8C0B2022802D00FE0FF2010BD16491748FEF70CF815481649001DFEF707F813483F
:403EC00000210830FEF702F854200449C043891C0870002010BD000000F02E40AC0F002000002E4055650000320300002F3F00003102000010520000EC160000FA12000005
:403F000031D000003AE300009956000080012E40F80F000070B50646581C80B245086D00002408E0304600F0C1F81055000A1119A41C4870A4B2AC42F4D3D80705D0D018CA
:403F40002038D15CC47FD454C17770BD30B50A4C002100195B1E07E0541864782502545C2C430480891C89B29942F5DB994201D1515C018030BD000000102E4010B5FF2050
:403F800000F0BCF90F49FF2048700E481021801D41800121417001700A490020C91C4870FFF710FF04000AD100F008F907210648FDF78AFF044807211830FDF785FF204692
:403FC00010BD0000AC0F0020CC112E4070B5002405465B1E0AE0284600F068F8010A161971702D1D1055A41CADB2A4B29C42F2DB9C4203D1284600F059F8105570BD00003C
:4040000070B500210A4D5B1E0AE0541864782602545C344346193480001D891C80B289B29942F2DB994202D1515C4019018070BD00102E40F0B50599091FCFB200217E1E76
:404040000BE0541864782502545C2C43164D45192C80001D891C80B289B2B142F1DBFC0712D01C78515C24020F4A0C4381180C809C785D78001D210280B22943841821804F
:40408000001D80B2D9780CE059781A7809021143054A84182180001DD9789B78090280B2194380180180F0BD00102E40014940180088704700102E4010B50B490020487078
:4040C00000F07CF8002000F03FF9002000F02CF907210648FDF7F8FE044807211830FDF7F3FE002010BD0000AF0F0020CC112E4010B50B46062812D006DC01280CD0032890
:4041000001D1FFF7D9FF10BD0A28FCD00B28FAD105480078107010BDFFF730FF10BD1146184600F02DF910BDB20F0020F8B5204DAC6A0127A0071F4E002816DA307806283F
:404140000ED1286A384328621B480069F903084381B219481030FDF7B9FE042000F0CEF8134802212830FDF7AFFEE00711D0062000F0C4F80F49FF20C91E48707078002826
:4041800002D1686B38436863094801212830FDF79BFEE0050BD53078042802D1052000F0ADF80348FF2101312830FDF78DFEF8BD40F02E40AF0F002000002E4010B5032199
:4041C0002348FDF783FE0120FDF71CFF20483038406A204C80076178800F890001431C480C38FDF773FE6078002808D0401E022181401820FEF7F4F8C000083800E0B82015
:4042000081B21548FDF762FE1348032109021438FDF75CFE10481149B830FDF757FE612189010F48FDF752FE0D480321001FFDF74DFE0C490C48FDF749FE0B480B496038F2
:40424000FDF744FE084801218838FDF73FFE10BD70F02E40B20F0020D8102E4090890000041E2E40FF0F000058122E40209000000849087806280BD148780749002803D1AD
:40428000486B400840004863C86A01221043C86270470000AF0F002040F02E400148007870470000AF0F002000B50300FFF7C8F8080D050D0B070507090D012000BD0320F3
:4042C00000BD042000BD022000BDFF2000BD0000074A9168D26889B2064B92B2994204D105498A4201D1012100E000210170704780002E4033D000003FE3000010B5044608
:40430000FDF788FE072C01D9FF2C01D102480470FDF77CFE10BD0000AF0F00200149487070470000AC0F002010B5064A012805D01921C9021046FDF7C9FD10BD1D21C90290
:40434000F8E7000090002E4010B50A4A141D012808D009491046FDF7B9FD08492046FDF7B5FD10BD04491046891CFDF7AFFD0349491DF3E788002E4031D000003AE3000011
:4043800070B50C460546FDF75DFEC0B202280E49287804D0FF2810D04C280CD810E0FF2809D10A4AD0680004800F032801D0087807E09069000A553803E00878207070BD03
:4043C0004F382070087070BDAE0F002000002E40F0B50122002830D000292ED00424420600D00524792342065B06D21800D0641C034600221EE00C2516466E43104D00278C
:404400007519AF720E4F002ABB51696007D0661EB24209D10B4E86197606760E05E05E06760E8027BE1B00E080269B198919521C2E81D2B2A242DED300221046F0BD0000CC
:404440006C16002079020000074900200C2242435218927A012A05D0401CC0B20628F5D300207047012070476C160020F8B50F000446164609D0184D18496868A04202D9E3
:404480004018A04201D38E4201D90120F8BD39462046FEF7C1FD00281BD0324639462046FEF7C9FDF0B200210C224A43521913895668F718A74208D90127A41B1B1B977269
:4044C000834206DAC01A1469C0B2491CC9B20629EAD30020F8BD00006C1600207902000010B500F05DF80748054AC16806480C46FEF7A1FD04492046FFF76AFF10BD0000AD
:4045000079020000B80F0020F0130020002070470020054A002902D0012902D002E0506000E0906000207047B80F002070B5084C154608460549A26889182A46FEF77BFDA1
:40454000A0684019A06028B270BD0000F0130020B80F00203EB50A226946FFF7E7FF044606480A2200686946FEF756FD002802D00020C0433EBD20463EBD0000B80F00209C
:40458000002802D0044A914201D2FF20704703490A61C8600020704779020000B80F0020024800214160816070470000B80F002070B5074C15460548626880182A46FFF7AC
:4045C00055FF60684019606028B270BDF0130020B80F002010B503490A220968FFF7E8FF10BD0000B80F002010B50F4A002313600E4A13600E4B18600E4801600E490120B7
:4046000008600E490860000290600E490C4808600D4914300860FF381538506000F0BCF800F0CAF9002010BDE40F0020CC0F0020F80F0020FC0F0020E80F0020D80F002056
:40464000B4170020DC0F0020F00F0020014610B50020002910D0094B1A689C685118A14209D25868196080188A0704D08A07920F891A091D196010BD002010BDCC0F002090
:40468000F8B50024164E671E321F3D463168136806E01422624310328A58521C1BD0641C9C42F6D36A1C14D02C461422544322460C3288500C214843FFF7C8FF3168002896
:4046C00008510AD031680020103408517068401C70602846F8BD2546E4E73846F8BD0000DC0F0020F3B50026F64381B000281BDB1E490968884217D80299002914D01B4F9D
:40470000142204463F1D54432546396810354859401C09D0FDF77EFC38682F1F4159C359994203DBFDF772FC3046FEBD214608310091465801590C20704308180C22029990
:40474000FEF779FC0948761C001D0068C159B14200D100260549009A091D865008684159491C4151FDF752FC0020FEBDD80F0020002803DB07490968884202D90020C043CB
:40478000704704491422091D096850431030085870470000D80F0020F0B500200D4A451E0346171F50600FE014260146714314680E1DA3510C461668083433511668083480
:4047C00035511468401C635039688842ECD30020F0BD0000DC0F0020F3B50026F64381B0002841DB2349096888423DD8029900293AD0204F142204463F1D544325463968B2
:4048000010354859401C2FD0FDF704FC3868415900292BD0211D009146580C21005971430F46C1190C220298FEF705FC11480021001D0068761C00590C34C019016041604C
:4048400081600C48001D00680159B14200D100260849009A091D865008684159491E4151FDF7D4FB0020FEBD3046FEBDFDF7CEFBFAE70000D80F0020FEB504460D4600206C
:404880001E49089E0860471E009001900290002C11D0486885420ED2002A0CD0002E0AD0642E08D808460C3001681C2068430C18207A002801D03846FEBD01202260207288
:4048C0001846FFF7DDFE6060401C13D06681A6810A4827610C3067610179A94200D205710021684601810A462846029B00F040F82846FEBD00202072DDE70000E40F00206B
:4049000038B50124009400F039F838BDFEB50027164EFF433D4600240EE01C20316860430818017A002906D04068FFF721FF002801D0254603E0641C3079A042EDDA681C39
:4049400012D01C2130684D434419FDF763FB69466068FFF741FF0546FDF758FB002DD9D1216868468847D5E7FEBD0000F00F002038B50024009400F001F838BD1FB5002216
:404980000C49541E0A60002811DB496888420ED808491C220C31096850430818406801A9FFF7A0FE401C02D0002004B010BD2046FBE70000E40F0020F0B50021114A4D1EC5
:4049C000174611710C3F0B46BD6016E008461C2460431668041D355114680646235014680836A3551468361DA353044616680A34335318301468491C255078688142E5D39C
:404A00000020F0BDF00F002038B500210091002811DB0F49097888420DDA0D4D04010C3529680859002807D0201D0818694600F06FF9002801D0002038BDFDF7EBFA2868E1
:404A40000F34015D491E0155FDF7E0FA009838BD00100020F7B582B0002502986E1E06602E48D21C024017462D4A2C4610460C380178106805E02301C358002B0FD0641C99
:404A8000E4B28C42F7D3711C28D03401211D40180191039900F02AF900281FD101E02646F1E71F48016820460C300F521C480399026820460E3011541948039902682046E7
:404AC0000F3011540398784300F0A0F8144900280968085102D00024009011E001251AE00F48016801980818009900F02CF9002801D0012502E00098C0190090641CE4B20F
:404B000003988442ECD3002D05D10298066004480179491C0171284605B0F0BDFCFF00000C100020F8B50D4600216A468C461180002839DB23490978884235DA214B040107
:404B40000C3319680A59002A2ED020460C300B5A801C0E5C184670438018954224D3854222D2002006E007465F43BF18AF4206D0401CC0B2B042F6D36046002814D0114E7E
:404B8000271DC8190C366A46294600F006F900280AD168460088012808D030682946C01900F0D1F8002803D00120F8BD0020F8BDFDF730FA30680F34015D491C0155FDF701
:404BC00025FAF3E700100020F8B50F46002400F031F8002817D10C4900220B460C334A600EE021011D680E466A501D680C36AA53B61C1D680F31AA551D68641C6A54E4B236
:404C0000BC42EED31A71F8BD0010002000280BD0C01C074A81085068890053884118994203D8936851601818704700207047000000100020F8B5064600200F4D0090297029
:404C40000C0121466846FEF799FC00280CD129460C3100980860301B001F84B221466846FEF78CFC002801D0FF20F8BD6C800098A8600020F8BD000000100020F8B5002872
:404C800027DB19490978884223DA174C05010C342168485900281CD028460C30085A009028460E300E5C401C0E5420682F1DC01900F064F800280CD12068002445590EE0BB
:404CC000094829460C300068C01900F03CF8002801D00120F8BD00982D18641CE4B2B442EED30020F8BD00000010002030B50D4604000BD0A800FFF789FF6060002805D0DB
:404D000000202570C0436080002030BD012030BD70B50D46040005D0002D03D00220205E002801DA012070BDFDF774F90221615E60688900405828606088401E6080FDF7B0
:404D400065F9002070BD70B50D46040007D0002D05D002212078615E401E814201DB012070BDFDF757F96088401C00B26080616880000D50FDF74AF9002070BD10B5040061
:404D800009D0227800216068FEF75EF90020C0436080002010BD012010BDF0B500231D46002802D00224045F0AE00120F0BD46689F00F6598E4201D1012503E05B1CDBB2BC
:404DC0009C42F4DA15700020F0BD00000148007870470000141000207CB505460024FEF76DF9A8796946087000A8062229460130FEF721F90021684605F0BEFE0C2804D0AF
:404E0000072804D01F2804D004E0022402E0042400E0272420467CBD10B500F073F9FFF73DFAFFF741FA10BD70B504460025FEF745F9002C06D0A079012803D8214602F0EB
:404E400007FC00E00125284670BD01460120002902D05020088000207047000001460120002903D00248007808700020704700001610002001460120002905D0034854227A
:404E80000078504308800020704700001610002010B502460D49FE204870032410460EF095F9002810D10EF039F900280CD106F0BBFD002808D100F015FB002804D106F020
:404EC000DFF8002800D10024204610BD1410002070B50025044600280ED0A07901280BD8FEF7ECF8A0790028204602D002F0ACFF03E002F081FF00E00125284670BD0000A3
:404F0000014610B50120002904D006220248FEF792F8002010BD00001810002001460120002903D008780249087000207047000016100020F0B589B015460F46064601245E
:404F4000FEF7BCF8002E20D0002F1ED0002D1CD0102239466846FEF76EF81022314604A8FEF769F8102168460EF052F8102104A80EF04EF82B46102204A9684603F0A6FFF1
:404F8000102128460EF044F80024204609B0F0BD10B505F071FD04F08BF806F0BDFB10BD38B504460120002C20D0617801291DD800290BD0FF25E535FEF780F80C4828185F
:404FC0000088C0B22070072803D00EE0FF25CD35F2E70020694608706846FFF779F969460878012801D108202070002038BD000000102E40F8B504460120002C26D0617853
:40500000012902D92278092A20D8002905D0FF25E5352078092803D004E0FF25CD35F8E708202070FEF74AF82078114F114E08280DD00020FFF788F970780128207810D072
:405040000D4969180880FE2070700020F8BD0120FFF77AF90720B8810549203188800120F2E7B8810248217820308180EBE70000C0112E401410002000102E4070B50E46BA
:40508000050001D0002400E00C4C002C11D0E28A500609D5D107C90F022002F0D1FFE08A40218843E08204E0D107C90F012002F0C7FF3146284602F037FC70BD4C1800205D
:4050C000F8B50546002004460D4E009013E022466946284600F01EFF0098002801D00EF057F8A878214602F003FAA878214602F0F1F9641CE4B2308AA042E8D8F8BD000000
:405100000419002038B51E4CFFF7C8F8042813D0052811D0062812D003282AD007280AD100206946087002460120FEF7E1FFFFF7B5F80128FBD138BD00F048FB38BD02F09D
:4051400045FA00F043FB02F0A5FA8007800F0228F4D10C4841880029F0D05B21095D0029ECD101210170A07D0140022002F068FF38BD02F02FFA0120FFF7C0F838BD00001E
:405180004C18002024100020F8B50646002402F0D5FF0546304602F0EBFF03460A480021068A0DE001228A401046174628401F40002803D0002F01D1224394B2491CC9B270
:4051C0008E42EFD82046F8BD041900201CB50020694648706846FFF7E3FE01AA69460A20FEF786FF6946042008561CBD10B50C4601F062FA002809D00179002906D0C178C4
:405200008078224602F016FC002010BD022010BD0148007870470000241800204030C07E002800D00120704700B500F001F800BD8C2148430749084A40186030417F491C9A
:40524000C9B24177D289914201D300214177C8B2704700002C1800200419002013B501F02BFA04000BD001F0C8FD002807D0214601AA0A310620FEF73BFF00201CBD02201F
:405280001CBD000010B50C4601F016FA00280AD001F0B3FD002806D0224604490A20FEF727FF002010BD022010BD00000D180020F3B581B0074601460026029802F036FFED
:4052C0000446002F01D0002500E0154D002D21D0284601F027FA032C04D13946029802F081FF06463846029902F0F4F8032C06D0002C10D00121384601F01AFB03E031467C
:40530000384603F06BF9284601F0A0FF0221284601F0B6FFFEBD3846029902F0DBF8FEBD4C18002010B5044603F0A2FD002801D00C2010BD2078611C02F08EFCFF2801D06F
:405340001F2010BD02F0D4FCFF280AD02178621C02F04EF8044821780068026B601C904710BD072010BD00003C10002010B503F07FFD002801D00C2010BD02F04FFC034827
:405380000068C06A8047002010BD00003C10002070B50D46044610210DF03AFE1021601806460DF035FE334610221946204603F08DFD102130460DF02BFE02202870204614
:4053C00005F0B6FD70BD0000F8B504464078217802028006870FE0781143A67809050002090D0643084601F067F900210546F2B2002812D0002C10D0022F0ED0032F0CD055
:40540000002A0AD00279092A07D0002A05D0134A5A23527E1B5C9A4207D82889002105F0BCFC20460DF0B4FEFF21002914D10C48224600682946436930469847C0B2FF2819
:405440000AD128464030817EF2B2491C8176FF232146284600F0DDF8F8BD0000E4170020541000200020704710B5044603F000FD002801D00C2010BD2078611C02F0ECFBAE
:40548000FF2808D002F024FB044821780068426B601C904710BD1F2010BD00003C10002010B505F0EDFD00F057F9002010BD10B5044600786178E2780843A17811430843BC
:4054C000217908436179084305D003F0C3FC002803D00C2010BD122010BD204602F0B4FC002010BD10B5FCF7ADFD02F049FE044803F02AFD02F0F6FA012000F003F810BD77
:40550000F4170020F1B586B003A8009005A8019025489F22817A114081726846FDF7E8FD00283FD169460989C90705D01F4806990068C2686846904769460989890706D510
:4055400000282FD11A480068816A06988847002828D1184E0025757075737571F575357675767575B570F570B5713746F5730120BC3738731F20F880FF2130467972A0303C
:405580000175457500F056FA00242046069901F0DFFB002803D1641C2406240EF5D0FD72BD72B57307B0F0BDE4170020541000203C1000202C18002070B505460E4608463F
:4055C00002F0BCFD0446304602F0D2FD0121A9400A46224001400A4301D0012070BD002070BD10B50446084602F0C2FD0121A140014201D0012010BD002010BD10B5FEF70E
:405600004DFE032804D101F0E5FF0120FEF776FE10BDFEB51C4616460F46054601F016FEA878FFF701FE02460190334639460094284600F00DF8002808D1A8780199FFF74F
:405640001DFDFF2C02D138460DF0A2FDFEBD0000FFB585B005460E980C46FF2810D02B49C00009680A5840180179C0795278814201D9012601E09006860F6846038108E044
:405680006078A1788006860FE0780002014368460181284601F0BCFB070007D021462846079A00F0CBFB384609B0F0BD304600F079FC04AE0346039002AA2946009620468C
:4056C00000F005FB3C20405D002818D0284601F09FFB012813D0684600890096C0B20190A878231DFF22079902F0D2F868460089039BC2B2A878079902F074FCD3E768462C
:4057000000890021C0B20091E9E7000050100020F8B5104F002500242846FFF735FD060012D00EE03046E040C007C00F07D02146284601F0C7FE21462846FFF7B9FD641C1C
:40574000E4B2388AA042EDD86D1C2D062D0EE2D0F8BD00000419002010B502F0C3F90020FFF7D0FE0DF0AAFD002010BDF8B5002400F094F80123012800D10124104F002098
:405780003E4620360425082203E0002801D0002100E031460979002907D001290BD002290BD0114681402143CCB2401C0006000EEBD07C70F8BD1C43F7E72C43F5E700008D
:4057C0002C18002010B5FFF7D1FF10BD10B5FCF7A8F80446FEF762FD012809D0FEF75EFD022805D0FCF7EEF92046FCF79EF8EEE72046FCF79AF810BD10B50B4681791943E4
:40580000817103D08078114602F088FB10BD10B582798A43827102D1807802F093FB10BD30B50C4C0220A28A0B4B9978002901D0022906D11D785B78EB18282B01D90320D1
:4058400002E0032900D101205105490DC0020143A18230BDC0112E401F10002000B500F023F8002807D0012805D0032801D0042801D0002000BD012000BD014600B500204B
:40588000C90701D000F00AF800BD014600B50020C90701D000F002F800BD000001480088000A704720102E400448008B410501D5042070474007800F7047000000102E402B
:4058C00038B50446000610D5FFF7EEFF01280CD1684601F085FE6846007800F0B3FA012001F01CFD0220FFF76DFF0348006801692046884738BD00003C10002010B5034A44
:405900000178117002F00CFA002010BD1F10002070B50446FFF7C2FF002801D00C2070BDA27B01211F48002A827801D00A4301E05208520082706279012A14D0C1784908E6
:405940004900C170184D2868016820468847207901280CD06188208803F0BAF82080207904280FD015E0C2780A43C270EAE72868C168E01D8847E01D02F052FA0B48808C64
:40598000208006E02868C168E01D8847E01D02F047FA074920798870204602F0CFF9002070BD00002C1800203C100020E41700201F10002008B50178FFF770FF814201D1F4
:4059C0000C2008BD002914D0072069460870FFF745FF012807D10121684600F08BF8012801D0092008BDFFF71BFF02F0DBF9012011E0FFF733FF012806D1684601F0F0FD59
:405A00006846007800F052FA02F0C2F9FFF746FF0028FBD10220FFF7D5FE002008BD000010B5034A0178517002F058FA002010BD1F10002038B568460DF040FB002801D0C0
:405A40001F2038BD01210098C90201804180002505714571857107214173857302F06EF9009C202200212046FDF7EEFA25702A460021601CFDF7E8FA204602F051F92046F6
:405A800002F02CFA00980DF083FB042200210248FDF7DAFA002038BD1F1000200346084800B5834209D8184600F006FE002804D00089984201D1012000BD002000BD0000CC
:405AC000FF0E0000074A9179491C8906890E917138220A4092014907090E114308430249084070472C180020FF0E0000C006C00E70470000F8B507460E4600240D4803E0C4
:405B0000002C01D0002500E005462979002905D0641C2406240EF3D00020F8BD0021204601F016F92E712046FFF7CCFF28813C700120F8BD4C18002010B503F0FBF9022238
:405B4000002100F003F801F069FF10BD10B5094B40074907000F090F185A595A40185043C0086421FCF74CFB002800D1012080B210BD00004C5D0100F7B53D20405C88B0E5
:405B800015460C46002802D02878042802D200200BB0F0BD6946087200262046FFF73EFB012800D00126204603A938300191009023460327A17E34333246206A03F0DEF991
:405BC00002A8089900900B46019120463A4603A9243003F05BF902466846007A2870204601F0A2F81046D3E7FFB587B00C4605461078694608723D20005D1746002826D043
:405C000000262046FFF70AFB012800D00126204603A93830019100902346A17E34333246206A03F0ABF902A80090291D019120462B1D03A924300A9A03F028F90200684671
:405C4000007A388002D1204601F06EF810460BB0F0BDF0B505463C20405C89B016460C4600280CD0307869460873002806D000272046FFF7D3FA012803D003E01F2009B0DA
:405C8000F0BD012703200890204604A93830019100902346E17E34333A46E06903F06EF96846007B03A928180290009120462B46019504A92430089A03F01CF9024668461F
:405CC000007B3070204601F039F81046D7E7FFB505463C20405C89B016460C46002810D0084601F095F801280BD0308869468883002809D000272046FFF790FA012805D0B9
:405D000005E000200DB0F0BD0220FBE70127204603A93830019100902346E17E34333A46E06903F02BF9291D2B1D07A8129A6D4607C5204603A924300C9A03F0DBF802469B
:405D40006846808B3080204600F0F8FF1046D9E770B50D460446FFF761FA01280AD0E87AA97A00020143A07801F054FD012808D0002070BD00222421204602F0FBFD2420D3
:405D800070BD28214C200155204600F0A3FB282070BD0000002801D0002000E003484030C07F012800D00020704700004C1800200146002049070ED50021084B03E00029E1
:405DC00001D0002200E01A461279022A04D0491C0906090EF3D07047012070474C1800200146002049070ED50021084B03E0002901D0002200E01A461279022A04D0491C47
:405E00000906090EF3D07047012070474C18002010B5044680346068002803D00DF0CCF90020606010BD403041707047403081707047403001707047017170479200101806
:405E4000C166704770B53C2501F080F9040004D020460021433001F033FCFF222946204600F0D4FB002C02D0A07801F0F1F870BD10B5002801D0002000E00348002802D08D
:405E8000008904F0D1FF10BD4C18002010B5002801D0002000E00448002804D00179072901D100F047F810BD4C18002010B501F04DF9002802D0807801F0CAF810BD0020B4
:405EC0007047000070B50546008A00281ED01049F122897A1140C90618D5294640314A8A098A521C4A4392B2D10800D10121540801E0621A94B2A042FBD9FEF767FF0128D4
:405F000004D1298AA878224601F04AFD70BD0000E417002010B50023054C0B60248A944204D992001018C26E0A60C36610BD00000419002038B5044600200090A07900281D
:405F400014D14020015D052901D00E290ED168460DF0C4F8002809D12046009902F0E8FC03481021C28A2046FFF746FC38BD0000E417002010B50B4604460146184602F0BE
:405F800065F9002802D020460DF00CF910BD13B5044601AA11460620FEF7AAF86846818861811CBD002800D10220704770470000F8B504462346401D543300909A1EA078E4
:405FC000911E01F029FB25464035A88A298A8000FCF716F9401E81B2688A884203D96982A07802F077F820460021433001F068FB27480088E88102F09DFFE989891C8AB27A
:406000006179FFF7A3FD01F009FD02F093FF2A8A6179FFF79BFD074601F0F4FC688A002806D01C49088A032212021043088202E0002002F043F81748803801886E8A002E39
:406040000CD0304648431449FCF7CAF90004000C01D0401C80B21149488002E00F4800214180288A704381B2A07801F045FFFF2228374932B9B21346204602F02DFDE98AEB
:40608000A07801F099FEA07801F056FAF8BD000080102E40E0112E4071020000241000207FB504468034616805460E46183108226846FCF7C0FF31462031082202A8FCF712
:4060C000BAFF102168460CF0A3FF6068102108300CF09EFF60682B46083024331022694602F0F4FE7FBD10B504460821FFF78FFB10212046FFF78BFB207905281FD0062829
:406100001DD008281AD12189002004F005FE072020712046FFF782F8014620464030012913D00E21017000210176204600F0A2FF2046FFF76DFE2046FFF7C4FE10BD208954
:406140000122002104F0CCFDE1E70521EAE70000FFB581B01F4604460821FFF758FB10212046FFF754FB2079082803D0092804D0042203E00422012501E0092200252046F0
:4061800000F032FE264600204036307022712046FFF73EFE0398002D02D0012808D00BE001280AD120890022029904F099FD04E02189029804F0B0FD012700203076012F91
:4061C00004D0204600F056FF05B0F0BD02983073204602F0FBFB054605480121C28A2046FFF70AFB002DEFD109202071ECE70000E417002070B50C460546FFF70FF801284F
:4062000009D108212846FFF702FB0023012221462846FFF79DFF70BD10B5044600F0E4FD2046FFF7F5FD00214034217010BD70B505461A24FEF7F2FF012809D108212846D1
:40624000FFF7E5FA0023012221462846FFF780FF70BD0000F8B50446002000900E4668460CF03CFF002801D00D20F8BD8420005908212030009D00F01AFA204604213830C7
:4062800000F015FA002E02D1204600F0E9FD2946204602F0DCFA0E480821C28A2046FFF7ABFA204600F057FF25464035002808D0204600F023F8002801D009202870002062
:4062C000F8BD08202870204600F0C0FFF7E70000E4170020014610B540310A460978082906D0092907D00A2901D100F091F810BD0B20107010BD00F001F810BD70B50446D5
:40630000007925464035052805D0062803D008280FD00C2070BD03220621204602F02AFB0D480821C28A2046FFF766FA1120287010E006202873204602F048FB0646AA8AB5
:406340000A20424301212046FFF756FA002E01D109202071002070BDE417002038B504460020009068460CF0B9FE002801D00D2038BD2046009D00F0B1F90820207120465F
:4063800000F06EFD2946204602F094FA00213D2001550F2040210855204600F057FF002038BD00B5024600F01FFD10214032117000BD10B50446FEF731FF012809D040202B
:4063C000005D112805D100231A4606212046FFF7BFFE10BD10B5FFF786FE10BD38B504460021684600910CF079FE00280CD12046009902F0E0FA05480821C28A2046FFF79D
:40640000FBF90D204034207038BD0000E417002038B504460021684600910CF05FFE002801D00D2038BD2046009902F0B9FA05480821C28A2046FFF7DFF90C204034207052
:40644000002038BDE417002000787047F8B50025002801D0002400E01A4C002C28D0204600F0CBFC002823D0207903281CD005281CD026464036B18AA07801F047FDB078D1
:40648000012815D10021204601F0FDFE274680373868002802D00CF08FFE3D600020B0702079072805D007E0042000E006202071F8BD2046FFF706FD0221204600F0E0FE8C
:4064C000F8BD00004C18002010B54C22115400F04CF810BD10B50446FF21FFF798F909202071A07801F038FD10BD000038B5FF216A461180002801D0002400E0084C002C84
:406500000DD011460620FDF7F3FD684601882046FFF73DFD03480068C1692046884738BD4C1800205410002010B504468079002809D022214C200155FF212046FFF767F957
:40654000204600F012F810BD10B5037902464032002B03D01173092B02D003E0002100E02221117300F001F810BDFEB504460089002700902781207926464036002817D09B
:40658000012815D002280AD112E002AA01A9204601F04AFE002807D101980CF003FE204601F06AFE0028F0D02046FEF789FDB776254680352868002802D00CF0FDFD2F6067
:4065C0006868002802D00CF0F7FD6F60317B002919D0009800F064F8A078002100F0C0FF2046FFF7A9FAA07801F0FEF8A07800F02FFDFF212046FFF70AF90B20FFF7E2F8DC
:4066000000F068FCFEBD1F213173E2E7F8B517460E46054602F08AFC04003CD020460C3001F03EF82046062200211830FCF70CFD2046062200211230FCF706FD1648224604
:4066400000683946436A28469847074626702846FEF7E4FD012148406070002D10D02889608028464030C1782171002E0FD169796171018AE180418A2181808A608106E065
:406680000648008BC005C00F2071002060803946204604F0C4FAF8BD3C10002000102E400A4610B50146002004F0D6FB10BD10B50CF08AFA10BD000000B50146FFF716FA84
:4066C000002801D0002000E00348002802D002898A4200D0002000BD4C18002038B5044680346068002806D168460CF007FD002801D100986060606838BD000010B5014659
:4067000000F086FB0128887802D0FEF791FD10BD8C214843024940186030007F10BD00002C18002070B5054604464035A87F012811D1A1788C20084A484380186030067FD2
:406740003046FEF739FF002805D10220A877A078314601F0F3F870BD2C18002010B50C4CA07A002813D0FEF7D3FF0A48027F417F408B00F0B7FB012809D10020A07200F00D
:4067800045FF05498989090B01D000F03BFA10BDE81800202C180020A0102E4070477047490510B5490F0B00FCF74AFE060704080C0C0F073E21FFF787FE10BD0821FFF790
:4067C000C3FE10BDFFF7D1FE10BDFFF7ADFE10BDF8B507460025002D01D0002600E0204E00F0E2FE3046403044890021418100F0E5FE304600F001FB01282BD1A00702D53C
:406800002846FFF723FEE00602D52846FFF76EFEA00601D5FEF77CFF600601D500F014FB200602D5284600F01DF8600702D5284600F02CFA380402D52846FFF727FB7804D8
:4068400002D52846FFF714FBE00703D021463046FFF7A6FF6D1C2D062D0EBCD0F8BD00004C180020F8B5002801D0002400E0284C002C4BD025464035A878012846D1FF2715
:406880008820493700593E46002805D02149897A890601D5878AC68A2046FEF7BFFC012834D002F047FB2A8A6179FFF74FF9009001F0A8F800983346283081B23A462046BD
:4068C00002F00AF9E98AA07801F076FA12480188688A124E002810D048431149FBF780FD0004000C01D0401C80B27080A07DC107C90F002001F0A4FB01E000207080288AB7
:40690000698A484381B2A07801F0F6FAF8BD00004C180020E417002060112E40241000207102000001490968096808475410002070B50D460026194A0146002801D000244F
:4069400001E014462034002C26D0204600F060FA01280AD18C20484380186030007FFEF72BFE002801D101F0B1FF0D48006881692046884700280CD020464030817EA9427B
:4069800002D3491B817600E086762089294604F004FA204600F05AFC70BD00002C1800205410002070B503460088FFF785FE040013D000F022FA00280FD02079092819D0E4
:4069C0002546997840352973204601F0FFFF0646A878012803D0AA8A02E0022070BDEA880A20424301212046FEF706FF002E01D109202071002070BD0EB5002217216B4670
:406A00000292198100905A810120029B00990CF073FC0EBDF8B518480024807A002822D1164E0025B089000B22E0204600F0B6FE1249A039401807882A462146384600F0B1
:406A400051FA012810D00E480122478305770A4944778A72002D01D0002000E02030002801D000F0F3FBF8BDB089000B641CE4B20028DAD1F8BD0000E8180020A0102E40FF
:406A80002C18002010B50088FFF716FE002809D0014640310C460978082905D00B2903D00C2010BD022010BDFFF728FC002801D009202070002010BD70B503460088FFF7F5
:406AC000FBFD040008D0254640352878082805D00B2803D00C2070BD022070BD8420005910220830991CFCF7A6FA2046FFF7D8FA2878082804D02046FFF78AFC002801D033
:406B00000A202870204600F0A1FB002070BD000010B50C46002121700088FFF7CDFD03000BD000F06AF9002807D00948F121807A0840C00603D4112010BD022010BD0220C2
:406B400020701A8A1889002104F0A2F9002010BDE4170020F8B50F46002100910088FFF7ABFD040012D000F048F900280ED0E079410641D4617E02264A07002A08DB8907E7
:406B8000402500291ADA2843E07135E00220F8BD02F0CCF90021017021894180A1898180217E4170E189C1803E7005460178134803F028FE284604F00FF91DE0204600F02E
:406BC0002DF9012806D068460CF088FA002803D00720F8BD2A20F8BDE07900992843E071204601F01DFF607E0421304360760448C28A2046FEF700FE0020F8BD1D0400001A
:406C0000E41700203EB500220F236C460292238100910190628169460EC900200CF06CFB3EBD0000F8B50F46054600F08FFA040025D003202071254600264035EE76E670CC
:406C40002046FFF7B5F901F0A3F80920FEF7BAFDA07800F0B7FD0121204600F011FB2E706E70AE703A4600212046FFF7CFFC0649887B401C8873A078FFF754FEF8BD2846DB
:406C800001F06AF9F8BD00002C18002010B5002801D0002000E0094800280DD0014640310A464978022901D100215170807DC107C90F002001F0C4F910BD00004C180020EF
:406CC00070B503460D460088FFF7F6FC04000BD000F093F8002807D01248F121807A0840C00603D4112070BD022070BD20464030418A008A491C41430804C10C588888427B
:406D000001D2122070BD20822079072802D12046FFF7D8F8022028702089002104F0E0F8002070BDE4170020016A491C016204D1817E491C4906490E81767047C169491CB1
:406D4000C16104D1C17E491C4906490EC1767047F0B5074687B003A8009005A800260D460190002F01D0002400E01B4C002C05D06846FCF7BDF9002803D00BE0022007B047
:406D8000F0BD68460089C00704D18C2200212046FCF75AF9114829460068826820469047050016D1A77066762746267140373E70204600F019F8204601F05AFA0848208275
:406DC0000848BE77807AF121084000D001202075E682E8B2D3E700004C18002054100020B80B0000E4170020002101628176C161C17620300177417770470079002805D011
:406E0000012803D0022801D001207047002070474030807F002800D00120704740300078002807D0012805D0052803D00E2801D0012070470020704710B5807801F098F993
:406E4000002800D0012010BD10B500F0DFFB03498989090B01D0FFF7D5FE10BDA0102E4070B5054604464035A87F002825D1FF206075A0788C21154A484380186030417FA7
:406E80008C23491CC9B24177A0785843104B8018DB896030994201D300214177A0788C21484380186030467F0677A1783046FEF783FB002802D00120A87770BD0220A87705
:406EC000A078314600F03AFD70BD00002C180020041900200020401C0006000EFBD0002070470000F0B515468207920F85B0000A02926A469080002D01D0002400E0524C7F
:406F0000002C28D0084600F049FC07466846808800280BD00298012843D0022841D003280BD03D20005D012870D087E04748381801882046FFF72BF880E00020029002A860
:406F40000CF0ACF8002807D03D20005D012878D12046FFF7E9FE74E06846029E8388324600213846FCF7D6FF3848381801882046FFF70DF8284600F0EBFA01AA21463046F2
:406F8000FEF7FAFD002806D030460CF0F7F83D204C21085528E0F5773146204601F0CEFA4FE0002000902089039068460CF066F8002802D0002005B0F0BD6846009E83885F
:406FC000321D00213846FCF7A5FF2048381801882046FEF7DCFF284600F0BAFA25464035287E00280CD103E02046FFF773FA28E001AA21463046029BFEF7F6FD002806D039
:4070000030460CF0B1F83D202873EDE713E00298FEF7CCFF01460398307003980901000A0843707068468088B070000AF0703046FFF7E2FC05E02046FFF776FE284600F023
:4070400087FA0120B7E700004C18002000102E4010B5074A917B002901D0491E91730021FFF776FE002801D0002010BD012010BD2C180020F8B5074606464037B87F002868
:407080002DD0B0788C2100904843234945186035287F0099FEF7A5FA01281ED0287F401CC4B21E48C089A04200D800240020B877FF276F772F77A87702460146009800F05D
:4070C000B9FD717DFF2903D0304601F092F8777501F0FCFB0025114F19E00320B877F8BD00200090224669463046FEF713FF0099002904D0FF231A463046FEF78AFA641CDC
:40710000F889E4B2A04200D800246D1CEDB2F889A842E5D8F8BD00002C1800200419002010B502460021084B03E0002901D0002000E018460479944204D0491C0906090E46
:40714000F3D0002010BD00004C18002000B50120FFF7E6FF00BD10B5044601F0E7FE2189018080346168416061682831816003F0EDFD10BDF7B50646087982B00C46092864
:4071800007D0A078F0770846FFF742FE012806D010E030460CF006F8022005B0F0BDA1788C20294A484380186030007FFEF704FA012810D0A078FEF7EDFD01280BD0377802
:4071C0000121304601F02EFB25462035062F38D00B2F0FD107E06846027C21463046FEF7C9FE0D20D9E72046FEF718F8012801D1002028772046FFF781FA054604AA2146D1
:407200003046FEF726FD01205F2108556946097C002001910090A07833463A46294600F037FB69460A7CA0780323294600F0DAFEA0782946FDF722FF30460BF0B3FF002021
